{"contracts/Store.sol":{"Store":{"abi":[{"anonymous":false,"inputs":[{"indexed":false,"internalType":"address","name":"nftAddress","type":"address"},{"indexed":false,"internalType":"address","name":"nftOwnerAddress","type":"address"}],"name":"NFTOwnerChanged","type":"event"},{"anonymous":false,"inputs":[{"indexed":false,"internalType":"address","name":"nftAddress","type":"address"},{"indexed":false,"internalType":"bool","name":"status","type":"bool"}],"name":"NFTWhitelistStatusChanged","type":"event"},{"anonymous":false,"inputs":[{"indexed":true,"internalType":"address","name":"previousOwner","type":"address"},{"indexed":true,"internalType":"address","name":"newOwner","type":"address"}],"name":"OwnershipTransferred","type":"event"},{"anonymous":false,"inputs":[{"indexed":false,"internalType":"address[]","name":"nftAddresses","type":"address[]"},{"indexed":false,"internalType":"uint256[]","name":"tokenIds","type":"uint256[]"},{"indexed":false,"internalType":"address","name":"buyer","type":"address"},{"indexed":false,"internalType":"uint256","name":"shirtTokenId","type":"uint256"}],"name":"ShirtCreated","type":"event"},{"inputs":[{"internalType":"address[][]","name":"_nftAddresses","type":"address[][]"},{"internalType":"uint256[][]","name":"_tokenIds","type":"uint256[][]"}],"name":"buyShirt","outputs":[],"stateMutability":"payable","type":"function"},{"inputs":[{"internalType":"address[]","name":"_nftAddresses","type":"address[]"},{"internalType":"bool[]","name":"_status","type":"bool[]"}],"name":"changeNFTWhitelistStatus","outputs":[],"stateMutability":"nonpayable","type":"function"},{"inputs":[],"name":"eachShirtFee","outputs":[{"internalType":"uint256","name":"","type":"uint256"}],"stateMutability":"view","type":"function"},{"inputs":[{"internalType":"address[][]","name":"_nftAddresses","type":"address[][]"},{"internalType":"uint256[][]","name":"_tokenIds","type":"uint256[][]"}],"name":"estimateCost","outputs":[{"internalType":"uint256","name":"cost","type":"uint256"}],"stateMutability":"view","type":"function"},{"inputs":[{"internalType":"address","name":"_nft","type":"address"},{"internalType":"uint256","name":"_shippingFee","type":"uint256"},{"internalType":"uint256","name":"_eachShirtFee","type":"uint256"},{"internalType":"uint256","name":"_percentRoyaltyFee","type":"uint256"}],"name":"initialize","outputs":[],"stateMutability":"nonpayable","type":"function"},{"inputs":[],"name":"owner","outputs":[{"internalType":"address","name":"","type":"address"}],"stateMutability":"view","type":"function"},{"inputs":[],"name":"percentRoyaltyFee","outputs":[{"internalType":"uint256","name":"","type":"uint256"}],"stateMutability":"view","type":"function"},{"inputs":[],"name":"renounceOwnership","outputs":[],"stateMutability":"nonpayable","type":"function"},{"inputs":[{"internalType":"uint256","name":"_eachShirtFee","type":"uint256"}],"name":"setEachShirtFee","outputs":[],"stateMutability":"nonpayable","type":"function"},{"inputs":[{"internalType":"address","name":"_shirtNFTAddress","type":"address"}],"name":"setNFTAddress","outputs":[],"stateMutability":"nonpayable","type":"function"},{"inputs":[{"internalType":"address[]","name":"_nftAddresses","type":"address[]"},{"internalType":"address[]","name":"_nftOwners","type":"address[]"}],"name":"setNFTOwner","outputs":[],"stateMutability":"nonpayable","type":"function"},{"inputs":[{"internalType":"uint256","name":"_percentRoyaltyFee","type":"uint256"}],"name":"setPercentRoyaltyFee","outputs":[],"stateMutability":"nonpayable","type":"function"},{"inputs":[{"internalType":"uint256","name":"_shippingFee","type":"uint256"}],"name":"setShippingFee","outputs":[],"stateMutability":"nonpayable","type":"function"},{"inputs":[],"name":"shippingFee","outputs":[{"internalType":"uint256","name":"","type":"uint256"}],"stateMutability":"view","type":"function"},{"inputs":[],"name":"shirtNFTAddress","outputs":[{"internalType":"address","name":"","type":"address"}],"stateMutability":"view","type":"function"},{"inputs":[{"internalType":"address","name":"newOwner","type":"address"}],"name":"transferOwnership","outputs":[],"stateMutability":"nonpayable","type":"function"},{"inputs":[{"internalType":"address[]","name":"_nftAddresses","type":"address[]"},{"internalType":"address[]","name":"_nftOwners","type":"address[]"}],"name":"whitelistNFT","outputs":[],"stateMutability":"nonpayable","type":"function"}],"devdoc":{"kind":"dev","methods":{"owner()":{"details":"Returns the address of the current owner."},"renounceOwnership()":{"details":"Leaves the contract without owner. It will not be possible to call `onlyOwner` functions anymore. Can only be called by the current owner. NOTE: Renouncing ownership will leave the contract without an owner, thereby removing any functionality that is only available to the owner."},"transferOwnership(address)":{"details":"Transfers ownership of the contract to a new account (`newOwner`). Can only be called by the current owner."}},"version":1},"evm":{"bytecode":{"linkReferences":{},"object":"608060405234801561001057600080fd5b50600160005561001f33610024565b610076565b600180546001600160a01b038381166001600160a01b0319831681179093556040519116919082907f8be0079c531659141344cd1fd0a4f28419497f9722a3daafe3b4186f6b6457e090600090a35050565b6113d7806100856000396000f3fe6080604052600436106100fe5760003560e01c806369d03738116100955780638da5cb5b116100645780638da5cb5b146102845780639e7c11a5146102a2578063ccf99a6e146102b8578063d3ac1e4a146102d8578063f2fde38b146102f857600080fd5b806369d0373814610219578063715018a6146102395780637719bc7b1461024e57806389bd3beb1461026e57600080fd5b80634abaf07e116100d15780634abaf07e1461018b5780634ec81af1146101a157806359f7963d146101c15780635d6297c2146101e157600080fd5b8063136a743c146101035780631cc88bcd1461012557806344ed1fa4146101455780634a59c50d14610158575b600080fd5b34801561010f57600080fd5b5061012361011e366004610ec6565b610318565b005b34801561013157600080fd5b50610123610140366004610ec6565b6103ce565b61012361015336600461100b565b61042a565b34801561016457600080fd5b5061017861017336600461100b565b610610565b6040519081526020015b60405180910390f35b34801561019757600080fd5b5061017860035481565b3480156101ad57600080fd5b506101236101bc3660046110d5565b6106d2565b3480156101cd57600080fd5b506101236101dc36600461110e565b6107cb565b3480156101ed57600080fd5b50600254610201906001600160a01b031681565b6040516001600160a01b039091168152602001610182565b34801561022557600080fd5b50610123610234366004611127565b6107d8565b34801561024557600080fd5b50610123610802565b34801561025a57600080fd5b50610123610269366004611157565b610816565b34801561027a57600080fd5b5061017860055481565b34801561029057600080fd5b506001546001600160a01b0316610201565b3480156102ae57600080fd5b5061017860045481565b3480156102c457600080fd5b506101236102d336600461110e565b610930565b3480156102e457600080fd5b506101236102f336600461110e565b61093d565b34801561030457600080fd5b50610123610313366004611127565b61094a565b6103206109c3565b81518151811461034b5760405162461bcd60e51b81526004016103429061121b565b60405180910390fd5b60005b818110156103c85761037a84828151811061036b5761036b611243565b60200260200101516001610a1d565b6103b684828151811061038f5761038f611243565b60200260200101518483815181106103a9576103a9611243565b6020026020010151610a81565b806103c08161126f565b91505061034e565b50505050565b6103d66109c3565b8151815181146103f85760405162461bcd60e51b81526004016103429061121b565b60005b818110156103c85761041884828151811061038f5761038f611243565b806104228161126f565b9150506103fb565b81518151811461044c5760405162461bcd60e51b81526004016103429061121b565b60006104588484610610565b90508034146104975760405162461bcd60e51b815260206004820152600b60248201526a57726f6e672076616c756560a81b6044820152606401610342565b60005b828110156106095760008582815181106104b6576104b6611243565b60200260200101515190508482815181106104d3576104d3611243565b60200260200101515181146104fa5760405162461bcd60e51b81526004016103429061121b565b60005b818110156105b9576006600088858151811061051b5761051b611243565b6020026020010151838151811061053457610534611243565b6020908102919091018101516001600160a01b031682528101919091526040016000205460ff166105a75760405162461bcd60e51b815260206004820152601c60248201527f4e465420686173206e6f74206265656e2077686974656c6973746564000000006044820152606401610342565b806105b18161126f565b9150506104fd565b506105f68683815181106105cf576105cf611243565b60200260200101518684815181106105e9576105e9611243565b6020026020010151610ae5565b50806106018161126f565b91505061049a565b5050505050565b815181516000919081146106365760405162461bcd60e51b81526004016103429061121b565b6000805b8281101561067c5785818151811061065457610654611243565b60200260200101515182610668919061128a565b9150806106748161126f565b91505061063a565b506003546127106005546004548561069491906112a2565b61069e91906112a2565b6106a891906112c1565b6004546106b590856112a2565b6106bf919061128a565b6106c9919061128a565b95945050505050565b600154600160a81b900460ff166106f657600154600160a01b900460ff16156106fa565b303b155b61075d5760405162461bcd60e51b815260206004820152602e60248201527f496e697469616c697a61626c653a20636f6e747261637420697320616c72656160448201526d191e481a5b9a5d1a585b1a5e995960921b6064820152608401610342565b600154600160a81b900460ff16158015610787576001805461ffff60a01b191661010160a01b1790555b600280546001600160a01b0319166001600160a01b0387161790556003849055600483905560058290558015610609576001805460ff60a81b191690555050505050565b6107d36109c3565b600455565b6107e06109c3565b600280546001600160a01b0319166001600160a01b0392909216919091179055565b61080a6109c3565b6108146000610cc6565b565b61081e6109c3565b8151815181146108405760405162461bcd60e51b81526004016103429061121b565b60005b818110156103c85760006001600160a01b03166007600086848151811061086c5761086c611243565b6020908102919091018101516001600160a01b03908116835290820192909252604001600020541614156108e25760405162461bcd60e51b815260206004820152601a60248201527f4e4654204f776e657220686173206e6f74206265656e207365740000000000006044820152606401610342565b61091e8482815181106108f7576108f7611243565b602002602001015184838151811061091157610911611243565b6020026020010151610a1d565b806109288161126f565b915050610843565b6109386109c3565b600555565b6109456109c3565b600355565b6109526109c3565b6001600160a01b0381166109b75760405162461bcd60e51b815260206004820152602660248201527f4f776e61626c653a206e6577206f776e657220697320746865207a65726f206160448201526564647265737360d01b6064820152608401610342565b6109c081610cc6565b50565b6001546001600160a01b031633146108145760405162461bcd60e51b815260206004820181905260248201527f4f776e61626c653a2063616c6c6572206973206e6f7420746865206f776e65726044820152606401610342565b6001600160a01b038216600081815260066020908152604091829020805460ff19168515159081179091558251938452908301527f990ecd0def76eff86d5a91a08dbfb0f33a9c9e1873684a516a93ccf3f70a325691015b60405180910390a15050565b6001600160a01b0382811660008181526007602090815260409182902080546001600160a01b031916948616948517905581519283528201929092527f970c3f5f7f64fbd82c31e769d06a9a152177702a2ef86b0018d6e8ea1c97cf299101610a75565b604080516080810182528381526020810183905233818301819052600854606083018190526002549351632851206560e21b81526004810192909252602482015290916000916001600160a01b039091169063a144819490604401602060405180830381600087803b158015610b5a57600080fd5b505af1158015610b6e573d6000803e3d6000fd5b505050506040513d601f19601f82011682018060405250810190610b9291906112e3565b905080610bd65760405162461bcd60e51b815260206004820152601260248201527111985a5b1959081d1bc81b5a5b9d0813919560721b6044820152606401610342565b6008546000908152600960209081526040909120835180518593610bfe928492910190610d18565b506020828101518051610c179260018501920190610d7d565b506040828101516002830180546001600160a01b0319166001600160a01b03909216919091179055606090920151600390910155336000818152600a60209081528382206008805482546001810184559285529290932001555491517f206ba06c561797da5d0262fc18d44d194c8cc1988e613c7c96f3df8f8f330a3792610ca3928892889290611300565b60405180910390a160088054906000610cbb8361126f565b919050555050505050565b600180546001600160a01b038381166001600160a01b0319831681179093556040519116919082907f8be0079c531659141344cd1fd0a4f28419497f9722a3daafe3b4186f6b6457e090600090a35050565b828054828255906000526020600020908101928215610d6d579160200282015b82811115610d6d57825182546001600160a01b0319166001600160a01b03909116178255602090920191600190910190610d38565b50610d79929150610db8565b5090565b828054828255906000526020600020908101928215610d6d579160200282015b82811115610d6d578251825591602001919060010190610d9d565b5b80821115610d795760008155600101610db9565b634e487b7160e01b600052604160045260246000fd5b604051601f8201601f1916810167ffffffffffffffff81118282101715610e0c57610e0c610dcd565b604052919050565b600067ffffffffffffffff821115610e2e57610e2e610dcd565b5060051b60200190565b80356001600160a01b0381168114610e4f57600080fd5b919050565b600082601f830112610e6557600080fd5b81356020610e7a610e7583610e14565b610de3565b82815260059290921b84018101918181019086841115610e9957600080fd5b8286015b84811015610ebb57610eae81610e38565b8352918301918301610e9d565b509695505050505050565b60008060408385031215610ed957600080fd5b823567ffffffffffffffff80821115610ef157600080fd5b610efd86838701610e54565b93506020850135915080821115610f1357600080fd5b50610f2085828601610e54565b9150509250929050565b600082601f830112610f3b57600080fd5b81356020610f4b610e7583610e14565b828152600592831b8501820192828201919087851115610f6a57600080fd5b8387015b85811015610ffe57803567ffffffffffffffff811115610f8e5760008081fd5b8801603f81018a13610fa05760008081fd5b858101356040610fb2610e7583610e14565b82815291851b8301810191888101908d841115610fcf5760008081fd5b938201935b83851015610fed57843582529389019390890190610fd4565b885250505093850193508401610f6e565b5090979650505050505050565b6000806040838503121561101e57600080fd5b823567ffffffffffffffff8082111561103657600080fd5b818501915085601f83011261104a57600080fd5b8135602061105a610e7583610e14565b82815260059290921b8401810191818101908984111561107957600080fd5b8286015b848110156110b1578035868111156110955760008081fd5b6110a38c86838b0101610e54565b84525091830191830161107d565b50965050860135925050808211156110c857600080fd5b50610f2085828601610f2a565b600080600080608085870312156110eb57600080fd5b6110f485610e38565b966020860135965060408601359560600135945092505050565b60006020828403121561112057600080fd5b5035919050565b60006020828403121561113957600080fd5b61114282610e38565b9392505050565b80151581146109c057600080fd5b6000806040838503121561116a57600080fd5b823567ffffffffffffffff8082111561118257600080fd5b61118e86838701610e54565b93506020915081850135818111156111a557600080fd5b85019050601f810186136111b857600080fd5b80356111c6610e7582610e14565b81815260059190911b820183019083810190888311156111e557600080fd5b928401925b8284101561120c5783356111fd81611149565b825292840192908401906111ea565b80955050505050509250929050565b6020808252600e908201526d092dcecc2d8d2c840d8cadccee8d60931b604082015260600190565b634e487b7160e01b600052603260045260246000fd5b634e487b7160e01b600052601160045260246000fd5b600060001982141561128357611283611259565b5060010190565b6000821982111561129d5761129d611259565b500190565b60008160001904831182151516156112bc576112bc611259565b500290565b6000826112de57634e487b7160e01b600052601260045260246000fd5b500490565b6000602082840312156112f557600080fd5b815161114281611149565b6080808252855190820181905260009060209060a0840190828901845b828110156113425781516001600160a01b03168452928401929084019060010161131d565b5050508381038285015286518082528783019183019060005b818110156113775783518352928401929184019160010161135b565b50506001600160a01b03871660408601529250611392915050565b8260608301529594505050505056fea2646970667358221220446a9b3853595d2e447677634517a13d2a82279eeb3fee89fdfd7468b5af0b0764736f6c63430008090033","opcodes":"PUSH1 0x80 PUSH1 0x40 MSTORE CALLVALUE DUP1 ISZERO PUSH2 0x10 JUMPI PUSH1 0x0 DUP1 REVERT JUMPDEST POP PUSH1 0x1 PUSH1 0x0 SSTORE PUSH2 0x1F CALLER PUSH2 0x24 JUMP JUMPDEST PUSH2 0x76 JUMP JUMPDEST PUSH1 0x1 DUP1 SLOAD PUSH1 0x1 PUSH1 0x1 PUSH1 0xA0 SHL SUB DUP4 DUP2 AND PUSH1 0x1 PUSH1 0x1 PUSH1 0xA0 SHL SUB NOT DUP4 AND DUP2 OR SWAP1 SWAP4 SSTORE PUSH1 0x40 MLOAD SWAP2 AND SWAP2 SWAP1 DUP3 SWAP1 PUSH32 0x8BE0079C531659141344CD1FD0A4F28419497F9722A3DAAFE3B4186F6B6457E0 SWAP1 PUSH1 0x0 SWAP1 LOG3 POP POP JUMP JUMPDEST PUSH2 0x13D7 DUP1 PUSH2 0x85 PUSH1 0x0 CODECOPY PUSH1 0x0 RETURN INVALID PUSH1 0x80 PUSH1 0x40 MSTORE PUSH1 0x4 CALLDATASIZE LT PUSH2 0xFE JUMPI PUSH1 0x0 CALLDATALOAD PUSH1 0xE0 SHR DUP1 PUSH4 0x69D03738 GT PUSH2 0x95 JUMPI DUP1 PUSH4 0x8DA5CB5B GT PUSH2 0x64 JUMPI DUP1 PUSH4 0x8DA5CB5B EQ PUSH2 0x284 JUMPI DUP1 PUSH4 0x9E7C11A5 EQ PUSH2 0x2A2 JUMPI DUP1 PUSH4 0xCCF99A6E EQ PUSH2 0x2B8 JUMPI DUP1 PUSH4 0xD3AC1E4A EQ PUSH2 0x2D8 JUMPI DUP1 PUSH4 0xF2FDE38B EQ PUSH2 0x2F8 JUMPI PUSH1 0x0 DUP1 REVERT JUMPDEST DUP1 PUSH4 0x69D03738 EQ PUSH2 0x219 JUMPI DUP1 PUSH4 0x715018A6 EQ PUSH2 0x239 JUMPI DUP1 PUSH4 0x7719BC7B EQ PUSH2 0x24E JUMPI DUP1 PUSH4 0x89BD3BEB EQ PUSH2 0x26E JUMPI PUSH1 0x0 DUP1 REVERT JUMPDEST DUP1 PUSH4 0x4ABAF07E GT PUSH2 0xD1 JUMPI DUP1 PUSH4 0x4ABAF07E EQ PUSH2 0x18B JUMPI DUP1 PUSH4 0x4EC81AF1 EQ PUSH2 0x1A1 JUMPI DUP1 PUSH4 0x59F7963D EQ PUSH2 0x1C1 JUMPI DUP1 PUSH4 0x5D6297C2 EQ PUSH2 0x1E1 JUMPI PUSH1 0x0 DUP1 REVERT JUMPDEST DUP1 PUSH4 0x136A743C EQ PUSH2 0x103 JUMPI DUP1 PUSH4 0x1CC88BCD EQ PUSH2 0x125 JUMPI DUP1 PUSH4 0x44ED1FA4 EQ PUSH2 0x145 JUMPI DUP1 PUSH4 0x4A59C50D EQ PUSH2 0x158 JUMPI JUMPDEST PUSH1 0x0 DUP1 REVERT JUMPDEST CALLVALUE DUP1 ISZERO PUSH2 0x10F JUMPI PUSH1 0x0 DUP1 REVERT JUMPDEST POP PUSH2 0x123 PUSH2 0x11E CALLDATASIZE PUSH1 0x4 PUSH2 0xEC6 JUMP JUMPDEST PUSH2 0x318 JUMP JUMPDEST STOP JUMPDEST CALLVALUE DUP1 ISZERO PUSH2 0x131 JUMPI PUSH1 0x0 DUP1 REVERT JUMPDEST POP PUSH2 0x123 PUSH2 0x140 CALLDATASIZE PUSH1 0x4 PUSH2 0xEC6 JUMP JUMPDEST PUSH2 0x3CE JUMP JUMPDEST PUSH2 0x123 PUSH2 0x153 CALLDATASIZE PUSH1 0x4 PUSH2 0x100B JUMP JUMPDEST PUSH2 0x42A JUMP JUMPDEST CALLVALUE DUP1 ISZERO PUSH2 0x164 JUMPI PUSH1 0x0 DUP1 REVERT JUMPDEST POP PUSH2 0x178 PUSH2 0x173 CALLDATASIZE PUSH1 0x4 PUSH2 0x100B JUMP JUMPDEST PUSH2 0x610 JUMP JUMPDEST PUSH1 0x40 MLOAD SWAP1 DUP2 MSTORE PUSH1 0x20 ADD JUMPDEST PUSH1 0x40 MLOAD DUP1 SWAP2 SUB SWAP1 RETURN JUMPDEST CALLVALUE DUP1 ISZERO PUSH2 0x197 JUMPI PUSH1 0x0 DUP1 REVERT JUMPDEST POP PUSH2 0x178 PUSH1 0x3 SLOAD DUP2 JUMP JUMPDEST CALLVALUE DUP1 ISZERO PUSH2 0x1AD JUMPI PUSH1 0x0 DUP1 REVERT JUMPDEST POP PUSH2 0x123 PUSH2 0x1BC CALLDATASIZE PUSH1 0x4 PUSH2 0x10D5 JUMP JUMPDEST PUSH2 0x6D2 JUMP JUMPDEST CALLVALUE DUP1 ISZERO PUSH2 0x1CD JUMPI PUSH1 0x0 DUP1 REVERT JUMPDEST POP PUSH2 0x123 PUSH2 0x1DC CALLDATASIZE PUSH1 0x4 PUSH2 0x110E JUMP JUMPDEST PUSH2 0x7CB JUMP JUMPDEST CALLVALUE DUP1 ISZERO PUSH2 0x1ED JUMPI PUSH1 0x0 DUP1 REVERT JUMPDEST POP PUSH1 0x2 SLOAD PUSH2 0x201 SWAP1 PUSH1 0x1 PUSH1 0x1 PUSH1 0xA0 SHL SUB AND DUP2 JUMP JUMPDEST PUSH1 0x40 MLOAD PUSH1 0x1 PUSH1 0x1 PUSH1 0xA0 SHL SUB SWAP1 SWAP2 AND DUP2 MSTORE PUSH1 0x20 ADD PUSH2 0x182 JUMP JUMPDEST CALLVALUE DUP1 ISZERO PUSH2 0x225 JUMPI PUSH1 0x0 DUP1 REVERT JUMPDEST POP PUSH2 0x123 PUSH2 0x234 CALLDATASIZE PUSH1 0x4 PUSH2 0x1127 JUMP JUMPDEST PUSH2 0x7D8 JUMP JUMPDEST CALLVALUE DUP1 ISZERO PUSH2 0x245 JUMPI PUSH1 0x0 DUP1 REVERT JUMPDEST POP PUSH2 0x123 PUSH2 0x802 JUMP JUMPDEST CALLVALUE DUP1 ISZERO PUSH2 0x25A JUMPI PUSH1 0x0 DUP1 REVERT JUMPDEST POP PUSH2 0x123 PUSH2 0x269 CALLDATASIZE PUSH1 0x4 PUSH2 0x1157 JUMP JUMPDEST PUSH2 0x816 JUMP JUMPDEST CALLVALUE DUP1 ISZERO PUSH2 0x27A JUMPI PUSH1 0x0 DUP1 REVERT JUMPDEST POP PUSH2 0x178 PUSH1 0x5 SLOAD DUP2 JUMP JUMPDEST CALLVALUE DUP1 ISZERO PUSH2 0x290 JUMPI PUSH1 0x0 DUP1 REVERT JUMPDEST POP PUSH1 0x1 SLOAD PUSH1 0x1 PUSH1 0x1 PUSH1 0xA0 SHL SUB AND PUSH2 0x201 JUMP JUMPDEST CALLVALUE DUP1 ISZERO PUSH2 0x2AE JUMPI PUSH1 0x0 DUP1 REVERT JUMPDEST POP PUSH2 0x178 PUSH1 0x4 SLOAD DUP2 JUMP JUMPDEST CALLVALUE DUP1 ISZERO PUSH2 0x2C4 JUMPI PUSH1 0x0 DUP1 REVERT JUMPDEST POP PUSH2 0x123 PUSH2 0x2D3 CALLDATASIZE PUSH1 0x4 PUSH2 0x110E JUMP JUMPDEST PUSH2 0x930 JUMP JUMPDEST CALLVALUE DUP1 ISZERO PUSH2 0x2E4 JUMPI PUSH1 0x0 DUP1 REVERT JUMPDEST POP PUSH2 0x123 PUSH2 0x2F3 CALLDATASIZE PUSH1 0x4 PUSH2 0x110E JUMP JUMPDEST PUSH2 0x93D JUMP JUMPDEST CALLVALUE DUP1 ISZERO PUSH2 0x304 JUMPI PUSH1 0x0 DUP1 REVERT JUMPDEST POP PUSH2 0x123 PUSH2 0x313 CALLDATASIZE PUSH1 0x4 PUSH2 0x1127 JUMP JUMPDEST PUSH2 0x94A JUMP JUMPDEST PUSH2 0x320 PUSH2 0x9C3 JUMP JUMPDEST DUP2 MLOAD DUP2 MLOAD DUP2 EQ PUSH2 0x34B JUMPI PUSH1 0x40 MLOAD PUSH3 0x461BCD PUSH1 0xE5 SHL DUP2 MSTORE PUSH1 0x4 ADD PUSH2 0x342 SWAP1 PUSH2 0x121B JUMP JUMPDEST PUSH1 0x40 MLOAD DUP1 SWAP2 SUB SWAP1 REVERT JUMPDEST PUSH1 0x0 JUMPDEST DUP2 DUP2 LT ISZERO PUSH2 0x3C8 JUMPI PUSH2 0x37A DUP5 DUP3 DUP2 MLOAD DUP2 LT PUSH2 0x36B JUMPI PUSH2 0x36B PUSH2 0x1243 JUMP JUMPDEST PUSH1 0x20 MUL PUSH1 0x20 ADD ADD MLOAD PUSH1 0x1 PUSH2 0xA1D JUMP JUMPDEST PUSH2 0x3B6 DUP5 DUP3 DUP2 MLOAD DUP2 LT PUSH2 0x38F JUMPI PUSH2 0x38F PUSH2 0x1243 JUMP JUMPDEST PUSH1 0x20 MUL PUSH1 0x20 ADD ADD MLOAD DUP5 DUP4 DUP2 MLOAD DUP2 LT PUSH2 0x3A9 JUMPI PUSH2 0x3A9 PUSH2 0x1243 JUMP JUMPDEST PUSH1 0x20 MUL PUSH1 0x20 ADD ADD MLOAD PUSH2 0xA81 JUMP JUMPDEST DUP1 PUSH2 0x3C0 DUP2 PUSH2 0x126F JUMP JUMPDEST SWAP2 POP POP PUSH2 0x34E JUMP JUMPDEST POP POP POP POP JUMP JUMPDEST PUSH2 0x3D6 PUSH2 0x9C3 JUMP JUMPDEST DUP2 MLOAD DUP2 MLOAD DUP2 EQ PUSH2 0x3F8 JUMPI PUSH1 0x40 MLOAD PUSH3 0x461BCD PUSH1 0xE5 SHL DUP2 MSTORE PUSH1 0x4 ADD PUSH2 0x342 SWAP1 PUSH2 0x121B JUMP JUMPDEST PUSH1 0x0 JUMPDEST DUP2 DUP2 LT ISZERO PUSH2 0x3C8 JUMPI PUSH2 0x418 DUP5 DUP3 DUP2 MLOAD DUP2 LT PUSH2 0x38F JUMPI PUSH2 0x38F PUSH2 0x1243 JUMP JUMPDEST DUP1 PUSH2 0x422 DUP2 PUSH2 0x126F JUMP JUMPDEST SWAP2 POP POP PUSH2 0x3FB JUMP JUMPDEST DUP2 MLOAD DUP2 MLOAD DUP2 EQ PUSH2 0x44C JUMPI PUSH1 0x40 MLOAD PUSH3 0x461BCD PUSH1 0xE5 SHL DUP2 MSTORE PUSH1 0x4 ADD PUSH2 0x342 SWAP1 PUSH2 0x121B JUMP JUMPDEST PUSH1 0x0 PUSH2 0x458 DUP5 DUP5 PUSH2 0x610 JUMP JUMPDEST SWAP1 POP DUP1 CALLVALUE EQ PUSH2 0x497 JUMPI PUSH1 0x40 MLOAD PUSH3 0x461BCD PUSH1 0xE5 SHL DUP2 MSTORE PUSH1 0x20 PUSH1 0x4 DUP3 ADD MSTORE PUSH1 0xB PUSH1 0x24 DUP3 ADD MSTORE PUSH11 0x57726F6E672076616C7565 PUSH1 0xA8 SHL PUSH1 0x44 DUP3 ADD MSTORE PUSH1 0x64 ADD PUSH2 0x342 JUMP JUMPDEST PUSH1 0x0 JUMPDEST DUP3 DUP2 LT ISZERO PUSH2 0x609 JUMPI PUSH1 0x0 DUP6 DUP3 DUP2 MLOAD DUP2 LT PUSH2 0x4B6 JUMPI PUSH2 0x4B6 PUSH2 0x1243 JUMP JUMPDEST PUSH1 0x20 MUL PUSH1 0x20 ADD ADD MLOAD MLOAD SWAP1 POP DUP5 DUP3 DUP2 MLOAD DUP2 LT PUSH2 0x4D3 JUMPI PUSH2 0x4D3 PUSH2 0x1243 JUMP JUMPDEST PUSH1 0x20 MUL PUSH1 0x20 ADD ADD MLOAD MLOAD DUP2 EQ PUSH2 0x4FA JUMPI PUSH1 0x40 MLOAD PUSH3 0x461BCD PUSH1 0xE5 SHL DUP2 MSTORE PUSH1 0x4 ADD PUSH2 0x342 SWAP1 PUSH2 0x121B JUMP JUMPDEST PUSH1 0x0 JUMPDEST DUP2 DUP2 LT ISZERO PUSH2 0x5B9 JUMPI PUSH1 0x6 PUSH1 0x0 DUP9 DUP6 DUP2 MLOAD DUP2 LT PUSH2 0x51B JUMPI PUSH2 0x51B PUSH2 0x1243 JUMP JUMPDEST PUSH1 0x20 MUL PUSH1 0x20 ADD ADD MLOAD DUP4 DUP2 MLOAD DUP2 LT PUSH2 0x534 JUMPI PUSH2 0x534 PUSH2 0x1243 JUMP JUMPDEST PUSH1 0x20 SWAP1 DUP2 MUL SWAP2 SWAP1 SWAP2 ADD DUP2 ADD MLOAD PUSH1 0x1 PUSH1 0x1 PUSH1 0xA0 SHL SUB AND DUP3 MSTORE DUP2 ADD SWAP2 SWAP1 SWAP2 MSTORE PUSH1 0x40 ADD PUSH1 0x0 KECCAK256 SLOAD PUSH1 0xFF AND PUSH2 0x5A7 JUMPI PUSH1 0x40 MLOAD PUSH3 0x461BCD PUSH1 0xE5 SHL DUP2 MSTORE PUSH1 0x20 PUSH1 0x4 DUP3 ADD MSTORE PUSH1 0x1C PUSH1 0x24 DUP3 ADD MSTORE PUSH32 0x4E465420686173206E6F74206265656E2077686974656C697374656400000000 PUSH1 0x44 DUP3 ADD MSTORE PUSH1 0x64 ADD PUSH2 0x342 JUMP JUMPDEST DUP1 PUSH2 0x5B1 DUP2 PUSH2 0x126F JUMP JUMPDEST SWAP2 POP POP PUSH2 0x4FD JUMP JUMPDEST POP PUSH2 0x5F6 DUP7 DUP4 DUP2 MLOAD DUP2 LT PUSH2 0x5CF JUMPI PUSH2 0x5CF PUSH2 0x1243 JUMP JUMPDEST PUSH1 0x20 MUL PUSH1 0x20 ADD ADD MLOAD DUP7 DUP5 DUP2 MLOAD DUP2 LT PUSH2 0x5E9 JUMPI PUSH2 0x5E9 PUSH2 0x1243 JUMP JUMPDEST PUSH1 0x20 MUL PUSH1 0x20 ADD ADD MLOAD PUSH2 0xAE5 JUMP JUMPDEST POP DUP1 PUSH2 0x601 DUP2 PUSH2 0x126F JUMP JUMPDEST SWAP2 POP POP PUSH2 0x49A JUMP JUMPDEST POP POP POP POP POP JUMP JUMPDEST DUP2 MLOAD DUP2 MLOAD PUSH1 0x0 SWAP2 SWAP1 DUP2 EQ PUSH2 0x636 JUMPI PUSH1 0x40 MLOAD PUSH3 0x461BCD PUSH1 0xE5 SHL DUP2 MSTORE PUSH1 0x4 ADD PUSH2 0x342 SWAP1 PUSH2 0x121B JUMP JUMPDEST PUSH1 0x0 DUP1 JUMPDEST DUP3 DUP2 LT ISZERO PUSH2 0x67C JUMPI DUP6 DUP2 DUP2 MLOAD DUP2 LT PUSH2 0x654 JUMPI PUSH2 0x654 PUSH2 0x1243 JUMP JUMPDEST PUSH1 0x20 MUL PUSH1 0x20 ADD ADD MLOAD MLOAD DUP3 PUSH2 0x668 SWAP2 SWAP1 PUSH2 0x128A JUMP JUMPDEST SWAP2 POP DUP1 PUSH2 0x674 DUP2 PUSH2 0x126F JUMP JUMPDEST SWAP2 POP POP PUSH2 0x63A JUMP JUMPDEST POP PUSH1 0x3 SLOAD PUSH2 0x2710 PUSH1 0x5 SLOAD PUSH1 0x4 SLOAD DUP6 PUSH2 0x694 SWAP2 SWAP1 PUSH2 0x12A2 JUMP JUMPDEST PUSH2 0x69E SWAP2 SWAP1 PUSH2 0x12A2 JUMP JUMPDEST PUSH2 0x6A8 SWAP2 SWAP1 PUSH2 0x12C1 JUMP JUMPDEST PUSH1 0x4 SLOAD PUSH2 0x6B5 SWAP1 DUP6 PUSH2 0x12A2 JUMP JUMPDEST PUSH2 0x6BF SWAP2 SWAP1 PUSH2 0x128A JUMP JUMPDEST PUSH2 0x6C9 SWAP2 SWAP1 PUSH2 0x128A JUMP JUMPDEST SWAP6 SWAP5 POP POP POP POP POP JUMP JUMPDEST PUSH1 0x1 SLOAD PUSH1 0x1 PUSH1 0xA8 SHL SWAP1 DIV PUSH1 0xFF AND PUSH2 0x6F6 JUMPI PUSH1 0x1 SLOAD PUSH1 0x1 PUSH1 0xA0 SHL SWAP1 DIV PUSH1 0xFF AND ISZERO PUSH2 0x6FA JUMP JUMPDEST ADDRESS EXTCODESIZE ISZERO JUMPDEST PUSH2 0x75D JUMPI PUSH1 0x40 MLOAD PUSH3 0x461BCD PUSH1 0xE5 SHL DUP2 MSTORE PUSH1 0x20 PUSH1 0x4 DUP3 ADD MSTORE PUSH1 0x2E PUSH1 0x24 DUP3 ADD MSTORE PUSH32 0x496E697469616C697A61626C653A20636F6E747261637420697320616C726561 PUSH1 0x44 DUP3 ADD MSTORE PUSH14 0x191E481A5B9A5D1A585B1A5E9959 PUSH1 0x92 SHL PUSH1 0x64 DUP3 ADD MSTORE PUSH1 0x84 ADD PUSH2 0x342 JUMP JUMPDEST PUSH1 0x1 SLOAD PUSH1 0x1 PUSH1 0xA8 SHL SWAP1 DIV PUSH1 0xFF AND ISZERO DUP1 ISZERO PUSH2 0x787 JUMPI PUSH1 0x1 DUP1 SLOAD PUSH2 0xFFFF PUSH1 0xA0 SHL NOT AND PUSH2 0x101 PUSH1 0xA0 SHL OR SWAP1 SSTORE JUMPDEST PUSH1 0x2 DUP1 SLOAD PUSH1 0x1 PUSH1 0x1 PUSH1 0xA0 SHL SUB NOT AND PUSH1 0x1 PUSH1 0x1 PUSH1 0xA0 SHL SUB DUP8 AND OR SWAP1 SSTORE PUSH1 0x3 DUP5 SWAP1 SSTORE PUSH1 0x4 DUP4 SWAP1 SSTORE PUSH1 0x5 DUP3 SWAP1 SSTORE DUP1 ISZERO PUSH2 0x609 JUMPI PUSH1 0x1 DUP1 SLOAD PUSH1 0xFF PUSH1 0xA8 SHL NOT AND SWAP1 SSTORE POP POP POP POP POP JUMP JUMPDEST PUSH2 0x7D3 PUSH2 0x9C3 JUMP JUMPDEST PUSH1 0x4 SSTORE JUMP JUMPDEST PUSH2 0x7E0 PUSH2 0x9C3 JUMP JUMPDEST PUSH1 0x2 DUP1 SLOAD PUSH1 0x1 PUSH1 0x1 PUSH1 0xA0 SHL SUB NOT AND PUSH1 0x1 PUSH1 0x1 PUSH1 0xA0 SHL SUB SWAP3 SWAP1 SWAP3 AND SWAP2 SWAP1 SWAP2 OR SWAP1 SSTORE JUMP JUMPDEST PUSH2 0x80A PUSH2 0x9C3 JUMP JUMPDEST PUSH2 0x814 PUSH1 0x0 PUSH2 0xCC6 JUMP JUMPDEST JUMP JUMPDEST PUSH2 0x81E PUSH2 0x9C3 JUMP JUMPDEST DUP2 MLOAD DUP2 MLOAD DUP2 EQ PUSH2 0x840 JUMPI PUSH1 0x40 MLOAD PUSH3 0x461BCD PUSH1 0xE5 SHL DUP2 MSTORE PUSH1 0x4 ADD PUSH2 0x342 SWAP1 PUSH2 0x121B JUMP JUMPDEST PUSH1 0x0 JUMPDEST DUP2 DUP2 LT ISZERO PUSH2 0x3C8 JUMPI PUSH1 0x0 PUSH1 0x1 PUSH1 0x1 PUSH1 0xA0 SHL SUB AND PUSH1 0x7 PUSH1 0x0 DUP7 DUP5 DUP2 MLOAD DUP2 LT PUSH2 0x86C JUMPI PUSH2 0x86C PUSH2 0x1243 JUMP JUMPDEST PUSH1 0x20 SWAP1 DUP2 MUL SWAP2 SWAP1 SWAP2 ADD DUP2 ADD MLOAD PUSH1 0x1 PUSH1 0x1 PUSH1 0xA0 SHL SUB SWAP1 DUP2 AND DUP4 MSTORE SWAP1 DUP3 ADD SWAP3 SWAP1 SWAP3 MSTORE PUSH1 0x40 ADD PUSH1 0x0 KECCAK256 SLOAD AND EQ ISZERO PUSH2 0x8E2 JUMPI PUSH1 0x40 MLOAD PUSH3 0x461BCD PUSH1 0xE5 SHL DUP2 MSTORE PUSH1 0x20 PUSH1 0x4 DUP3 ADD MSTORE PUSH1 0x1A PUSH1 0x24 DUP3 ADD MSTORE PUSH32 0x4E4654204F776E657220686173206E6F74206265656E20736574000000000000 PUSH1 0x44 DUP3 ADD MSTORE PUSH1 0x64 ADD PUSH2 0x342 JUMP JUMPDEST PUSH2 0x91E DUP5 DUP3 DUP2 MLOAD DUP2 LT PUSH2 0x8F7 JUMPI PUSH2 0x8F7 PUSH2 0x1243 JUMP JUMPDEST PUSH1 0x20 MUL PUSH1 0x20 ADD ADD MLOAD DUP5 DUP4 DUP2 MLOAD DUP2 LT PUSH2 0x911 JUMPI PUSH2 0x911 PUSH2 0x1243 JUMP JUMPDEST PUSH1 0x20 MUL PUSH1 0x20 ADD ADD MLOAD PUSH2 0xA1D JUMP JUMPDEST DUP1 PUSH2 0x928 DUP2 PUSH2 0x126F JUMP JUMPDEST SWAP2 POP POP PUSH2 0x843 JUMP JUMPDEST PUSH2 0x938 PUSH2 0x9C3 JUMP JUMPDEST PUSH1 0x5 SSTORE JUMP JUMPDEST PUSH2 0x945 PUSH2 0x9C3 JUMP JUMPDEST PUSH1 0x3 SSTORE JUMP JUMPDEST PUSH2 0x952 PUSH2 0x9C3 JUMP JUMPDEST PUSH1 0x1 PUSH1 0x1 PUSH1 0xA0 SHL SUB DUP2 AND PUSH2 0x9B7 JUMPI PUSH1 0x40 MLOAD PUSH3 0x461BCD PUSH1 0xE5 SHL DUP2 MSTORE PUSH1 0x20 PUSH1 0x4 DUP3 ADD MSTORE PUSH1 0x26 PUSH1 0x24 DUP3 ADD MSTORE PUSH32 0x4F776E61626C653A206E6577206F776E657220697320746865207A65726F2061 PUSH1 0x44 DUP3 ADD MSTORE PUSH6 0x646472657373 PUSH1 0xD0 SHL PUSH1 0x64 DUP3 ADD MSTORE PUSH1 0x84 ADD PUSH2 0x342 JUMP JUMPDEST PUSH2 0x9C0 DUP2 PUSH2 0xCC6 JUMP JUMPDEST POP JUMP JUMPDEST PUSH1 0x1 SLOAD PUSH1 0x1 PUSH1 0x1 PUSH1 0xA0 SHL SUB AND CALLER EQ PUSH2 0x814 JUMPI PUSH1 0x40 MLOAD PUSH3 0x461BCD PUSH1 0xE5 SHL DUP2 MSTORE PUSH1 0x20 PUSH1 0x4 DUP3 ADD DUP2 SWAP1 MSTORE PUSH1 0x24 DUP3 ADD MSTORE PUSH32 0x4F776E61626C653A2063616C6C6572206973206E6F7420746865206F776E6572 PUSH1 0x44 DUP3 ADD MSTORE PUSH1 0x64 ADD PUSH2 0x342 JUMP JUMPDEST PUSH1 0x1 PUSH1 0x1 PUSH1 0xA0 SHL SUB DUP3 AND PUSH1 0x0 DUP2 DUP2 MSTORE PUSH1 0x6 PUSH1 0x20 SWAP1 DUP2 MSTORE PUSH1 0x40 SWAP2 DUP3 SWAP1 KECCAK256 DUP1 SLOAD PUSH1 0xFF NOT AND DUP6 ISZERO ISZERO SWAP1 DUP2 OR SWAP1 SWAP2 SSTORE DUP3 MLOAD SWAP4 DUP5 MSTORE SWAP1 DUP4 ADD MSTORE PUSH32 0x990ECD0DEF76EFF86D5A91A08DBFB0F33A9C9E1873684A516A93CCF3F70A3256 SWAP2 ADD JUMPDEST PUSH1 0x40 MLOAD DUP1 SWAP2 SUB SWAP1 LOG1 POP POP JUMP JUMPDEST PUSH1 0x1 PUSH1 0x1 PUSH1 0xA0 SHL SUB DUP3 DUP2 AND PUSH1 0x0 DUP2 DUP2 MSTORE PUSH1 0x7 PUSH1 0x20 SWAP1 DUP2 MSTORE PUSH1 0x40 SWAP2 DUP3 SWAP1 KECCAK256 DUP1 SLOAD PUSH1 0x1 PUSH1 0x1 PUSH1 0xA0 SHL SUB NOT AND SWAP5 DUP7 AND SWAP5 DUP6 OR SWAP1 SSTORE DUP2 MLOAD SWAP3 DUP4 MSTORE DUP3 ADD SWAP3 SWAP1 SWAP3 MSTORE PUSH32 0x970C3F5F7F64FBD82C31E769D06A9A152177702A2EF86B0018D6E8EA1C97CF29 SWAP2 ADD PUSH2 0xA75 JUMP JUMPDEST PUSH1 0x40 DUP1 MLOAD PUSH1 0x80 DUP2 ADD DUP3 MSTORE DUP4 DUP2 MSTORE PUSH1 0x20 DUP2 ADD DUP4 SWAP1 MSTORE CALLER DUP2 DUP4 ADD DUP2 SWAP1 MSTORE PUSH1 0x8 SLOAD PUSH1 0x60 DUP4 ADD DUP2 SWAP1 MSTORE PUSH1 0x2 SLOAD SWAP4 MLOAD PUSH4 0x28512065 PUSH1 0xE2 SHL DUP2 MSTORE PUSH1 0x4 DUP2 ADD SWAP3 SWAP1 SWAP3 MSTORE PUSH1 0x24 DUP3 ADD MSTORE SWAP1 SWAP2 PUSH1 0x0 SWAP2 PUSH1 0x1 PUSH1 0x1 PUSH1 0xA0 SHL SUB SWAP1 SWAP2 AND SWAP1 PUSH4 0xA1448194 SWAP1 PUSH1 0x44 ADD PUSH1 0x20 PUSH1 0x40 MLOAD DUP1 DUP4 SUB DUP2 PUSH1 0x0 DUP8 DUP1 EXTCODESIZE ISZERO DUP1 ISZERO PUSH2 0xB5A JUMPI PUSH1 0x0 DUP1 REVERT JUMPDEST POP GAS CALL ISZERO DUP1 ISZERO PUSH2 0xB6E JUMPI RETURNDATASIZE PUSH1 0x0 DUP1 RETURNDATACOPY RETURNDATASIZE PUSH1 0x0 REVERT JUMPDEST POP POP POP POP PUSH1 0x40 MLOAD RETURNDATASIZE PUSH1 0x1F NOT PUSH1 0x1F DUP3 ADD AND DUP3 ADD DUP1 PUSH1 0x40 MSTORE POP DUP2 ADD SWAP1 PUSH2 0xB92 SWAP2 SWAP1 PUSH2 0x12E3 JUMP JUMPDEST SWAP1 POP DUP1 PUSH2 0xBD6 JUMPI PUSH1 0x40 MLOAD PUSH3 0x461BCD PUSH1 0xE5 SHL DUP2 MSTORE PUSH1 0x20 PUSH1 0x4 DUP3 ADD MSTORE PUSH1 0x12 PUSH1 0x24 DUP3 ADD MSTORE PUSH18 0x11985A5B1959081D1BC81B5A5B9D08139195 PUSH1 0x72 SHL PUSH1 0x44 DUP3 ADD MSTORE PUSH1 0x64 ADD PUSH2 0x342 JUMP JUMPDEST PUSH1 0x8 SLOAD PUSH1 0x0 SWAP1 DUP2 MSTORE PUSH1 0x9 PUSH1 0x20 SWAP1 DUP2 MSTORE PUSH1 0x40 SWAP1 SWAP2 KECCAK256 DUP4 MLOAD DUP1 MLOAD DUP6 SWAP4 PUSH2 0xBFE SWAP3 DUP5 SWAP3 SWAP2 ADD SWAP1 PUSH2 0xD18 JUMP JUMPDEST POP PUSH1 0x20 DUP3 DUP2 ADD MLOAD DUP1 MLOAD PUSH2 0xC17 SWAP3 PUSH1 0x1 DUP6 ADD SWAP3 ADD SWAP1 PUSH2 0xD7D JUMP JUMPDEST POP PUSH1 0x40 DUP3 DUP2 ADD MLOAD PUSH1 0x2 DUP4 ADD DUP1 SLOAD PUSH1 0x1 PUSH1 0x1 PUSH1 0xA0 SHL SUB NOT AND PUSH1 0x1 PUSH1 0x1 PUSH1 0xA0 SHL SUB SWAP1 SWAP3 AND SWAP2 SWAP1 SWAP2 OR SWAP1 SSTORE PUSH1 0x60 SWAP1 SWAP3 ADD MLOAD PUSH1 0x3 SWAP1 SWAP2 ADD SSTORE CALLER PUSH1 0x0 DUP2 DUP2 MSTORE PUSH1 0xA PUSH1 0x20 SWAP1 DUP2 MSTORE DUP4 DUP3 KECCAK256 PUSH1 0x8 DUP1 SLOAD DUP3 SLOAD PUSH1 0x1 DUP2 ADD DUP5 SSTORE SWAP3 DUP6 MSTORE SWAP3 SWAP1 SWAP4 KECCAK256 ADD SSTORE SLOAD SWAP2 MLOAD PUSH32 0x206BA06C561797DA5D0262FC18D44D194C8CC1988E613C7C96F3DF8F8F330A37 SWAP3 PUSH2 0xCA3 SWAP3 DUP9 SWAP3 DUP9 SWAP3 SWAP1 PUSH2 0x1300 JUMP JUMPDEST PUSH1 0x40 MLOAD DUP1 SWAP2 SUB SWAP1 LOG1 PUSH1 0x8 DUP1 SLOAD SWAP1 PUSH1 0x0 PUSH2 0xCBB DUP4 PUSH2 0x126F JUMP JUMPDEST SWAP2 SWAP1 POP SSTORE POP POP POP POP POP JUMP JUMPDEST PUSH1 0x1 DUP1 SLOAD PUSH1 0x1 PUSH1 0x1 PUSH1 0xA0 SHL SUB DUP4 DUP2 AND PUSH1 0x1 PUSH1 0x1 PUSH1 0xA0 SHL SUB NOT DUP4 AND DUP2 OR SWAP1 SWAP4 SSTORE PUSH1 0x40 MLOAD SWAP2 AND SWAP2 SWAP1 DUP3 SWAP1 PUSH32 0x8BE0079C531659141344CD1FD0A4F28419497F9722A3DAAFE3B4186F6B6457E0 SWAP1 PUSH1 0x0 SWAP1 LOG3 POP POP JUMP JUMPDEST DUP3 DUP1 SLOAD DUP3 DUP3 SSTORE SWAP1 PUSH1 0x0 MSTORE PUSH1 0x20 PUSH1 0x0 KECCAK256 SWAP1 DUP2 ADD SWAP3 DUP3 ISZERO PUSH2 0xD6D JUMPI SWAP2 PUSH1 0x20 MUL DUP3 ADD JUMPDEST DUP3 DUP2 GT ISZERO PUSH2 0xD6D JUMPI DUP3 MLOAD DUP3 SLOAD PUSH1 0x1 PUSH1 0x1 PUSH1 0xA0 SHL SUB NOT AND PUSH1 0x1 PUSH1 0x1 PUSH1 0xA0 SHL SUB SWAP1 SWAP2 AND OR DUP3 SSTORE PUSH1 0x20 SWAP1 SWAP3 ADD SWAP2 PUSH1 0x1 SWAP1 SWAP2 ADD SWAP1 PUSH2 0xD38 JUMP JUMPDEST POP PUSH2 0xD79 SWAP3 SWAP2 POP PUSH2 0xDB8 JUMP JUMPDEST POP SWAP1 JUMP JUMPDEST DUP3 DUP1 SLOAD DUP3 DUP3 SSTORE SWAP1 PUSH1 0x0 MSTORE PUSH1 0x20 PUSH1 0x0 KECCAK256 SWAP1 DUP2 ADD SWAP3 DUP3 ISZERO PUSH2 0xD6D JUMPI SWAP2 PUSH1 0x20 MUL DUP3 ADD JUMPDEST DUP3 DUP2 GT ISZERO PUSH2 0xD6D JUMPI DUP3 MLOAD DUP3 SSTORE SWAP2 PUSH1 0x20 ADD SWAP2 SWAP1 PUSH1 0x1 ADD SWAP1 PUSH2 0xD9D JUMP JUMPDEST JUMPDEST DUP1 DUP3 GT ISZERO PUSH2 0xD79 JUMPI PUSH1 0x0 DUP2 SSTORE PUSH1 0x1 ADD PUSH2 0xDB9 JUMP JUMPDEST PUSH4 0x4E487B71 PUSH1 0xE0 SHL PUSH1 0x0 MSTORE PUSH1 0x41 PUSH1 0x4 MSTORE PUSH1 0x24 PUSH1 0x0 REVERT JUMPDEST PUSH1 0x40 MLOAD PUSH1 0x1F DUP3 ADD PUSH1 0x1F NOT AND DUP2 ADD PUSH8 0xFFFFFFFFFFFFFFFF DUP2 GT DUP3 DUP3 LT OR ISZERO PUSH2 0xE0C JUMPI PUSH2 0xE0C PUSH2 0xDCD JUMP JUMPDEST PUSH1 0x40 MSTORE SWAP2 SWAP1 POP JUMP JUMPDEST PUSH1 0x0 PUSH8 0xFFFFFFFFFFFFFFFF DUP3 GT ISZERO PUSH2 0xE2E JUMPI PUSH2 0xE2E PUSH2 0xDCD JUMP JUMPDEST POP PUSH1 0x5 SHL PUSH1 0x20 ADD SWAP1 JUMP JUMPDEST DUP1 CALLDATALOAD PUSH1 0x1 PUSH1 0x1 PUSH1 0xA0 SHL SUB DUP2 AND DUP2 EQ PUSH2 0xE4F JUMPI PUSH1 0x0 DUP1 REVERT JUMPDEST SWAP2 SWAP1 POP JUMP JUMPDEST PUSH1 0x0 DUP3 PUSH1 0x1F DUP4 ADD SLT PUSH2 0xE65 JUMPI PUSH1 0x0 DUP1 REVERT JUMPDEST DUP2 CALLDATALOAD PUSH1 0x20 PUSH2 0xE7A PUSH2 0xE75 DUP4 PUSH2 0xE14 JUMP JUMPDEST PUSH2 0xDE3 JUMP JUMPDEST DUP3 DUP2 MSTORE PUSH1 0x5 SWAP3 SWAP1 SWAP3 SHL DUP5 ADD DUP2 ADD SWAP2 DUP2 DUP2 ADD SWAP1 DUP7 DUP5 GT ISZERO PUSH2 0xE99 JUMPI PUSH1 0x0 DUP1 REVERT JUMPDEST DUP3 DUP7 ADD JUMPDEST DUP5 DUP2 LT ISZERO PUSH2 0xEBB JUMPI PUSH2 0xEAE DUP2 PUSH2 0xE38 JUMP JUMPDEST DUP4 MSTORE SWAP2 DUP4 ADD SWAP2 DUP4 ADD PUSH2 0xE9D JUMP JUMPDEST POP SWAP7 SWAP6 POP POP POP POP POP POP JUMP JUMPDEST PUSH1 0x0 DUP1 PUSH1 0x40 DUP4 DUP6 SUB SLT ISZERO PUSH2 0xED9 JUMPI PUSH1 0x0 DUP1 REVERT JUMPDEST DUP3 CALLDATALOAD PUSH8 0xFFFFFFFFFFFFFFFF DUP1 DUP3 GT ISZERO PUSH2 0xEF1 JUMPI PUSH1 0x0 DUP1 REVERT JUMPDEST PUSH2 0xEFD DUP7 DUP4 DUP8 ADD PUSH2 0xE54 JUMP JUMPDEST SWAP4 POP PUSH1 0x20 DUP6 ADD CALLDATALOAD SWAP2 POP DUP1 DUP3 GT ISZERO PUSH2 0xF13 JUMPI PUSH1 0x0 DUP1 REVERT JUMPDEST POP PUSH2 0xF20 DUP6 DUP3 DUP7 ADD PUSH2 0xE54 JUMP JUMPDEST SWAP2 POP POP SWAP3 POP SWAP3 SWAP1 POP JUMP JUMPDEST PUSH1 0x0 DUP3 PUSH1 0x1F DUP4 ADD SLT PUSH2 0xF3B JUMPI PUSH1 0x0 DUP1 REVERT JUMPDEST DUP2 CALLDATALOAD PUSH1 0x20 PUSH2 0xF4B PUSH2 0xE75 DUP4 PUSH2 0xE14 JUMP JUMPDEST DUP3 DUP2 MSTORE PUSH1 0x5 SWAP3 DUP4 SHL DUP6 ADD DUP3 ADD SWAP3 DUP3 DUP3 ADD SWAP2 SWAP1 DUP8 DUP6 GT ISZERO PUSH2 0xF6A JUMPI PUSH1 0x0 DUP1 REVERT JUMPDEST DUP4 DUP8 ADD JUMPDEST DUP6 DUP2 LT ISZERO PUSH2 0xFFE JUMPI DUP1 CALLDATALOAD PUSH8 0xFFFFFFFFFFFFFFFF DUP2 GT ISZERO PUSH2 0xF8E JUMPI PUSH1 0x0 DUP1 DUP2 REVERT JUMPDEST DUP9 ADD PUSH1 0x3F DUP2 ADD DUP11 SGT PUSH2 0xFA0 JUMPI PUSH1 0x0 DUP1 DUP2 REVERT JUMPDEST DUP6 DUP2 ADD CALLDATALOAD PUSH1 0x40 PUSH2 0xFB2 PUSH2 0xE75 DUP4 PUSH2 0xE14 JUMP JUMPDEST DUP3 DUP2 MSTORE SWAP2 DUP6 SHL DUP4 ADD DUP2 ADD SWAP2 DUP9 DUP2 ADD SWAP1 DUP14 DUP5 GT ISZERO PUSH2 0xFCF JUMPI PUSH1 0x0 DUP1 DUP2 REVERT JUMPDEST SWAP4 DUP3 ADD SWAP4 JUMPDEST DUP4 DUP6 LT ISZERO PUSH2 0xFED JUMPI DUP5 CALLDATALOAD DUP3 MSTORE SWAP4 DUP10 ADD SWAP4 SWAP1 DUP10 ADD SWAP1 PUSH2 0xFD4 JUMP JUMPDEST DUP9 MSTORE POP POP POP SWAP4 DUP6 ADD SWAP4 POP DUP5 ADD PUSH2 0xF6E JUMP JUMPDEST POP SWAP1 SWAP8 SWAP7 POP POP POP POP POP POP POP JUMP JUMPDEST PUSH1 0x0 DUP1 PUSH1 0x40 DUP4 DUP6 SUB SLT ISZERO PUSH2 0x101E JUMPI PUSH1 0x0 DUP1 REVERT JUMPDEST DUP3 CALLDATALOAD PUSH8 0xFFFFFFFFFFFFFFFF DUP1 DUP3 GT ISZERO PUSH2 0x1036 JUMPI PUSH1 0x0 DUP1 REVERT JUMPDEST DUP2 DUP6 ADD SWAP2 POP DUP6 PUSH1 0x1F DUP4 ADD SLT PUSH2 0x104A JUMPI PUSH1 0x0 DUP1 REVERT JUMPDEST DUP2 CALLDATALOAD PUSH1 0x20 PUSH2 0x105A PUSH2 0xE75 DUP4 PUSH2 0xE14 JUMP JUMPDEST DUP3 DUP2 MSTORE PUSH1 0x5 SWAP3 SWAP1 SWAP3 SHL DUP5 ADD DUP2 ADD SWAP2 DUP2 DUP2 ADD SWAP1 DUP10 DUP5 GT ISZERO PUSH2 0x1079 JUMPI PUSH1 0x0 DUP1 REVERT JUMPDEST DUP3 DUP7 ADD JUMPDEST DUP5 DUP2 LT ISZERO PUSH2 0x10B1 JUMPI DUP1 CALLDATALOAD DUP7 DUP2 GT ISZERO PUSH2 0x1095 JUMPI PUSH1 0x0 DUP1 DUP2 REVERT JUMPDEST PUSH2 0x10A3 DUP13 DUP7 DUP4 DUP12 ADD ADD PUSH2 0xE54 JUMP JUMPDEST DUP5 MSTORE POP SWAP2 DUP4 ADD SWAP2 DUP4 ADD PUSH2 0x107D JUMP JUMPDEST POP SWAP7 POP POP DUP7 ADD CALLDATALOAD SWAP3 POP POP DUP1 DUP3 GT ISZERO PUSH2 0x10C8 JUMPI PUSH1 0x0 DUP1 REVERT JUMPDEST POP PUSH2 0xF20 DUP6 DUP3 DUP7 ADD PUSH2 0xF2A JUMP JUMPDEST PUSH1 0x0 DUP1 PUSH1 0x0 DUP1 PUSH1 0x80 DUP6 DUP8 SUB SLT ISZERO PUSH2 0x10EB JUMPI PUSH1 0x0 DUP1 REVERT JUMPDEST PUSH2 0x10F4 DUP6 PUSH2 0xE38 JUMP JUMPDEST SWAP7 PUSH1 0x20 DUP7 ADD CALLDATALOAD SWAP7 POP PUSH1 0x40 DUP7 ADD CALLDATALOAD SWAP6 PUSH1 0x60 ADD CALLDATALOAD SWAP5 POP SWAP3 POP POP POP JUMP JUMPDEST PUSH1 0x0 PUSH1 0x20 DUP3 DUP5 SUB SLT ISZERO PUSH2 0x1120 JUMPI PUSH1 0x0 DUP1 REVERT JUMPDEST POP CALLDATALOAD SWAP2 SWAP1 POP JUMP JUMPDEST PUSH1 0x0 PUSH1 0x20 DUP3 DUP5 SUB SLT ISZERO PUSH2 0x1139 JUMPI PUSH1 0x0 DUP1 REVERT JUMPDEST PUSH2 0x1142 DUP3 PUSH2 0xE38 JUMP JUMPDEST SWAP4 SWAP3 POP POP POP JUMP JUMPDEST DUP1 ISZERO ISZERO DUP2 EQ PUSH2 0x9C0 JUMPI PUSH1 0x0 DUP1 REVERT JUMPDEST PUSH1 0x0 DUP1 PUSH1 0x40 DUP4 DUP6 SUB SLT ISZERO PUSH2 0x116A JUMPI PUSH1 0x0 DUP1 REVERT JUMPDEST DUP3 CALLDATALOAD PUSH8 0xFFFFFFFFFFFFFFFF DUP1 DUP3 GT ISZERO PUSH2 0x1182 JUMPI PUSH1 0x0 DUP1 REVERT JUMPDEST PUSH2 0x118E DUP7 DUP4 DUP8 ADD PUSH2 0xE54 JUMP JUMPDEST SWAP4 POP PUSH1 0x20 SWAP2 POP DUP2 DUP6 ADD CALLDATALOAD DUP2 DUP2 GT ISZERO PUSH2 0x11A5 JUMPI PUSH1 0x0 DUP1 REVERT JUMPDEST DUP6 ADD SWAP1 POP PUSH1 0x1F DUP2 ADD DUP7 SGT PUSH2 0x11B8 JUMPI PUSH1 0x0 DUP1 REVERT JUMPDEST DUP1 CALLDATALOAD PUSH2 0x11C6 PUSH2 0xE75 DUP3 PUSH2 0xE14 JUMP JUMPDEST DUP2 DUP2 MSTORE PUSH1 0x5 SWAP2 SWAP1 SWAP2 SHL DUP3 ADD DUP4 ADD SWAP1 DUP4 DUP2 ADD SWAP1 DUP9 DUP4 GT ISZERO PUSH2 0x11E5 JUMPI PUSH1 0x0 DUP1 REVERT JUMPDEST SWAP3 DUP5 ADD SWAP3 JUMPDEST DUP3 DUP5 LT ISZERO PUSH2 0x120C JUMPI DUP4 CALLDATALOAD PUSH2 0x11FD DUP2 PUSH2 0x1149 JUMP JUMPDEST DUP3 MSTORE SWAP3 DUP5 ADD SWAP3 SWAP1 DUP5 ADD SWAP1 PUSH2 0x11EA JUMP JUMPDEST DUP1 SWAP6 POP POP POP POP POP POP SWAP3 POP SWAP3 SWAP1 POP JUMP JUMPDEST PUSH1 0x20 DUP1 DUP3 MSTORE PUSH1 0xE SWAP1 DUP3 ADD MSTORE PUSH14 0x92DCECC2D8D2C840D8CADCCEE8D PUSH1 0x93 SHL PUSH1 0x40 DUP3 ADD MSTORE PUSH1 0x60 ADD SWAP1 JUMP JUMPDEST PUSH4 0x4E487B71 PUSH1 0xE0 SHL PUSH1 0x0 MSTORE PUSH1 0x32 PUSH1 0x4 MSTORE PUSH1 0x24 PUSH1 0x0 REVERT JUMPDEST PUSH4 0x4E487B71 PUSH1 0xE0 SHL PUSH1 0x0 MSTORE PUSH1 0x11 PUSH1 0x4 MSTORE PUSH1 0x24 PUSH1 0x0 REVERT JUMPDEST PUSH1 0x0 PUSH1 0x0 NOT DUP3 EQ ISZERO PUSH2 0x1283 JUMPI PUSH2 0x1283 PUSH2 0x1259 JUMP JUMPDEST POP PUSH1 0x1 ADD SWAP1 JUMP JUMPDEST PUSH1 0x0 DUP3 NOT DUP3 GT ISZERO PUSH2 0x129D JUMPI PUSH2 0x129D PUSH2 0x1259 JUMP JUMPDEST POP ADD SWAP1 JUMP JUMPDEST PUSH1 0x0 DUP2 PUSH1 0x0 NOT DIV DUP4 GT DUP3 ISZERO ISZERO AND ISZERO PUSH2 0x12BC JUMPI PUSH2 0x12BC PUSH2 0x1259 JUMP JUMPDEST POP MUL SWAP1 JUMP JUMPDEST PUSH1 0x0 DUP3 PUSH2 0x12DE JUMPI PUSH4 0x4E487B71 PUSH1 0xE0 SHL PUSH1 0x0 MSTORE PUSH1 0x12 PUSH1 0x4 MSTORE PUSH1 0x24 PUSH1 0x0 REVERT JUMPDEST POP DIV SWAP1 JUMP JUMPDEST PUSH1 0x0 PUSH1 0x20 DUP3 DUP5 SUB SLT ISZERO PUSH2 0x12F5 JUMPI PUSH1 0x0 DUP1 REVERT JUMPDEST DUP2 MLOAD PUSH2 0x1142 DUP2 PUSH2 0x1149 JUMP JUMPDEST PUSH1 0x80 DUP1 DUP3 MSTORE DUP6 MLOAD SWAP1 DUP3 ADD DUP2 SWAP1 MSTORE PUSH1 0x0 SWAP1 PUSH1 0x20 SWAP1 PUSH1 0xA0 DUP5 ADD SWAP1 DUP3 DUP10 ADD DUP5 JUMPDEST DUP3 DUP2 LT ISZERO PUSH2 0x1342 JUMPI DUP2 MLOAD PUSH1 0x1 PUSH1 0x1 PUSH1 0xA0 SHL SUB AND DUP5 MSTORE SWAP3 DUP5 ADD SWAP3 SWAP1 DUP5 ADD SWAP1 PUSH1 0x1 ADD PUSH2 0x131D JUMP JUMPDEST POP POP POP DUP4 DUP2 SUB DUP3 DUP6 ADD MSTORE DUP7 MLOAD DUP1 DUP3 MSTORE DUP8 DUP4 ADD SWAP2 DUP4 ADD SWAP1 PUSH1 0x0 JUMPDEST DUP2 DUP2 LT ISZERO PUSH2 0x1377 JUMPI DUP4 MLOAD DUP4 MSTORE SWAP3 DUP5 ADD SWAP3 SWAP2 DUP5 ADD SWAP2 PUSH1 0x1 ADD PUSH2 0x135B JUMP JUMPDEST POP POP PUSH1 0x1 PUSH1 0x1 PUSH1 0xA0 SHL SUB DUP8 AND PUSH1 0x40 DUP7 ADD MSTORE SWAP3 POP PUSH2 0x1392 SWAP2 POP POP JUMP JUMPDEST DUP3 PUSH1 0x60 DUP4 ADD MSTORE SWAP6 SWAP5 POP POP POP POP POP JUMP INVALID LOG2 PUSH5 0x6970667358 0x22 SLT KECCAK256 DIFFICULTY PUSH11 0x9B3853595D2E4476776345 OR LOG1 RETURNDATASIZE 0x2A DUP3 0x27 SWAP15 0xEB EXTCODEHASH 0xEE DUP10 REVERT REVERT PUSH21 0x68B5AF0B0764736F6C634300080900330000000000 "},"methodIdentifiers":{"buyShirt(address[][],uint256[][])":"44ed1fa4","changeNFTWhitelistStatus(address[],bool[])":"7719bc7b","eachShirtFee()":"9e7c11a5","estimateCost(address[][],uint256[][])":"4a59c50d","initialize(address,uint256,uint256,uint256)":"4ec81af1","owner()":"8da5cb5b","percentRoyaltyFee()":"89bd3beb","renounceOwnership()":"715018a6","setEachShirtFee(uint256)":"59f7963d","setNFTAddress(address)":"69d03738","setNFTOwner(address[],address[])":"1cc88bcd","setPercentRoyaltyFee(uint256)":"ccf99a6e","setShippingFee(uint256)":"d3ac1e4a","shippingFee()":"4abaf07e","shirtNFTAddress()":"5d6297c2","transferOwnership(address)":"f2fde38b","whitelistNFT(address[],address[])":"136a743c"}},"storageLayout":{"storage":[{"astId":440,"contract":"contracts/Store.sol:Store","label":"_status","offset":0,"slot":"0","type":"t_uint256"},{"astId":324,"contract":"contracts/Store.sol:Store","label":"_owner","offset":0,"slot":"1","type":"t_address"},{"astId":6,"contract":"contracts/Store.sol:Store","label":"_initialized","offset":20,"slot":"1","type":"t_bool"},{"astId":9,"contract":"contracts/Store.sol:Store","label":"_initializing","offset":21,"slot":"1","type":"t_bool"},{"astId":1960,"contract":"contracts/Store.sol:Store","label":"shirtNFTAddress","offset":0,"slot":"2","type":"t_address"},{"astId":1962,"contract":"contracts/Store.sol:Store","label":"shippingFee","offset":0,"slot":"3","type":"t_uint256"},{"astId":1964,"contract":"contracts/Store.sol:Store","label":"eachShirtFee","offset":0,"slot":"4","type":"t_uint256"},{"astId":1966,"contract":"contracts/Store.sol:Store","label":"percentRoyaltyFee","offset":0,"slot":"5","type":"t_uint256"},{"astId":1973,"contract":"contracts/Store.sol:Store","label":"isWhitelistNFT","offset":0,"slot":"6","type":"t_mapping(t_address,t_bool)"},{"astId":1977,"contract":"contracts/Store.sol:Store","label":"ownerOfNFT","offset":0,"slot":"7","type":"t_mapping(t_address,t_address)"},{"astId":1990,"contract":"contracts/Store.sol:Store","label":"_shirtTokenId","offset":0,"slot":"8","type":"t_uint256"},{"astId":1995,"contract":"contracts/Store.sol:Store","label":"indexToShirt","offset":0,"slot":"9","type":"t_mapping(t_uint256,t_struct(Shirt)1988_storage)"},{"astId":2000,"contract":"contracts/Store.sol:Store","label":"buyerToShirtIndexs","offset":0,"slot":"10","type":"t_mapping(t_address,t_array(t_uint256)dyn_storage)"},{"astId":2004,"contract":"contracts/Store.sol:Store","label":"balances","offset":0,"slot":"11","type":"t_mapping(t_address,t_uint256)"}],"types":{"t_address":{"encoding":"inplace","label":"address","numberOfBytes":"20"},"t_array(t_address)dyn_storage":{"base":"t_address","encoding":"dynamic_array","label":"address[]","numberOfBytes":"32"},"t_array(t_uint256)dyn_storage":{"base":"t_uint256","encoding":"dynamic_array","label":"uint256[]","numberOfBytes":"32"},"t_bool":{"encoding":"inplace","label":"bool","numberOfBytes":"1"},"t_mapping(t_address,t_address)":{"encoding":"mapping","key":"t_address","label":"mapping(address => address)","numberOfBytes":"32","value":"t_address"},"t_mapping(t_address,t_array(t_uint256)dyn_storage)":{"encoding":"mapping","key":"t_address","label":"mapping(address => uint256[])","numberOfBytes":"32","value":"t_array(t_uint256)dyn_storage"},"t_mapping(t_address,t_bool)":{"encoding":"mapping","key":"t_address","label":"mapping(address => bool)","numberOfBytes":"32","value":"t_bool"},"t_mapping(t_address,t_uint256)":{"encoding":"mapping","key":"t_address","label":"mapping(address => uint256)","numberOfBytes":"32","value":"t_uint256"},"t_mapping(t_uint256,t_struct(Shirt)1988_storage)":{"encoding":"mapping","key":"t_uint256","label":"mapping(uint256 => struct Store.Shirt)","numberOfBytes":"32","value":"t_struct(Shirt)1988_storage"},"t_struct(Shirt)1988_storage":{"encoding":"inplace","label":"struct Store.Shirt","members":[{"astId":1980,"contract":"contracts/Store.sol:Store","label":"originalNFTs","offset":0,"slot":"0","type":"t_array(t_address)dyn_storage"},{"astId":1983,"contract":"contracts/Store.sol:Store","label":"originalTokenIds","offset":0,"slot":"1","type":"t_array(t_uint256)dyn_storage"},{"astId":1985,"contract":"contracts/Store.sol:Store","label":"buyer","offset":0,"slot":"2","type":"t_address"},{"astId":1987,"contract":"contracts/Store.sol:Store","label":"shirtTokenId","offset":0,"slot":"3","type":"t_uint256"}],"numberOfBytes":"128"},"t_uint256":{"encoding":"inplace","label":"uint256","numberOfBytes":"32"}}},"userdoc":{"kind":"user","methods":{},"version":1}}}}