{"contracts/Store.sol":{"Store":{"abi":[{"anonymous":false,"inputs":[{"indexed":false,"internalType":"uint256","name":"oldFee","type":"uint256"},{"indexed":false,"internalType":"uint256","name":"newFee","type":"uint256"}],"name":"EachShirtFeeChanged","type":"event"},{"anonymous":false,"inputs":[{"indexed":false,"internalType":"address","name":"nftAddress","type":"address"},{"indexed":false,"internalType":"address","name":"newOwner","type":"address"},{"indexed":false,"internalType":"address","name":"oldOwner","type":"address"}],"name":"NFTOwnerChanged","type":"event"},{"anonymous":false,"inputs":[{"indexed":false,"internalType":"address","name":"nftAddress","type":"address"},{"indexed":false,"internalType":"bool","name":"status","type":"bool"}],"name":"NFTWhitelistStatusChanged","type":"event"},{"anonymous":false,"inputs":[{"indexed":true,"internalType":"address","name":"previousOwner","type":"address"},{"indexed":true,"internalType":"address","name":"newOwner","type":"address"}],"name":"OwnershipTransferred","type":"event"},{"anonymous":false,"inputs":[{"indexed":false,"internalType":"uint256","name":"oldFee","type":"uint256"},{"indexed":false,"internalType":"uint256","name":"newFee","type":"uint256"}],"name":"RoyaltyFeeChanged","type":"event"},{"anonymous":false,"inputs":[{"indexed":false,"internalType":"uint256","name":"oldFee","type":"uint256"},{"indexed":false,"internalType":"uint256","name":"newFee","type":"uint256"}],"name":"ShippingFeeChanged","type":"event"},{"anonymous":false,"inputs":[{"indexed":false,"internalType":"address[]","name":"nftAddresses","type":"address[]"},{"indexed":false,"internalType":"uint256[]","name":"tokenIds","type":"uint256[]"},{"indexed":false,"internalType":"address","name":"buyer","type":"address"},{"indexed":false,"internalType":"uint256","name":"shirtTokenId","type":"uint256"}],"name":"ShirtCreated","type":"event"},{"anonymous":false,"inputs":[{"indexed":false,"internalType":"address","name":"oldAddress","type":"address"},{"indexed":false,"internalType":"address","name":"newAddress","type":"address"}],"name":"ShirtNFTAddressChanged","type":"event"},{"inputs":[{"internalType":"address","name":"_account","type":"address"}],"name":"balanceOf","outputs":[{"internalType":"uint256","name":"","type":"uint256"}],"stateMutability":"view","type":"function"},{"inputs":[{"internalType":"address[][]","name":"_nftAddresses","type":"address[][]"},{"internalType":"uint256[][]","name":"_tokenIds","type":"uint256[][]"}],"name":"buyShirt","outputs":[],"stateMutability":"payable","type":"function"},{"inputs":[{"internalType":"address[]","name":"_nftAddresses","type":"address[]"},{"internalType":"bool[]","name":"_status","type":"bool[]"}],"name":"changeNFTWhitelistStatus","outputs":[],"stateMutability":"nonpayable","type":"function"},{"inputs":[],"name":"eachShirtFee","outputs":[{"internalType":"uint256","name":"","type":"uint256"}],"stateMutability":"view","type":"function"},{"inputs":[{"internalType":"address[][]","name":"_nftAddresses","type":"address[][]"},{"internalType":"uint256[][]","name":"_tokenIds","type":"uint256[][]"}],"name":"estimateCost","outputs":[{"internalType":"uint256","name":"cost","type":"uint256"}],"stateMutability":"view","type":"function"},{"inputs":[{"internalType":"address","name":"_nftAddress","type":"address"}],"name":"getNFTStatus","outputs":[{"internalType":"address","name":"owner","type":"address"},{"internalType":"bool","name":"status","type":"bool"}],"stateMutability":"view","type":"function"},{"inputs":[{"internalType":"address","name":"_nft","type":"address"},{"internalType":"uint256","name":"_shippingFee","type":"uint256"},{"internalType":"uint256","name":"_eachShirtFee","type":"uint256"},{"internalType":"uint256","name":"_percentRoyaltyFee","type":"uint256"}],"name":"initialize","outputs":[],"stateMutability":"nonpayable","type":"function"},{"inputs":[],"name":"owner","outputs":[{"internalType":"address","name":"","type":"address"}],"stateMutability":"view","type":"function"},{"inputs":[],"name":"percentRoyaltyFee","outputs":[{"internalType":"uint256","name":"","type":"uint256"}],"stateMutability":"view","type":"function"},{"inputs":[],"name":"renounceOwnership","outputs":[],"stateMutability":"nonpayable","type":"function"},{"inputs":[{"internalType":"uint256","name":"_eachShirtFee","type":"uint256"}],"name":"setEachShirtFee","outputs":[],"stateMutability":"nonpayable","type":"function"},{"inputs":[{"internalType":"address","name":"_shirtNFTAddress","type":"address"}],"name":"setNFTAddress","outputs":[],"stateMutability":"nonpayable","type":"function"},{"inputs":[{"internalType":"address[]","name":"_nftAddresses","type":"address[]"},{"internalType":"address[]","name":"_nftOwners","type":"address[]"}],"name":"setNFTOwner","outputs":[],"stateMutability":"nonpayable","type":"function"},{"inputs":[{"internalType":"uint256","name":"_percentRoyaltyFee","type":"uint256"}],"name":"setPercentRoyaltyFee","outputs":[],"stateMutability":"nonpayable","type":"function"},{"inputs":[{"internalType":"uint256","name":"_shippingFee","type":"uint256"}],"name":"setShippingFee","outputs":[],"stateMutability":"nonpayable","type":"function"},{"inputs":[],"name":"shippingFee","outputs":[{"internalType":"uint256","name":"","type":"uint256"}],"stateMutability":"view","type":"function"},{"inputs":[],"name":"shirtNFTAddress","outputs":[{"internalType":"address","name":"","type":"address"}],"stateMutability":"view","type":"function"},{"inputs":[{"internalType":"address","name":"newOwner","type":"address"}],"name":"transferOwnership","outputs":[],"stateMutability":"nonpayable","type":"function"},{"inputs":[{"internalType":"address[]","name":"_nftAddresses","type":"address[]"},{"internalType":"address[]","name":"_nftOwners","type":"address[]"}],"name":"whitelistNFT","outputs":[],"stateMutability":"nonpayable","type":"function"},{"inputs":[],"name":"withDraw","outputs":[],"stateMutability":"nonpayable","type":"function"},{"inputs":[],"name":"withDrawShirtFee","outputs":[],"stateMutability":"nonpayable","type":"function"}],"devdoc":{"author":"ndtr2000","details":"This is smart contract for Shirt minting Store","kind":"dev","methods":{"balanceOf(address)":{"details":"Returns the amount in Wei owned by `_account` in this contract"},"buyShirt(address[][],uint256[][])":{"details":"function to buy shirt and mint shirts NFT","params":{"_nftAddresses":"2 dimentions array of used NFT each row is list of NFT address used in 1 shirt","_tokenIds":"corresponding tokenId of each NFT  Emits {ShirtCreated} events indicating someone bought shirts and  mint ShirtNFTs Requirements: - msg.value must be equal to the cost that calculated by {estimateCost} function   - `_nftAddresses`'s length must be equal to `_tokenIds`'s length   "}},"changeNFTWhitelistStatus(address[],bool[])":{"details":"function to change NFTs' whitelist status","params":{"_nftAddresses":"array of NFTs' address","_status":"array of corresponding NFTs' status  Emits {NFTWhitelistStatusChanged} events indicating the changed NFT whitelist status Requirements: - the caller must be the owner of this contract - owner of NFT in _nftAddresses must be set - `_nftAddresses`'s length must be equal to `_status`'s length"}},"estimateCost(address[][],uint256[][])":{"details":"Function to estimate the cost for buying shirts","params":{"_nftAddresses":"2 dimentions array of used NFT each row is list of NFT address used in 1 shirt","_tokenIds":"corressponding tokenId of NFT"},"returns":{"cost":"the cost for buy shirts in Wei Requirements: - `_nftAddresses`'s length must be equal to `_tokenIds`'s length"}},"getNFTStatus(address)":{"details":"Function to get the status of `_nftAddress` in this contract","returns":{"owner":"owner of `_nftAddress`","status":"whitelist status of `_nftAddress`"}},"initialize(address,uint256,uint256,uint256)":{"details":"Initialize function must call right after contract is deployed","params":{"_eachShirtFee":"price of each shirt in Wei","_nft":"address of ShirtNFT contract","_percentRoyaltyFee":"Royalty fee for using each NFT of a creator in percentage (10000 = 100%)","_shippingFee":"fee for shipping shirt to customer in Wei"}},"owner()":{"details":"Returns the address of the current owner."},"renounceOwnership()":{"details":"Leaves the contract without owner. It will not be possible to call `onlyOwner` functions anymore. Can only be called by the current owner. NOTE: Renouncing ownership will leave the contract without an owner, thereby removing any functionality that is only available to the owner."},"setEachShirtFee(uint256)":{"details":"Function to set price of each shirt","params":{"_eachShirtFee":"new shirt price in Wei Emits a {ShippingFeeChanged} event indicating the changed shirt price  Requirements: - the caller must be the owner of this contract"}},"setNFTAddress(address)":{"details":"function to change address of Shirt NFT contract","params":{"_shirtNFTAddress":"address of new NFT contract Emits and {ShirtNFTAddressChanged} event indicating the changed address of Shirt NFT Requirements:  - the caller must be the owner of this contract"}},"setNFTOwner(address[],address[])":{"details":"function to change NFTs' whitelist status","params":{"_nftAddresses":"array of NFTs' address","_nftOwners":"array of corresponding NFTs' owner  Emits {NFTOwnerChanged} events indicating the changed NFT owner status Requirements: - the caller must be the owner of this contract - `_nftAddresses`'s length must be equal to `_nftOwners`'s length"}},"setPercentRoyaltyFee(uint256)":{"details":"Function to set percentage of royalty fee of each NFT","params":{"_percentRoyaltyFee":"new royalty fee percentage (10000 = 100%) Emits a {ShippingFeeChanged} event indicating the changed royalty fee  Requirements: - the caller must be the owner of this contract"}},"setShippingFee(uint256)":{"details":"Function to set fee for shipping for each shirt","params":{"_shippingFee":"new shipping fee in Wei Emits a {ShippingFeeChanged} event indicating the changed shipping fee  Requirements: - the caller must be the owner of this contract"}},"transferOwnership(address)":{"details":"Transfers ownership of the contract to a new account (`newOwner`). Can only be called by the current owner."},"whitelistNFT(address[],address[])":{"details":"function to whitelist NFTs that set their whitelist status to true","params":{"_nftAddresses":"array of NFTs' address want to whitelist","_nftOwners":"array of owners of corresponding NFT  Emits {NFTWhitelistStatusChanged} & {NFTOwnerChanged} events indicating the changed NFT whitelist status & NFT owner Requirements: - the caller must be the owner of this contract - `_nftAddresses`'s length must be equal to `_nftOwners`'s length"}},"withDraw()":{"details":"Function to withdraw balance from this smart contract"},"withDrawShirtFee()":{"details":"Function to withdraw shirt fee balance fromthis smart contract  Requirements:  - the caller must be the owner of this contract"}},"title":"Store","version":1},"evm":{"bytecode":{"linkReferences":{},"object":"608060405234801561001057600080fd5b50611a52806100206000396000f3fe60806040526004361061012a5760003560e01c806369d03738116100ab5780638da5cb5b1161006f5780638da5cb5b146103105780639554f8f01461032e5780639e7c11a514610399578063ccf99a6e146103af578063d3ac1e4a146103cf578063f2fde38b146103ef57600080fd5b806369d037381461026f57806370a082311461028f578063715018a6146102c55780637719bc7b146102da57806389bd3beb146102fa57600080fd5b80634abaf07e116100f25780634abaf07e146101cc5780634ec81af1146101e257806350b9b3e31461020257806359f7963d146102175780635d6297c21461023757600080fd5b80630fdb1c101461012f578063136a743c146101465780631cc88bcd1461016657806344ed1fa4146101865780634a59c50d14610199575b600080fd5b34801561013b57600080fd5b5061014461040f565b005b34801561015257600080fd5b5061014461016136600461148a565b6104ef565b34801561017257600080fd5b5061014461018136600461148a565b6105be565b6101446101943660046115cf565b61063c565b3480156101a557600080fd5b506101b96101b43660046115cf565b610954565b6040519081526020015b60405180910390f35b3480156101d857600080fd5b506101b960985481565b3480156101ee57600080fd5b506101446101fd366004611699565b610a16565b34801561020e57600080fd5b50610144610b0d565b34801561022357600080fd5b506101446102323660046116d2565b610b83565b34801561024357600080fd5b50609754610257906001600160a01b031681565b6040516001600160a01b0390911681526020016101c3565b34801561027b57600080fd5b5061014461028a3660046116eb565b610bf3565b34801561029b57600080fd5b506101b96102aa3660046116eb565b6001600160a01b0316600090815260a0602052604090205490565b3480156102d157600080fd5b50610144610c77565b3480156102e657600080fd5b506101446102f536600461171b565b610cad565b34801561030657600080fd5b506101b9609a5481565b34801561031c57600080fd5b506033546001600160a01b0316610257565b34801561033a57600080fd5b5061037a6103493660046116eb565b6001600160a01b039081166000908152609c6020908152604080832054609b9092529091205491169160ff90911690565b604080516001600160a01b0390931683529015156020830152016101c3565b3480156103a557600080fd5b506101b960995481565b3480156103bb57600080fd5b506101446103ca3660046116d2565b610de9565b3480156103db57600080fd5b506101446103ea3660046116d2565b610e18565b3480156103fb57600080fd5b5061014461040a3660046116eb565b610e80565b6002606554141561043b5760405162461bcd60e51b8152600401610432906117df565b60405180910390fd5b600260655533600081815260a06020526040808220805490839055905190929083905b60006040518083038185875af1925050503d806000811461049b576040519150601f19603f3d011682016040523d82523d6000602084013e6104a0565b606091505b50509050806104e65760405162461bcd60e51b81526020600482015260126024820152714661696c656420746f20776974686472617760701b6044820152606401610432565b50506001606555565b6033546001600160a01b031633146105195760405162461bcd60e51b815260040161043290611816565b81518151811461053b5760405162461bcd60e51b81526004016104329061184b565b60005b818110156105b85761056a84828151811061055b5761055b611873565b60200260200101516001610f1b565b6105a684828151811061057f5761057f611873565b602002602001015184838151811061059957610599611873565b6020026020010151610f77565b806105b08161189f565b91505061053e565b50505050565b6033546001600160a01b031633146105e85760405162461bcd60e51b815260040161043290611816565b81518151811461060a5760405162461bcd60e51b81526004016104329061184b565b60005b818110156105b85761062a84828151811061057f5761057f611873565b806106348161189f565b91505061060d565b6002606554141561065f5760405162461bcd60e51b8152600401610432906117df565b60026065558151815181146106865760405162461bcd60e51b81526004016104329061184b565b60006106928484610954565b90508034146106d15760405162461bcd60e51b815260206004820152600b60248201526a57726f6e672076616c756560a81b6044820152606401610432565b6000612710609a546099546106e691906118ba565b6106f091906118d9565b905060005b8381101561090957600086828151811061071157610711611873565b602002602001015151905085828151811061072e5761072e611873565b60200260200101515181146107555760405162461bcd60e51b81526004016104329061184b565b60005b818110156108b957609b600089858151811061077657610776611873565b6020026020010151838151811061078f5761078f611873565b6020908102919091018101516001600160a01b031682528101919091526040016000205460ff166108025760405162461bcd60e51b815260206004820152601c60248201527f4e465420686173206e6f74206265656e2077686974656c6973746564000000006044820152606401610432565b8360a06000609c60008c888151811061081d5761081d611873565b6020026020010151868151811061083657610836611873565b60200260200101516001600160a01b03166001600160a01b0316815260200190815260200160002060009054906101000a90046001600160a01b03166001600160a01b03166001600160a01b0316815260200190815260200160002060008282546108a191906118fb565b909155508190506108b18161189f565b915050610758565b506108f68783815181106108cf576108cf611873565b60200260200101518784815181106108e9576108e9611873565b6020026020010151610fed565b50806109018161189f565b9150506106f5565b5060985460995461091a90856118ba565b61092491906118fb565b30600090815260a06020526040812080549091906109439084906118fb565b909155505060016065555050505050565b8151815160009190811461097a5760405162461bcd60e51b81526004016104329061184b565b6000805b828110156109c05785818151811061099857610998611873565b602002602001015151826109ac91906118fb565b9150806109b88161189f565b91505061097e565b50609854612710609a54609954856109d891906118ba565b6109e291906118ba565b6109ec91906118d9565b6099546109f990856118ba565b610a0391906118fb565b610a0d91906118fb565b95945050505050565b600054610100900460ff16610a315760005460ff1615610a35565b303b155b610a985760405162461bcd60e51b815260206004820152602e60248201527f496e697469616c697a61626c653a20636f6e747261637420697320616c72656160448201526d191e481a5b9a5d1a585b1a5e995960921b6064820152608401610432565b600054610100900460ff16158015610aba576000805461ffff19166101011790555b610ac26111ce565b610aca6111fd565b609780546001600160a01b0319166001600160a01b03871617905560988490556099839055609a8290558015610b06576000805461ff00191690555b5050505050565b6033546001600160a01b03163314610b375760405162461bcd60e51b815260040161043290611816565b60026065541415610b5a5760405162461bcd60e51b8152600401610432906117df565b600260655530600090815260a0602052604080822080549083905590519091903390839061045e565b6033546001600160a01b03163314610bad5760405162461bcd60e51b815260040161043290611816565b609980549082905560408051828152602081018490527f85a2a890c70c5a5ee952f19486e44acdedfc71232102da235ff85a67b865007391015b60405180910390a15050565b6033546001600160a01b03163314610c1d5760405162461bcd60e51b815260040161043290611816565b609780546001600160a01b038381166001600160a01b031983168117909355604080519190921680825260208201939093527f0edc78a89177a1c94eb3540a6f8106c6aff7069b6bea3a6e99fd989d4a0c135d9101610be7565b6033546001600160a01b03163314610ca15760405162461bcd60e51b815260040161043290611816565b610cab600061122c565b565b6033546001600160a01b03163314610cd75760405162461bcd60e51b815260040161043290611816565b815181518114610cf95760405162461bcd60e51b81526004016104329061184b565b60005b818110156105b85760006001600160a01b0316609c6000868481518110610d2557610d25611873565b6020908102919091018101516001600160a01b0390811683529082019290925260400160002054161415610d9b5760405162461bcd60e51b815260206004820152601a60248201527f4e4654204f776e657220686173206e6f74206265656e207365740000000000006044820152606401610432565b610dd7848281518110610db057610db0611873565b6020026020010151848381518110610dca57610dca611873565b6020026020010151610f1b565b80610de18161189f565b915050610cfc565b6033546001600160a01b03163314610e135760405162461bcd60e51b815260040161043290611816565b609a55565b6033546001600160a01b03163314610e425760405162461bcd60e51b815260040161043290611816565b609880549082905560408051828152602081018490527fe61a8739eeed1662f3a9d19613d2e49116ef49912f1a0b6c9d8170e5307b93d09101610be7565b6033546001600160a01b03163314610eaa5760405162461bcd60e51b815260040161043290611816565b6001600160a01b038116610f0f5760405162461bcd60e51b815260206004820152602660248201527f4f776e61626c653a206e6577206f776e657220697320746865207a65726f206160448201526564647265737360d01b6064820152608401610432565b610f188161122c565b50565b6001600160a01b0382166000818152609b6020908152604091829020805460ff19168515159081179091558251938452908301527f990ecd0def76eff86d5a91a08dbfb0f33a9c9e1873684a516a93ccf3f70a32569101610be7565b6001600160a01b038281166000818152609c602090815260409182902080548686166001600160a01b0319821681179092558351948552918401529092169181018290527ff2a473776e0255419f7dedde904f0545f4b6f1e072cb64487d4ea3f5576dc01d9060600160405180910390a1505050565b604080516080810182528381526020810183905233818301819052609d54606083018190526097549351632851206560e21b81526004810192909252602482015290916000916001600160a01b039091169063a144819490604401602060405180830381600087803b15801561106257600080fd5b505af1158015611076573d6000803e3d6000fd5b505050506040513d601f19601f8201168201806040525081019061109a9190611913565b9050806110de5760405162461bcd60e51b815260206004820152601260248201527111985a5b1959081d1bc81b5a5b9d0813919560721b6044820152606401610432565b609d546000908152609e602090815260409091208351805185936111069284929101906112dc565b50602082810151805161111f9260018501920190611341565b506040828101516002830180546001600160a01b0319166001600160a01b03909216919091179055606090920151600390910155336000818152609f6020908152838220609d805482546001810184559285529290932001555491517f206ba06c561797da5d0262fc18d44d194c8cc1988e613c7c96f3df8f8f330a37926111ab928892889290611930565b60405180910390a1609d80549060006111c38361189f565b919050555050505050565b600054610100900460ff166111f55760405162461bcd60e51b8152600401610432906119d1565b610cab61127e565b600054610100900460ff166112245760405162461bcd60e51b8152600401610432906119d1565b610cab6112ae565b603380546001600160a01b038381166001600160a01b0319831681179093556040519116919082907f8be0079c531659141344cd1fd0a4f28419497f9722a3daafe3b4186f6b6457e090600090a35050565b600054610100900460ff166112a55760405162461bcd60e51b8152600401610432906119d1565b610cab3361122c565b600054610100900460ff166112d55760405162461bcd60e51b8152600401610432906119d1565b6001606555565b828054828255906000526020600020908101928215611331579160200282015b8281111561133157825182546001600160a01b0319166001600160a01b039091161782556020909201916001909101906112fc565b5061133d92915061137c565b5090565b828054828255906000526020600020908101928215611331579160200282015b82811115611331578251825591602001919060010190611361565b5b8082111561133d576000815560010161137d565b634e487b7160e01b600052604160045260246000fd5b604051601f8201601f1916810167ffffffffffffffff811182821017156113d0576113d0611391565b604052919050565b600067ffffffffffffffff8211156113f2576113f2611391565b5060051b60200190565b80356001600160a01b038116811461141357600080fd5b919050565b600082601f83011261142957600080fd5b8135602061143e611439836113d8565b6113a7565b82815260059290921b8401810191818101908684111561145d57600080fd5b8286015b8481101561147f57611472816113fc565b8352918301918301611461565b509695505050505050565b6000806040838503121561149d57600080fd5b823567ffffffffffffffff808211156114b557600080fd5b6114c186838701611418565b935060208501359150808211156114d757600080fd5b506114e485828601611418565b9150509250929050565b600082601f8301126114ff57600080fd5b8135602061150f611439836113d8565b828152600592831b850182019282820191908785111561152e57600080fd5b8387015b858110156115c257803567ffffffffffffffff8111156115525760008081fd5b8801603f81018a136115645760008081fd5b858101356040611576611439836113d8565b82815291851b8301810191888101908d8411156115935760008081fd5b938201935b838510156115b157843582529389019390890190611598565b885250505093850193508401611532565b5090979650505050505050565b600080604083850312156115e257600080fd5b823567ffffffffffffffff808211156115fa57600080fd5b818501915085601f83011261160e57600080fd5b8135602061161e611439836113d8565b82815260059290921b8401810191818101908984111561163d57600080fd5b8286015b84811015611675578035868111156116595760008081fd5b6116678c86838b0101611418565b845250918301918301611641565b509650508601359250508082111561168c57600080fd5b506114e4858286016114ee565b600080600080608085870312156116af57600080fd5b6116b8856113fc565b966020860135965060408601359560600135945092505050565b6000602082840312156116e457600080fd5b5035919050565b6000602082840312156116fd57600080fd5b611706826113fc565b9392505050565b8015158114610f1857600080fd5b6000806040838503121561172e57600080fd5b823567ffffffffffffffff8082111561174657600080fd5b61175286838701611418565b935060209150818501358181111561176957600080fd5b85019050601f8101861361177c57600080fd5b803561178a611439826113d8565b81815260059190911b820183019083810190888311156117a957600080fd5b928401925b828410156117d05783356117c18161170d565b825292840192908401906117ae565b80955050505050509250929050565b6020808252601f908201527f5265656e7472616e637947756172643a207265656e7472616e742063616c6c00604082015260600190565b6020808252818101527f4f776e61626c653a2063616c6c6572206973206e6f7420746865206f776e6572604082015260600190565b6020808252600e908201526d092dcecc2d8d2c840d8cadccee8d60931b604082015260600190565b634e487b7160e01b600052603260045260246000fd5b634e487b7160e01b600052601160045260246000fd5b60006000198214156118b3576118b3611889565b5060010190565b60008160001904831182151516156118d4576118d4611889565b500290565b6000826118f657634e487b7160e01b600052601260045260246000fd5b500490565b6000821982111561190e5761190e611889565b500190565b60006020828403121561192557600080fd5b81516117068161170d565b6080808252855190820181905260009060209060a0840190828901845b828110156119725781516001600160a01b03168452928401929084019060010161194d565b5050508381038285015286518082528783019183019060005b818110156119a75783518352928401929184019160010161198b565b50506001600160a01b038716604086015292506119c2915050565b82606083015295945050505050565b6020808252602b908201527f496e697469616c697a61626c653a20636f6e7472616374206973206e6f74206960408201526a6e697469616c697a696e6760a81b60608201526080019056fea26469706673582212205842380b9de1c1f3459728c54ca42b223d08ef0bc4a0e31f33fb24cc1817385564736f6c63430008090033","opcodes":"PUSH1 0x80 PUSH1 0x40 MSTORE CALLVALUE DUP1 ISZERO PUSH2 0x10 JUMPI PUSH1 0x0 DUP1 REVERT JUMPDEST POP PUSH2 0x1A52 DUP1 PUSH2 0x20 PUSH1 0x0 CODECOPY PUSH1 0x0 RETURN INVALID PUSH1 0x80 PUSH1 0x40 MSTORE PUSH1 0x4 CALLDATASIZE LT PUSH2 0x12A JUMPI PUSH1 0x0 CALLDATALOAD PUSH1 0xE0 SHR DUP1 PUSH4 0x69D03738 GT PUSH2 0xAB JUMPI DUP1 PUSH4 0x8DA5CB5B GT PUSH2 0x6F JUMPI DUP1 PUSH4 0x8DA5CB5B EQ PUSH2 0x310 JUMPI DUP1 PUSH4 0x9554F8F0 EQ PUSH2 0x32E JUMPI DUP1 PUSH4 0x9E7C11A5 EQ PUSH2 0x399 JUMPI DUP1 PUSH4 0xCCF99A6E EQ PUSH2 0x3AF JUMPI DUP1 PUSH4 0xD3AC1E4A EQ PUSH2 0x3CF JUMPI DUP1 PUSH4 0xF2FDE38B EQ PUSH2 0x3EF JUMPI PUSH1 0x0 DUP1 REVERT JUMPDEST DUP1 PUSH4 0x69D03738 EQ PUSH2 0x26F JUMPI DUP1 PUSH4 0x70A08231 EQ PUSH2 0x28F JUMPI DUP1 PUSH4 0x715018A6 EQ PUSH2 0x2C5 JUMPI DUP1 PUSH4 0x7719BC7B EQ PUSH2 0x2DA JUMPI DUP1 PUSH4 0x89BD3BEB EQ PUSH2 0x2FA JUMPI PUSH1 0x0 DUP1 REVERT JUMPDEST DUP1 PUSH4 0x4ABAF07E GT PUSH2 0xF2 JUMPI DUP1 PUSH4 0x4ABAF07E EQ PUSH2 0x1CC JUMPI DUP1 PUSH4 0x4EC81AF1 EQ PUSH2 0x1E2 JUMPI DUP1 PUSH4 0x50B9B3E3 EQ PUSH2 0x202 JUMPI DUP1 PUSH4 0x59F7963D EQ PUSH2 0x217 JUMPI DUP1 PUSH4 0x5D6297C2 EQ PUSH2 0x237 JUMPI PUSH1 0x0 DUP1 REVERT JUMPDEST DUP1 PUSH4 0xFDB1C10 EQ PUSH2 0x12F JUMPI DUP1 PUSH4 0x136A743C EQ PUSH2 0x146 JUMPI DUP1 PUSH4 0x1CC88BCD EQ PUSH2 0x166 JUMPI DUP1 PUSH4 0x44ED1FA4 EQ PUSH2 0x186 JUMPI DUP1 PUSH4 0x4A59C50D EQ PUSH2 0x199 JUMPI JUMPDEST PUSH1 0x0 DUP1 REVERT JUMPDEST CALLVALUE DUP1 ISZERO PUSH2 0x13B JUMPI PUSH1 0x0 DUP1 REVERT JUMPDEST POP PUSH2 0x144 PUSH2 0x40F JUMP JUMPDEST STOP JUMPDEST CALLVALUE DUP1 ISZERO PUSH2 0x152 JUMPI PUSH1 0x0 DUP1 REVERT JUMPDEST POP PUSH2 0x144 PUSH2 0x161 CALLDATASIZE PUSH1 0x4 PUSH2 0x148A JUMP JUMPDEST PUSH2 0x4EF JUMP JUMPDEST CALLVALUE DUP1 ISZERO PUSH2 0x172 JUMPI PUSH1 0x0 DUP1 REVERT JUMPDEST POP PUSH2 0x144 PUSH2 0x181 CALLDATASIZE PUSH1 0x4 PUSH2 0x148A JUMP JUMPDEST PUSH2 0x5BE JUMP JUMPDEST PUSH2 0x144 PUSH2 0x194 CALLDATASIZE PUSH1 0x4 PUSH2 0x15CF JUMP JUMPDEST PUSH2 0x63C JUMP JUMPDEST CALLVALUE DUP1 ISZERO PUSH2 0x1A5 JUMPI PUSH1 0x0 DUP1 REVERT JUMPDEST POP PUSH2 0x1B9 PUSH2 0x1B4 CALLDATASIZE PUSH1 0x4 PUSH2 0x15CF JUMP JUMPDEST PUSH2 0x954 JUMP JUMPDEST PUSH1 0x40 MLOAD SWAP1 DUP2 MSTORE PUSH1 0x20 ADD JUMPDEST PUSH1 0x40 MLOAD DUP1 SWAP2 SUB SWAP1 RETURN JUMPDEST CALLVALUE DUP1 ISZERO PUSH2 0x1D8 JUMPI PUSH1 0x0 DUP1 REVERT JUMPDEST POP PUSH2 0x1B9 PUSH1 0x98 SLOAD DUP2 JUMP JUMPDEST CALLVALUE DUP1 ISZERO PUSH2 0x1EE JUMPI PUSH1 0x0 DUP1 REVERT JUMPDEST POP PUSH2 0x144 PUSH2 0x1FD CALLDATASIZE PUSH1 0x4 PUSH2 0x1699 JUMP JUMPDEST PUSH2 0xA16 JUMP JUMPDEST CALLVALUE DUP1 ISZERO PUSH2 0x20E JUMPI PUSH1 0x0 DUP1 REVERT JUMPDEST POP PUSH2 0x144 PUSH2 0xB0D JUMP JUMPDEST CALLVALUE DUP1 ISZERO PUSH2 0x223 JUMPI PUSH1 0x0 DUP1 REVERT JUMPDEST POP PUSH2 0x144 PUSH2 0x232 CALLDATASIZE PUSH1 0x4 PUSH2 0x16D2 JUMP JUMPDEST PUSH2 0xB83 JUMP JUMPDEST CALLVALUE DUP1 ISZERO PUSH2 0x243 JUMPI PUSH1 0x0 DUP1 REVERT JUMPDEST POP PUSH1 0x97 SLOAD PUSH2 0x257 SWAP1 PUSH1 0x1 PUSH1 0x1 PUSH1 0xA0 SHL SUB AND DUP2 JUMP JUMPDEST PUSH1 0x40 MLOAD PUSH1 0x1 PUSH1 0x1 PUSH1 0xA0 SHL SUB SWAP1 SWAP2 AND DUP2 MSTORE PUSH1 0x20 ADD PUSH2 0x1C3 JUMP JUMPDEST CALLVALUE DUP1 ISZERO PUSH2 0x27B JUMPI PUSH1 0x0 DUP1 REVERT JUMPDEST POP PUSH2 0x144 PUSH2 0x28A CALLDATASIZE PUSH1 0x4 PUSH2 0x16EB JUMP JUMPDEST PUSH2 0xBF3 JUMP JUMPDEST CALLVALUE DUP1 ISZERO PUSH2 0x29B JUMPI PUSH1 0x0 DUP1 REVERT JUMPDEST POP PUSH2 0x1B9 PUSH2 0x2AA CALLDATASIZE PUSH1 0x4 PUSH2 0x16EB JUMP JUMPDEST PUSH1 0x1 PUSH1 0x1 PUSH1 0xA0 SHL SUB AND PUSH1 0x0 SWAP1 DUP2 MSTORE PUSH1 0xA0 PUSH1 0x20 MSTORE PUSH1 0x40 SWAP1 KECCAK256 SLOAD SWAP1 JUMP JUMPDEST CALLVALUE DUP1 ISZERO PUSH2 0x2D1 JUMPI PUSH1 0x0 DUP1 REVERT JUMPDEST POP PUSH2 0x144 PUSH2 0xC77 JUMP JUMPDEST CALLVALUE DUP1 ISZERO PUSH2 0x2E6 JUMPI PUSH1 0x0 DUP1 REVERT JUMPDEST POP PUSH2 0x144 PUSH2 0x2F5 CALLDATASIZE PUSH1 0x4 PUSH2 0x171B JUMP JUMPDEST PUSH2 0xCAD JUMP JUMPDEST CALLVALUE DUP1 ISZERO PUSH2 0x306 JUMPI PUSH1 0x0 DUP1 REVERT JUMPDEST POP PUSH2 0x1B9 PUSH1 0x9A SLOAD DUP2 JUMP JUMPDEST CALLVALUE DUP1 ISZERO PUSH2 0x31C JUMPI PUSH1 0x0 DUP1 REVERT JUMPDEST POP PUSH1 0x33 SLOAD PUSH1 0x1 PUSH1 0x1 PUSH1 0xA0 SHL SUB AND PUSH2 0x257 JUMP JUMPDEST CALLVALUE DUP1 ISZERO PUSH2 0x33A JUMPI PUSH1 0x0 DUP1 REVERT JUMPDEST POP PUSH2 0x37A PUSH2 0x349 CALLDATASIZE PUSH1 0x4 PUSH2 0x16EB JUMP JUMPDEST PUSH1 0x1 PUSH1 0x1 PUSH1 0xA0 SHL SUB SWAP1 DUP2 AND PUSH1 0x0 SWAP1 DUP2 MSTORE PUSH1 0x9C PUSH1 0x20 SWAP1 DUP2 MSTORE PUSH1 0x40 DUP1 DUP4 KECCAK256 SLOAD PUSH1 0x9B SWAP1 SWAP3 MSTORE SWAP1 SWAP2 KECCAK256 SLOAD SWAP2 AND SWAP2 PUSH1 0xFF SWAP1 SWAP2 AND SWAP1 JUMP JUMPDEST PUSH1 0x40 DUP1 MLOAD PUSH1 0x1 PUSH1 0x1 PUSH1 0xA0 SHL SUB SWAP1 SWAP4 AND DUP4 MSTORE SWAP1 ISZERO ISZERO PUSH1 0x20 DUP4 ADD MSTORE ADD PUSH2 0x1C3 JUMP JUMPDEST CALLVALUE DUP1 ISZERO PUSH2 0x3A5 JUMPI PUSH1 0x0 DUP1 REVERT JUMPDEST POP PUSH2 0x1B9 PUSH1 0x99 SLOAD DUP2 JUMP JUMPDEST CALLVALUE DUP1 ISZERO PUSH2 0x3BB JUMPI PUSH1 0x0 DUP1 REVERT JUMPDEST POP PUSH2 0x144 PUSH2 0x3CA CALLDATASIZE PUSH1 0x4 PUSH2 0x16D2 JUMP JUMPDEST PUSH2 0xDE9 JUMP JUMPDEST CALLVALUE DUP1 ISZERO PUSH2 0x3DB JUMPI PUSH1 0x0 DUP1 REVERT JUMPDEST POP PUSH2 0x144 PUSH2 0x3EA CALLDATASIZE PUSH1 0x4 PUSH2 0x16D2 JUMP JUMPDEST PUSH2 0xE18 JUMP JUMPDEST CALLVALUE DUP1 ISZERO PUSH2 0x3FB JUMPI PUSH1 0x0 DUP1 REVERT JUMPDEST POP PUSH2 0x144 PUSH2 0x40A CALLDATASIZE PUSH1 0x4 PUSH2 0x16EB JUMP JUMPDEST PUSH2 0xE80 JUMP JUMPDEST PUSH1 0x2 PUSH1 0x65 SLOAD EQ ISZERO PUSH2 0x43B JUMPI PUSH1 0x40 MLOAD PUSH3 0x461BCD PUSH1 0xE5 SHL DUP2 MSTORE PUSH1 0x4 ADD PUSH2 0x432 SWAP1 PUSH2 0x17DF JUMP JUMPDEST PUSH1 0x40 MLOAD DUP1 SWAP2 SUB SWAP1 REVERT JUMPDEST PUSH1 0x2 PUSH1 0x65 SSTORE CALLER PUSH1 0x0 DUP2 DUP2 MSTORE PUSH1 0xA0 PUSH1 0x20 MSTORE PUSH1 0x40 DUP1 DUP3 KECCAK256 DUP1 SLOAD SWAP1 DUP4 SWAP1 SSTORE SWAP1 MLOAD SWAP1 SWAP3 SWAP1 DUP4 SWAP1 JUMPDEST PUSH1 0x0 PUSH1 0x40 MLOAD DUP1 DUP4 SUB DUP2 DUP6 DUP8 GAS CALL SWAP3 POP POP POP RETURNDATASIZE DUP1 PUSH1 0x0 DUP2 EQ PUSH2 0x49B JUMPI PUSH1 0x40 MLOAD SWAP2 POP PUSH1 0x1F NOT PUSH1 0x3F RETURNDATASIZE ADD AND DUP3 ADD PUSH1 0x40 MSTORE RETURNDATASIZE DUP3 MSTORE RETURNDATASIZE PUSH1 0x0 PUSH1 0x20 DUP5 ADD RETURNDATACOPY PUSH2 0x4A0 JUMP JUMPDEST PUSH1 0x60 SWAP2 POP JUMPDEST POP POP SWAP1 POP DUP1 PUSH2 0x4E6 JUMPI PUSH1 0x40 MLOAD PUSH3 0x461BCD PUSH1 0xE5 SHL DUP2 MSTORE PUSH1 0x20 PUSH1 0x4 DUP3 ADD MSTORE PUSH1 0x12 PUSH1 0x24 DUP3 ADD MSTORE PUSH18 0x4661696C656420746F207769746864726177 PUSH1 0x70 SHL PUSH1 0x44 DUP3 ADD MSTORE PUSH1 0x64 ADD PUSH2 0x432 JUMP JUMPDEST POP POP PUSH1 0x1 PUSH1 0x65 SSTORE JUMP JUMPDEST PUSH1 0x33 SLOAD PUSH1 0x1 PUSH1 0x1 PUSH1 0xA0 SHL SUB AND CALLER EQ PUSH2 0x519 JUMPI PUSH1 0x40 MLOAD PUSH3 0x461BCD PUSH1 0xE5 SHL DUP2 MSTORE PUSH1 0x4 ADD PUSH2 0x432 SWAP1 PUSH2 0x1816 JUMP JUMPDEST DUP2 MLOAD DUP2 MLOAD DUP2 EQ PUSH2 0x53B JUMPI PUSH1 0x40 MLOAD PUSH3 0x461BCD PUSH1 0xE5 SHL DUP2 MSTORE PUSH1 0x4 ADD PUSH2 0x432 SWAP1 PUSH2 0x184B JUMP JUMPDEST PUSH1 0x0 JUMPDEST DUP2 DUP2 LT ISZERO PUSH2 0x5B8 JUMPI PUSH2 0x56A DUP5 DUP3 DUP2 MLOAD DUP2 LT PUSH2 0x55B JUMPI PUSH2 0x55B PUSH2 0x1873 JUMP JUMPDEST PUSH1 0x20 MUL PUSH1 0x20 ADD ADD MLOAD PUSH1 0x1 PUSH2 0xF1B JUMP JUMPDEST PUSH2 0x5A6 DUP5 DUP3 DUP2 MLOAD DUP2 LT PUSH2 0x57F JUMPI PUSH2 0x57F PUSH2 0x1873 JUMP JUMPDEST PUSH1 0x20 MUL PUSH1 0x20 ADD ADD MLOAD DUP5 DUP4 DUP2 MLOAD DUP2 LT PUSH2 0x599 JUMPI PUSH2 0x599 PUSH2 0x1873 JUMP JUMPDEST PUSH1 0x20 MUL PUSH1 0x20 ADD ADD MLOAD PUSH2 0xF77 JUMP JUMPDEST DUP1 PUSH2 0x5B0 DUP2 PUSH2 0x189F JUMP JUMPDEST SWAP2 POP POP PUSH2 0x53E JUMP JUMPDEST POP POP POP POP JUMP JUMPDEST PUSH1 0x33 SLOAD PUSH1 0x1 PUSH1 0x1 PUSH1 0xA0 SHL SUB AND CALLER EQ PUSH2 0x5E8 JUMPI PUSH1 0x40 MLOAD PUSH3 0x461BCD PUSH1 0xE5 SHL DUP2 MSTORE PUSH1 0x4 ADD PUSH2 0x432 SWAP1 PUSH2 0x1816 JUMP JUMPDEST DUP2 MLOAD DUP2 MLOAD DUP2 EQ PUSH2 0x60A JUMPI PUSH1 0x40 MLOAD PUSH3 0x461BCD PUSH1 0xE5 SHL DUP2 MSTORE PUSH1 0x4 ADD PUSH2 0x432 SWAP1 PUSH2 0x184B JUMP JUMPDEST PUSH1 0x0 JUMPDEST DUP2 DUP2 LT ISZERO PUSH2 0x5B8 JUMPI PUSH2 0x62A DUP5 DUP3 DUP2 MLOAD DUP2 LT PUSH2 0x57F JUMPI PUSH2 0x57F PUSH2 0x1873 JUMP JUMPDEST DUP1 PUSH2 0x634 DUP2 PUSH2 0x189F JUMP JUMPDEST SWAP2 POP POP PUSH2 0x60D JUMP JUMPDEST PUSH1 0x2 PUSH1 0x65 SLOAD EQ ISZERO PUSH2 0x65F JUMPI PUSH1 0x40 MLOAD PUSH3 0x461BCD PUSH1 0xE5 SHL DUP2 MSTORE PUSH1 0x4 ADD PUSH2 0x432 SWAP1 PUSH2 0x17DF JUMP JUMPDEST PUSH1 0x2 PUSH1 0x65 SSTORE DUP2 MLOAD DUP2 MLOAD DUP2 EQ PUSH2 0x686 JUMPI PUSH1 0x40 MLOAD PUSH3 0x461BCD PUSH1 0xE5 SHL DUP2 MSTORE PUSH1 0x4 ADD PUSH2 0x432 SWAP1 PUSH2 0x184B JUMP JUMPDEST PUSH1 0x0 PUSH2 0x692 DUP5 DUP5 PUSH2 0x954 JUMP JUMPDEST SWAP1 POP DUP1 CALLVALUE EQ PUSH2 0x6D1 JUMPI PUSH1 0x40 MLOAD PUSH3 0x461BCD PUSH1 0xE5 SHL DUP2 MSTORE PUSH1 0x20 PUSH1 0x4 DUP3 ADD MSTORE PUSH1 0xB PUSH1 0x24 DUP3 ADD MSTORE PUSH11 0x57726F6E672076616C7565 PUSH1 0xA8 SHL PUSH1 0x44 DUP3 ADD MSTORE PUSH1 0x64 ADD PUSH2 0x432 JUMP JUMPDEST PUSH1 0x0 PUSH2 0x2710 PUSH1 0x9A SLOAD PUSH1 0x99 SLOAD PUSH2 0x6E6 SWAP2 SWAP1 PUSH2 0x18BA JUMP JUMPDEST PUSH2 0x6F0 SWAP2 SWAP1 PUSH2 0x18D9 JUMP JUMPDEST SWAP1 POP PUSH1 0x0 JUMPDEST DUP4 DUP2 LT ISZERO PUSH2 0x909 JUMPI PUSH1 0x0 DUP7 DUP3 DUP2 MLOAD DUP2 LT PUSH2 0x711 JUMPI PUSH2 0x711 PUSH2 0x1873 JUMP JUMPDEST PUSH1 0x20 MUL PUSH1 0x20 ADD ADD MLOAD MLOAD SWAP1 POP DUP6 DUP3 DUP2 MLOAD DUP2 LT PUSH2 0x72E JUMPI PUSH2 0x72E PUSH2 0x1873 JUMP JUMPDEST PUSH1 0x20 MUL PUSH1 0x20 ADD ADD MLOAD MLOAD DUP2 EQ PUSH2 0x755 JUMPI PUSH1 0x40 MLOAD PUSH3 0x461BCD PUSH1 0xE5 SHL DUP2 MSTORE PUSH1 0x4 ADD PUSH2 0x432 SWAP1 PUSH2 0x184B JUMP JUMPDEST PUSH1 0x0 JUMPDEST DUP2 DUP2 LT ISZERO PUSH2 0x8B9 JUMPI PUSH1 0x9B PUSH1 0x0 DUP10 DUP6 DUP2 MLOAD DUP2 LT PUSH2 0x776 JUMPI PUSH2 0x776 PUSH2 0x1873 JUMP JUMPDEST PUSH1 0x20 MUL PUSH1 0x20 ADD ADD MLOAD DUP4 DUP2 MLOAD DUP2 LT PUSH2 0x78F JUMPI PUSH2 0x78F PUSH2 0x1873 JUMP JUMPDEST PUSH1 0x20 SWAP1 DUP2 MUL SWAP2 SWAP1 SWAP2 ADD DUP2 ADD MLOAD PUSH1 0x1 PUSH1 0x1 PUSH1 0xA0 SHL SUB AND DUP3 MSTORE DUP2 ADD SWAP2 SWAP1 SWAP2 MSTORE PUSH1 0x40 ADD PUSH1 0x0 KECCAK256 SLOAD PUSH1 0xFF AND PUSH2 0x802 JUMPI PUSH1 0x40 MLOAD PUSH3 0x461BCD PUSH1 0xE5 SHL DUP2 MSTORE PUSH1 0x20 PUSH1 0x4 DUP3 ADD MSTORE PUSH1 0x1C PUSH1 0x24 DUP3 ADD MSTORE PUSH32 0x4E465420686173206E6F74206265656E2077686974656C697374656400000000 PUSH1 0x44 DUP3 ADD MSTORE PUSH1 0x64 ADD PUSH2 0x432 JUMP JUMPDEST DUP4 PUSH1 0xA0 PUSH1 0x0 PUSH1 0x9C PUSH1 0x0 DUP13 DUP9 DUP2 MLOAD DUP2 LT PUSH2 0x81D JUMPI PUSH2 0x81D PUSH2 0x1873 JUMP JUMPDEST PUSH1 0x20 MUL PUSH1 0x20 ADD ADD MLOAD DUP7 DUP2 MLOAD DUP2 LT PUSH2 0x836 JUMPI PUSH2 0x836 PUSH2 0x1873 JUMP JUMPDEST PUSH1 0x20 MUL PUSH1 0x20 ADD ADD MLOAD PUSH1 0x1 PUSH1 0x1 PUSH1 0xA0 SHL SUB AND PUSH1 0x1 PUSH1 0x1 PUSH1 0xA0 SHL SUB AND DUP2 MSTORE PUSH1 0x20 ADD SWAP1 DUP2 MSTORE PUSH1 0x20 ADD PUSH1 0x0 KECCAK256 PUSH1 0x0 SWAP1 SLOAD SWAP1 PUSH2 0x100 EXP SWAP1 DIV PUSH1 0x1 PUSH1 0x1 PUSH1 0xA0 SHL SUB AND PUSH1 0x1 PUSH1 0x1 PUSH1 0xA0 SHL SUB AND PUSH1 0x1 PUSH1 0x1 PUSH1 0xA0 SHL SUB AND DUP2 MSTORE PUSH1 0x20 ADD SWAP1 DUP2 MSTORE PUSH1 0x20 ADD PUSH1 0x0 KECCAK256 PUSH1 0x0 DUP3 DUP3 SLOAD PUSH2 0x8A1 SWAP2 SWAP1 PUSH2 0x18FB JUMP JUMPDEST SWAP1 SWAP2 SSTORE POP DUP2 SWAP1 POP PUSH2 0x8B1 DUP2 PUSH2 0x189F JUMP JUMPDEST SWAP2 POP POP PUSH2 0x758 JUMP JUMPDEST POP PUSH2 0x8F6 DUP8 DUP4 DUP2 MLOAD DUP2 LT PUSH2 0x8CF JUMPI PUSH2 0x8CF PUSH2 0x1873 JUMP JUMPDEST PUSH1 0x20 MUL PUSH1 0x20 ADD ADD MLOAD DUP8 DUP5 DUP2 MLOAD DUP2 LT PUSH2 0x8E9 JUMPI PUSH2 0x8E9 PUSH2 0x1873 JUMP JUMPDEST PUSH1 0x20 MUL PUSH1 0x20 ADD ADD MLOAD PUSH2 0xFED JUMP JUMPDEST POP DUP1 PUSH2 0x901 DUP2 PUSH2 0x189F JUMP JUMPDEST SWAP2 POP POP PUSH2 0x6F5 JUMP JUMPDEST POP PUSH1 0x98 SLOAD PUSH1 0x99 SLOAD PUSH2 0x91A SWAP1 DUP6 PUSH2 0x18BA JUMP JUMPDEST PUSH2 0x924 SWAP2 SWAP1 PUSH2 0x18FB JUMP JUMPDEST ADDRESS PUSH1 0x0 SWAP1 DUP2 MSTORE PUSH1 0xA0 PUSH1 0x20 MSTORE PUSH1 0x40 DUP2 KECCAK256 DUP1 SLOAD SWAP1 SWAP2 SWAP1 PUSH2 0x943 SWAP1 DUP5 SWAP1 PUSH2 0x18FB JUMP JUMPDEST SWAP1 SWAP2 SSTORE POP POP PUSH1 0x1 PUSH1 0x65 SSTORE POP POP POP POP POP JUMP JUMPDEST DUP2 MLOAD DUP2 MLOAD PUSH1 0x0 SWAP2 SWAP1 DUP2 EQ PUSH2 0x97A JUMPI PUSH1 0x40 MLOAD PUSH3 0x461BCD PUSH1 0xE5 SHL DUP2 MSTORE PUSH1 0x4 ADD PUSH2 0x432 SWAP1 PUSH2 0x184B JUMP JUMPDEST PUSH1 0x0 DUP1 JUMPDEST DUP3 DUP2 LT ISZERO PUSH2 0x9C0 JUMPI DUP6 DUP2 DUP2 MLOAD DUP2 LT PUSH2 0x998 JUMPI PUSH2 0x998 PUSH2 0x1873 JUMP JUMPDEST PUSH1 0x20 MUL PUSH1 0x20 ADD ADD MLOAD MLOAD DUP3 PUSH2 0x9AC SWAP2 SWAP1 PUSH2 0x18FB JUMP JUMPDEST SWAP2 POP DUP1 PUSH2 0x9B8 DUP2 PUSH2 0x189F JUMP JUMPDEST SWAP2 POP POP PUSH2 0x97E JUMP JUMPDEST POP PUSH1 0x98 SLOAD PUSH2 0x2710 PUSH1 0x9A SLOAD PUSH1 0x99 SLOAD DUP6 PUSH2 0x9D8 SWAP2 SWAP1 PUSH2 0x18BA JUMP JUMPDEST PUSH2 0x9E2 SWAP2 SWAP1 PUSH2 0x18BA JUMP JUMPDEST PUSH2 0x9EC SWAP2 SWAP1 PUSH2 0x18D9 JUMP JUMPDEST PUSH1 0x99 SLOAD PUSH2 0x9F9 SWAP1 DUP6 PUSH2 0x18BA JUMP JUMPDEST PUSH2 0xA03 SWAP2 SWAP1 PUSH2 0x18FB JUMP JUMPDEST PUSH2 0xA0D SWAP2 SWAP1 PUSH2 0x18FB JUMP JUMPDEST SWAP6 SWAP5 POP POP POP POP POP JUMP JUMPDEST PUSH1 0x0 SLOAD PUSH2 0x100 SWAP1 DIV PUSH1 0xFF AND PUSH2 0xA31 JUMPI PUSH1 0x0 SLOAD PUSH1 0xFF AND ISZERO PUSH2 0xA35 JUMP JUMPDEST ADDRESS EXTCODESIZE ISZERO JUMPDEST PUSH2 0xA98 JUMPI PUSH1 0x40 MLOAD PUSH3 0x461BCD PUSH1 0xE5 SHL DUP2 MSTORE PUSH1 0x20 PUSH1 0x4 DUP3 ADD MSTORE PUSH1 0x2E PUSH1 0x24 DUP3 ADD MSTORE PUSH32 0x496E697469616C697A61626C653A20636F6E747261637420697320616C726561 PUSH1 0x44 DUP3 ADD MSTORE PUSH14 0x191E481A5B9A5D1A585B1A5E9959 PUSH1 0x92 SHL PUSH1 0x64 DUP3 ADD MSTORE PUSH1 0x84 ADD PUSH2 0x432 JUMP JUMPDEST PUSH1 0x0 SLOAD PUSH2 0x100 SWAP1 DIV PUSH1 0xFF AND ISZERO DUP1 ISZERO PUSH2 0xABA JUMPI PUSH1 0x0 DUP1 SLOAD PUSH2 0xFFFF NOT AND PUSH2 0x101 OR SWAP1 SSTORE JUMPDEST PUSH2 0xAC2 PUSH2 0x11CE JUMP JUMPDEST PUSH2 0xACA PUSH2 0x11FD JUMP JUMPDEST PUSH1 0x97 DUP1 SLOAD PUSH1 0x1 PUSH1 0x1 PUSH1 0xA0 SHL SUB NOT AND PUSH1 0x1 PUSH1 0x1 PUSH1 0xA0 SHL SUB DUP8 AND OR SWAP1 SSTORE PUSH1 0x98 DUP5 SWAP1 SSTORE PUSH1 0x99 DUP4 SWAP1 SSTORE PUSH1 0x9A DUP3 SWAP1 SSTORE DUP1 ISZERO PUSH2 0xB06 JUMPI PUSH1 0x0 DUP1 SLOAD PUSH2 0xFF00 NOT AND SWAP1 SSTORE JUMPDEST POP POP POP POP POP JUMP JUMPDEST PUSH1 0x33 SLOAD PUSH1 0x1 PUSH1 0x1 PUSH1 0xA0 SHL SUB AND CALLER EQ PUSH2 0xB37 JUMPI PUSH1 0x40 MLOAD PUSH3 0x461BCD PUSH1 0xE5 SHL DUP2 MSTORE PUSH1 0x4 ADD PUSH2 0x432 SWAP1 PUSH2 0x1816 JUMP JUMPDEST PUSH1 0x2 PUSH1 0x65 SLOAD EQ ISZERO PUSH2 0xB5A JUMPI PUSH1 0x40 MLOAD PUSH3 0x461BCD PUSH1 0xE5 SHL DUP2 MSTORE PUSH1 0x4 ADD PUSH2 0x432 SWAP1 PUSH2 0x17DF JUMP JUMPDEST PUSH1 0x2 PUSH1 0x65 SSTORE ADDRESS PUSH1 0x0 SWAP1 DUP2 MSTORE PUSH1 0xA0 PUSH1 0x20 MSTORE PUSH1 0x40 DUP1 DUP3 KECCAK256 DUP1 SLOAD SWAP1 DUP4 SWAP1 SSTORE SWAP1 MLOAD SWAP1 SWAP2 SWAP1 CALLER SWAP1 DUP4 SWAP1 PUSH2 0x45E JUMP JUMPDEST PUSH1 0x33 SLOAD PUSH1 0x1 PUSH1 0x1 PUSH1 0xA0 SHL SUB AND CALLER EQ PUSH2 0xBAD JUMPI PUSH1 0x40 MLOAD PUSH3 0x461BCD PUSH1 0xE5 SHL DUP2 MSTORE PUSH1 0x4 ADD PUSH2 0x432 SWAP1 PUSH2 0x1816 JUMP JUMPDEST PUSH1 0x99 DUP1 SLOAD SWAP1 DUP3 SWAP1 SSTORE PUSH1 0x40 DUP1 MLOAD DUP3 DUP2 MSTORE PUSH1 0x20 DUP2 ADD DUP5 SWAP1 MSTORE PUSH32 0x85A2A890C70C5A5EE952F19486E44ACDEDFC71232102DA235FF85A67B8650073 SWAP2 ADD JUMPDEST PUSH1 0x40 MLOAD DUP1 SWAP2 SUB SWAP1 LOG1 POP POP JUMP JUMPDEST PUSH1 0x33 SLOAD PUSH1 0x1 PUSH1 0x1 PUSH1 0xA0 SHL SUB AND CALLER EQ PUSH2 0xC1D JUMPI PUSH1 0x40 MLOAD PUSH3 0x461BCD PUSH1 0xE5 SHL DUP2 MSTORE PUSH1 0x4 ADD PUSH2 0x432 SWAP1 PUSH2 0x1816 JUMP JUMPDEST PUSH1 0x97 DUP1 SLOAD PUSH1 0x1 PUSH1 0x1 PUSH1 0xA0 SHL SUB DUP4 DUP2 AND PUSH1 0x1 PUSH1 0x1 PUSH1 0xA0 SHL SUB NOT DUP4 AND DUP2 OR SWAP1 SWAP4 SSTORE PUSH1 0x40 DUP1 MLOAD SWAP2 SWAP1 SWAP3 AND DUP1 DUP3 MSTORE PUSH1 0x20 DUP3 ADD SWAP4 SWAP1 SWAP4 MSTORE PUSH32 0xEDC78A89177A1C94EB3540A6F8106C6AFF7069B6BEA3A6E99FD989D4A0C135D SWAP2 ADD PUSH2 0xBE7 JUMP JUMPDEST PUSH1 0x33 SLOAD PUSH1 0x1 PUSH1 0x1 PUSH1 0xA0 SHL SUB AND CALLER EQ PUSH2 0xCA1 JUMPI PUSH1 0x40 MLOAD PUSH3 0x461BCD PUSH1 0xE5 SHL DUP2 MSTORE PUSH1 0x4 ADD PUSH2 0x432 SWAP1 PUSH2 0x1816 JUMP JUMPDEST PUSH2 0xCAB PUSH1 0x0 PUSH2 0x122C JUMP JUMPDEST JUMP JUMPDEST PUSH1 0x33 SLOAD PUSH1 0x1 PUSH1 0x1 PUSH1 0xA0 SHL SUB AND CALLER EQ PUSH2 0xCD7 JUMPI PUSH1 0x40 MLOAD PUSH3 0x461BCD PUSH1 0xE5 SHL DUP2 MSTORE PUSH1 0x4 ADD PUSH2 0x432 SWAP1 PUSH2 0x1816 JUMP JUMPDEST DUP2 MLOAD DUP2 MLOAD DUP2 EQ PUSH2 0xCF9 JUMPI PUSH1 0x40 MLOAD PUSH3 0x461BCD PUSH1 0xE5 SHL DUP2 MSTORE PUSH1 0x4 ADD PUSH2 0x432 SWAP1 PUSH2 0x184B JUMP JUMPDEST PUSH1 0x0 JUMPDEST DUP2 DUP2 LT ISZERO PUSH2 0x5B8 JUMPI PUSH1 0x0 PUSH1 0x1 PUSH1 0x1 PUSH1 0xA0 SHL SUB AND PUSH1 0x9C PUSH1 0x0 DUP7 DUP5 DUP2 MLOAD DUP2 LT PUSH2 0xD25 JUMPI PUSH2 0xD25 PUSH2 0x1873 JUMP JUMPDEST PUSH1 0x20 SWAP1 DUP2 MUL SWAP2 SWAP1 SWAP2 ADD DUP2 ADD MLOAD PUSH1 0x1 PUSH1 0x1 PUSH1 0xA0 SHL SUB SWAP1 DUP2 AND DUP4 MSTORE SWAP1 DUP3 ADD SWAP3 SWAP1 SWAP3 MSTORE PUSH1 0x40 ADD PUSH1 0x0 KECCAK256 SLOAD AND EQ ISZERO PUSH2 0xD9B JUMPI PUSH1 0x40 MLOAD PUSH3 0x461BCD PUSH1 0xE5 SHL DUP2 MSTORE PUSH1 0x20 PUSH1 0x4 DUP3 ADD MSTORE PUSH1 0x1A PUSH1 0x24 DUP3 ADD MSTORE PUSH32 0x4E4654204F776E657220686173206E6F74206265656E20736574000000000000 PUSH1 0x44 DUP3 ADD MSTORE PUSH1 0x64 ADD PUSH2 0x432 JUMP JUMPDEST PUSH2 0xDD7 DUP5 DUP3 DUP2 MLOAD DUP2 LT PUSH2 0xDB0 JUMPI PUSH2 0xDB0 PUSH2 0x1873 JUMP JUMPDEST PUSH1 0x20 MUL PUSH1 0x20 ADD ADD MLOAD DUP5 DUP4 DUP2 MLOAD DUP2 LT PUSH2 0xDCA JUMPI PUSH2 0xDCA PUSH2 0x1873 JUMP JUMPDEST PUSH1 0x20 MUL PUSH1 0x20 ADD ADD MLOAD PUSH2 0xF1B JUMP JUMPDEST DUP1 PUSH2 0xDE1 DUP2 PUSH2 0x189F JUMP JUMPDEST SWAP2 POP POP PUSH2 0xCFC JUMP JUMPDEST PUSH1 0x33 SLOAD PUSH1 0x1 PUSH1 0x1 PUSH1 0xA0 SHL SUB AND CALLER EQ PUSH2 0xE13 JUMPI PUSH1 0x40 MLOAD PUSH3 0x461BCD PUSH1 0xE5 SHL DUP2 MSTORE PUSH1 0x4 ADD PUSH2 0x432 SWAP1 PUSH2 0x1816 JUMP JUMPDEST PUSH1 0x9A SSTORE JUMP JUMPDEST PUSH1 0x33 SLOAD PUSH1 0x1 PUSH1 0x1 PUSH1 0xA0 SHL SUB AND CALLER EQ PUSH2 0xE42 JUMPI PUSH1 0x40 MLOAD PUSH3 0x461BCD PUSH1 0xE5 SHL DUP2 MSTORE PUSH1 0x4 ADD PUSH2 0x432 SWAP1 PUSH2 0x1816 JUMP JUMPDEST PUSH1 0x98 DUP1 SLOAD SWAP1 DUP3 SWAP1 SSTORE PUSH1 0x40 DUP1 MLOAD DUP3 DUP2 MSTORE PUSH1 0x20 DUP2 ADD DUP5 SWAP1 MSTORE PUSH32 0xE61A8739EEED1662F3A9D19613D2E49116EF49912F1A0B6C9D8170E5307B93D0 SWAP2 ADD PUSH2 0xBE7 JUMP JUMPDEST PUSH1 0x33 SLOAD PUSH1 0x1 PUSH1 0x1 PUSH1 0xA0 SHL SUB AND CALLER EQ PUSH2 0xEAA JUMPI PUSH1 0x40 MLOAD PUSH3 0x461BCD PUSH1 0xE5 SHL DUP2 MSTORE PUSH1 0x4 ADD PUSH2 0x432 SWAP1 PUSH2 0x1816 JUMP JUMPDEST PUSH1 0x1 PUSH1 0x1 PUSH1 0xA0 SHL SUB DUP2 AND PUSH2 0xF0F JUMPI PUSH1 0x40 MLOAD PUSH3 0x461BCD PUSH1 0xE5 SHL DUP2 MSTORE PUSH1 0x20 PUSH1 0x4 DUP3 ADD MSTORE PUSH1 0x26 PUSH1 0x24 DUP3 ADD MSTORE PUSH32 0x4F776E61626C653A206E6577206F776E657220697320746865207A65726F2061 PUSH1 0x44 DUP3 ADD MSTORE PUSH6 0x646472657373 PUSH1 0xD0 SHL PUSH1 0x64 DUP3 ADD MSTORE PUSH1 0x84 ADD PUSH2 0x432 JUMP JUMPDEST PUSH2 0xF18 DUP2 PUSH2 0x122C JUMP JUMPDEST POP JUMP JUMPDEST PUSH1 0x1 PUSH1 0x1 PUSH1 0xA0 SHL SUB DUP3 AND PUSH1 0x0 DUP2 DUP2 MSTORE PUSH1 0x9B PUSH1 0x20 SWAP1 DUP2 MSTORE PUSH1 0x40 SWAP2 DUP3 SWAP1 KECCAK256 DUP1 SLOAD PUSH1 0xFF NOT AND DUP6 ISZERO ISZERO SWAP1 DUP2 OR SWAP1 SWAP2 SSTORE DUP3 MLOAD SWAP4 DUP5 MSTORE SWAP1 DUP4 ADD MSTORE PUSH32 0x990ECD0DEF76EFF86D5A91A08DBFB0F33A9C9E1873684A516A93CCF3F70A3256 SWAP2 ADD PUSH2 0xBE7 JUMP JUMPDEST PUSH1 0x1 PUSH1 0x1 PUSH1 0xA0 SHL SUB DUP3 DUP2 AND PUSH1 0x0 DUP2 DUP2 MSTORE PUSH1 0x9C PUSH1 0x20 SWAP1 DUP2 MSTORE PUSH1 0x40 SWAP2 DUP3 SWAP1 KECCAK256 DUP1 SLOAD DUP7 DUP7 AND PUSH1 0x1 PUSH1 0x1 PUSH1 0xA0 SHL SUB NOT DUP3 AND DUP2 OR SWAP1 SWAP3 SSTORE DUP4 MLOAD SWAP5 DUP6 MSTORE SWAP2 DUP5 ADD MSTORE SWAP1 SWAP3 AND SWAP2 DUP2 ADD DUP3 SWAP1 MSTORE PUSH32 0xF2A473776E0255419F7DEDDE904F0545F4B6F1E072CB64487D4EA3F5576DC01D SWAP1 PUSH1 0x60 ADD PUSH1 0x40 MLOAD DUP1 SWAP2 SUB SWAP1 LOG1 POP POP POP JUMP JUMPDEST PUSH1 0x40 DUP1 MLOAD PUSH1 0x80 DUP2 ADD DUP3 MSTORE DUP4 DUP2 MSTORE PUSH1 0x20 DUP2 ADD DUP4 SWAP1 MSTORE CALLER DUP2 DUP4 ADD DUP2 SWAP1 MSTORE PUSH1 0x9D SLOAD PUSH1 0x60 DUP4 ADD DUP2 SWAP1 MSTORE PUSH1 0x97 SLOAD SWAP4 MLOAD PUSH4 0x28512065 PUSH1 0xE2 SHL DUP2 MSTORE PUSH1 0x4 DUP2 ADD SWAP3 SWAP1 SWAP3 MSTORE PUSH1 0x24 DUP3 ADD MSTORE SWAP1 SWAP2 PUSH1 0x0 SWAP2 PUSH1 0x1 PUSH1 0x1 PUSH1 0xA0 SHL SUB SWAP1 SWAP2 AND SWAP1 PUSH4 0xA1448194 SWAP1 PUSH1 0x44 ADD PUSH1 0x20 PUSH1 0x40 MLOAD DUP1 DUP4 SUB DUP2 PUSH1 0x0 DUP8 DUP1 EXTCODESIZE ISZERO DUP1 ISZERO PUSH2 0x1062 JUMPI PUSH1 0x0 DUP1 REVERT JUMPDEST POP GAS CALL ISZERO DUP1 ISZERO PUSH2 0x1076 JUMPI RETURNDATASIZE PUSH1 0x0 DUP1 RETURNDATACOPY RETURNDATASIZE PUSH1 0x0 REVERT JUMPDEST POP POP POP POP PUSH1 0x40 MLOAD RETURNDATASIZE PUSH1 0x1F NOT PUSH1 0x1F DUP3 ADD AND DUP3 ADD DUP1 PUSH1 0x40 MSTORE POP DUP2 ADD SWAP1 PUSH2 0x109A SWAP2 SWAP1 PUSH2 0x1913 JUMP JUMPDEST SWAP1 POP DUP1 PUSH2 0x10DE JUMPI PUSH1 0x40 MLOAD PUSH3 0x461BCD PUSH1 0xE5 SHL DUP2 MSTORE PUSH1 0x20 PUSH1 0x4 DUP3 ADD MSTORE PUSH1 0x12 PUSH1 0x24 DUP3 ADD MSTORE PUSH18 0x11985A5B1959081D1BC81B5A5B9D08139195 PUSH1 0x72 SHL PUSH1 0x44 DUP3 ADD MSTORE PUSH1 0x64 ADD PUSH2 0x432 JUMP JUMPDEST PUSH1 0x9D SLOAD PUSH1 0x0 SWAP1 DUP2 MSTORE PUSH1 0x9E PUSH1 0x20 SWAP1 DUP2 MSTORE PUSH1 0x40 SWAP1 SWAP2 KECCAK256 DUP4 MLOAD DUP1 MLOAD DUP6 SWAP4 PUSH2 0x1106 SWAP3 DUP5 SWAP3 SWAP2 ADD SWAP1 PUSH2 0x12DC JUMP JUMPDEST POP PUSH1 0x20 DUP3 DUP2 ADD MLOAD DUP1 MLOAD PUSH2 0x111F SWAP3 PUSH1 0x1 DUP6 ADD SWAP3 ADD SWAP1 PUSH2 0x1341 JUMP JUMPDEST POP PUSH1 0x40 DUP3 DUP2 ADD MLOAD PUSH1 0x2 DUP4 ADD DUP1 SLOAD PUSH1 0x1 PUSH1 0x1 PUSH1 0xA0 SHL SUB NOT AND PUSH1 0x1 PUSH1 0x1 PUSH1 0xA0 SHL SUB SWAP1 SWAP3 AND SWAP2 SWAP1 SWAP2 OR SWAP1 SSTORE PUSH1 0x60 SWAP1 SWAP3 ADD MLOAD PUSH1 0x3 SWAP1 SWAP2 ADD SSTORE CALLER PUSH1 0x0 DUP2 DUP2 MSTORE PUSH1 0x9F PUSH1 0x20 SWAP1 DUP2 MSTORE DUP4 DUP3 KECCAK256 PUSH1 0x9D DUP1 SLOAD DUP3 SLOAD PUSH1 0x1 DUP2 ADD DUP5 SSTORE SWAP3 DUP6 MSTORE SWAP3 SWAP1 SWAP4 KECCAK256 ADD SSTORE SLOAD SWAP2 MLOAD PUSH32 0x206BA06C561797DA5D0262FC18D44D194C8CC1988E613C7C96F3DF8F8F330A37 SWAP3 PUSH2 0x11AB SWAP3 DUP9 SWAP3 DUP9 SWAP3 SWAP1 PUSH2 0x1930 JUMP JUMPDEST PUSH1 0x40 MLOAD DUP1 SWAP2 SUB SWAP1 LOG1 PUSH1 0x9D DUP1 SLOAD SWAP1 PUSH1 0x0 PUSH2 0x11C3 DUP4 PUSH2 0x189F JUMP JUMPDEST SWAP2 SWAP1 POP SSTORE POP POP POP POP POP JUMP JUMPDEST PUSH1 0x0 SLOAD PUSH2 0x100 SWAP1 DIV PUSH1 0xFF AND PUSH2 0x11F5 JUMPI PUSH1 0x40 MLOAD PUSH3 0x461BCD PUSH1 0xE5 SHL DUP2 MSTORE PUSH1 0x4 ADD PUSH2 0x432 SWAP1 PUSH2 0x19D1 JUMP JUMPDEST PUSH2 0xCAB PUSH2 0x127E JUMP JUMPDEST PUSH1 0x0 SLOAD PUSH2 0x100 SWAP1 DIV PUSH1 0xFF AND PUSH2 0x1224 JUMPI PUSH1 0x40 MLOAD PUSH3 0x461BCD PUSH1 0xE5 SHL DUP2 MSTORE PUSH1 0x4 ADD PUSH2 0x432 SWAP1 PUSH2 0x19D1 JUMP JUMPDEST PUSH2 0xCAB PUSH2 0x12AE JUMP JUMPDEST PUSH1 0x33 DUP1 SLOAD PUSH1 0x1 PUSH1 0x1 PUSH1 0xA0 SHL SUB DUP4 DUP2 AND PUSH1 0x1 PUSH1 0x1 PUSH1 0xA0 SHL SUB NOT DUP4 AND DUP2 OR SWAP1 SWAP4 SSTORE PUSH1 0x40 MLOAD SWAP2 AND SWAP2 SWAP1 DUP3 SWAP1 PUSH32 0x8BE0079C531659141344CD1FD0A4F28419497F9722A3DAAFE3B4186F6B6457E0 SWAP1 PUSH1 0x0 SWAP1 LOG3 POP POP JUMP JUMPDEST PUSH1 0x0 SLOAD PUSH2 0x100 SWAP1 DIV PUSH1 0xFF AND PUSH2 0x12A5 JUMPI PUSH1 0x40 MLOAD PUSH3 0x461BCD PUSH1 0xE5 SHL DUP2 MSTORE PUSH1 0x4 ADD PUSH2 0x432 SWAP1 PUSH2 0x19D1 JUMP JUMPDEST PUSH2 0xCAB CALLER PUSH2 0x122C JUMP JUMPDEST PUSH1 0x0 SLOAD PUSH2 0x100 SWAP1 DIV PUSH1 0xFF AND PUSH2 0x12D5 JUMPI PUSH1 0x40 MLOAD PUSH3 0x461BCD PUSH1 0xE5 SHL DUP2 MSTORE PUSH1 0x4 ADD PUSH2 0x432 SWAP1 PUSH2 0x19D1 JUMP JUMPDEST PUSH1 0x1 PUSH1 0x65 SSTORE JUMP JUMPDEST DUP3 DUP1 SLOAD DUP3 DUP3 SSTORE SWAP1 PUSH1 0x0 MSTORE PUSH1 0x20 PUSH1 0x0 KECCAK256 SWAP1 DUP2 ADD SWAP3 DUP3 ISZERO PUSH2 0x1331 JUMPI SWAP2 PUSH1 0x20 MUL DUP3 ADD JUMPDEST DUP3 DUP2 GT ISZERO PUSH2 0x1331 JUMPI DUP3 MLOAD DUP3 SLOAD PUSH1 0x1 PUSH1 0x1 PUSH1 0xA0 SHL SUB NOT AND PUSH1 0x1 PUSH1 0x1 PUSH1 0xA0 SHL SUB SWAP1 SWAP2 AND OR DUP3 SSTORE PUSH1 0x20 SWAP1 SWAP3 ADD SWAP2 PUSH1 0x1 SWAP1 SWAP2 ADD SWAP1 PUSH2 0x12FC JUMP JUMPDEST POP PUSH2 0x133D SWAP3 SWAP2 POP PUSH2 0x137C JUMP JUMPDEST POP SWAP1 JUMP JUMPDEST DUP3 DUP1 SLOAD DUP3 DUP3 SSTORE SWAP1 PUSH1 0x0 MSTORE PUSH1 0x20 PUSH1 0x0 KECCAK256 SWAP1 DUP2 ADD SWAP3 DUP3 ISZERO PUSH2 0x1331 JUMPI SWAP2 PUSH1 0x20 MUL DUP3 ADD JUMPDEST DUP3 DUP2 GT ISZERO PUSH2 0x1331 JUMPI DUP3 MLOAD DUP3 SSTORE SWAP2 PUSH1 0x20 ADD SWAP2 SWAP1 PUSH1 0x1 ADD SWAP1 PUSH2 0x1361 JUMP JUMPDEST JUMPDEST DUP1 DUP3 GT ISZERO PUSH2 0x133D JUMPI PUSH1 0x0 DUP2 SSTORE PUSH1 0x1 ADD PUSH2 0x137D JUMP JUMPDEST PUSH4 0x4E487B71 PUSH1 0xE0 SHL PUSH1 0x0 MSTORE PUSH1 0x41 PUSH1 0x4 MSTORE PUSH1 0x24 PUSH1 0x0 REVERT JUMPDEST PUSH1 0x40 MLOAD PUSH1 0x1F DUP3 ADD PUSH1 0x1F NOT AND DUP2 ADD PUSH8 0xFFFFFFFFFFFFFFFF DUP2 GT DUP3 DUP3 LT OR ISZERO PUSH2 0x13D0 JUMPI PUSH2 0x13D0 PUSH2 0x1391 JUMP JUMPDEST PUSH1 0x40 MSTORE SWAP2 SWAP1 POP JUMP JUMPDEST PUSH1 0x0 PUSH8 0xFFFFFFFFFFFFFFFF DUP3 GT ISZERO PUSH2 0x13F2 JUMPI PUSH2 0x13F2 PUSH2 0x1391 JUMP JUMPDEST POP PUSH1 0x5 SHL PUSH1 0x20 ADD SWAP1 JUMP JUMPDEST DUP1 CALLDATALOAD PUSH1 0x1 PUSH1 0x1 PUSH1 0xA0 SHL SUB DUP2 AND DUP2 EQ PUSH2 0x1413 JUMPI PUSH1 0x0 DUP1 REVERT JUMPDEST SWAP2 SWAP1 POP JUMP JUMPDEST PUSH1 0x0 DUP3 PUSH1 0x1F DUP4 ADD SLT PUSH2 0x1429 JUMPI PUSH1 0x0 DUP1 REVERT JUMPDEST DUP2 CALLDATALOAD PUSH1 0x20 PUSH2 0x143E PUSH2 0x1439 DUP4 PUSH2 0x13D8 JUMP JUMPDEST PUSH2 0x13A7 JUMP JUMPDEST DUP3 DUP2 MSTORE PUSH1 0x5 SWAP3 SWAP1 SWAP3 SHL DUP5 ADD DUP2 ADD SWAP2 DUP2 DUP2 ADD SWAP1 DUP7 DUP5 GT ISZERO PUSH2 0x145D JUMPI PUSH1 0x0 DUP1 REVERT JUMPDEST DUP3 DUP7 ADD JUMPDEST DUP5 DUP2 LT ISZERO PUSH2 0x147F JUMPI PUSH2 0x1472 DUP2 PUSH2 0x13FC JUMP JUMPDEST DUP4 MSTORE SWAP2 DUP4 ADD SWAP2 DUP4 ADD PUSH2 0x1461 JUMP JUMPDEST POP SWAP7 SWAP6 POP POP POP POP POP POP JUMP JUMPDEST PUSH1 0x0 DUP1 PUSH1 0x40 DUP4 DUP6 SUB SLT ISZERO PUSH2 0x149D JUMPI PUSH1 0x0 DUP1 REVERT JUMPDEST DUP3 CALLDATALOAD PUSH8 0xFFFFFFFFFFFFFFFF DUP1 DUP3 GT ISZERO PUSH2 0x14B5 JUMPI PUSH1 0x0 DUP1 REVERT JUMPDEST PUSH2 0x14C1 DUP7 DUP4 DUP8 ADD PUSH2 0x1418 JUMP JUMPDEST SWAP4 POP PUSH1 0x20 DUP6 ADD CALLDATALOAD SWAP2 POP DUP1 DUP3 GT ISZERO PUSH2 0x14D7 JUMPI PUSH1 0x0 DUP1 REVERT JUMPDEST POP PUSH2 0x14E4 DUP6 DUP3 DUP7 ADD PUSH2 0x1418 JUMP JUMPDEST SWAP2 POP POP SWAP3 POP SWAP3 SWAP1 POP JUMP JUMPDEST PUSH1 0x0 DUP3 PUSH1 0x1F DUP4 ADD SLT PUSH2 0x14FF JUMPI PUSH1 0x0 DUP1 REVERT JUMPDEST DUP2 CALLDATALOAD PUSH1 0x20 PUSH2 0x150F PUSH2 0x1439 DUP4 PUSH2 0x13D8 JUMP JUMPDEST DUP3 DUP2 MSTORE PUSH1 0x5 SWAP3 DUP4 SHL DUP6 ADD DUP3 ADD SWAP3 DUP3 DUP3 ADD SWAP2 SWAP1 DUP8 DUP6 GT ISZERO PUSH2 0x152E JUMPI PUSH1 0x0 DUP1 REVERT JUMPDEST DUP4 DUP8 ADD JUMPDEST DUP6 DUP2 LT ISZERO PUSH2 0x15C2 JUMPI DUP1 CALLDATALOAD PUSH8 0xFFFFFFFFFFFFFFFF DUP2 GT ISZERO PUSH2 0x1552 JUMPI PUSH1 0x0 DUP1 DUP2 REVERT JUMPDEST DUP9 ADD PUSH1 0x3F DUP2 ADD DUP11 SGT PUSH2 0x1564 JUMPI PUSH1 0x0 DUP1 DUP2 REVERT JUMPDEST DUP6 DUP2 ADD CALLDATALOAD PUSH1 0x40 PUSH2 0x1576 PUSH2 0x1439 DUP4 PUSH2 0x13D8 JUMP JUMPDEST DUP3 DUP2 MSTORE SWAP2 DUP6 SHL DUP4 ADD DUP2 ADD SWAP2 DUP9 DUP2 ADD SWAP1 DUP14 DUP5 GT ISZERO PUSH2 0x1593 JUMPI PUSH1 0x0 DUP1 DUP2 REVERT JUMPDEST SWAP4 DUP3 ADD SWAP4 JUMPDEST DUP4 DUP6 LT ISZERO PUSH2 0x15B1 JUMPI DUP5 CALLDATALOAD DUP3 MSTORE SWAP4 DUP10 ADD SWAP4 SWAP1 DUP10 ADD SWAP1 PUSH2 0x1598 JUMP JUMPDEST DUP9 MSTORE POP POP POP SWAP4 DUP6 ADD SWAP4 POP DUP5 ADD PUSH2 0x1532 JUMP JUMPDEST POP SWAP1 SWAP8 SWAP7 POP POP POP POP POP POP POP JUMP JUMPDEST PUSH1 0x0 DUP1 PUSH1 0x40 DUP4 DUP6 SUB SLT ISZERO PUSH2 0x15E2 JUMPI PUSH1 0x0 DUP1 REVERT JUMPDEST DUP3 CALLDATALOAD PUSH8 0xFFFFFFFFFFFFFFFF DUP1 DUP3 GT ISZERO PUSH2 0x15FA JUMPI PUSH1 0x0 DUP1 REVERT JUMPDEST DUP2 DUP6 ADD SWAP2 POP DUP6 PUSH1 0x1F DUP4 ADD SLT PUSH2 0x160E JUMPI PUSH1 0x0 DUP1 REVERT JUMPDEST DUP2 CALLDATALOAD PUSH1 0x20 PUSH2 0x161E PUSH2 0x1439 DUP4 PUSH2 0x13D8 JUMP JUMPDEST DUP3 DUP2 MSTORE PUSH1 0x5 SWAP3 SWAP1 SWAP3 SHL DUP5 ADD DUP2 ADD SWAP2 DUP2 DUP2 ADD SWAP1 DUP10 DUP5 GT ISZERO PUSH2 0x163D JUMPI PUSH1 0x0 DUP1 REVERT JUMPDEST DUP3 DUP7 ADD JUMPDEST DUP5 DUP2 LT ISZERO PUSH2 0x1675 JUMPI DUP1 CALLDATALOAD DUP7 DUP2 GT ISZERO PUSH2 0x1659 JUMPI PUSH1 0x0 DUP1 DUP2 REVERT JUMPDEST PUSH2 0x1667 DUP13 DUP7 DUP4 DUP12 ADD ADD PUSH2 0x1418 JUMP JUMPDEST DUP5 MSTORE POP SWAP2 DUP4 ADD SWAP2 DUP4 ADD PUSH2 0x1641 JUMP JUMPDEST POP SWAP7 POP POP DUP7 ADD CALLDATALOAD SWAP3 POP POP DUP1 DUP3 GT ISZERO PUSH2 0x168C JUMPI PUSH1 0x0 DUP1 REVERT JUMPDEST POP PUSH2 0x14E4 DUP6 DUP3 DUP7 ADD PUSH2 0x14EE JUMP JUMPDEST PUSH1 0x0 DUP1 PUSH1 0x0 DUP1 PUSH1 0x80 DUP6 DUP8 SUB SLT ISZERO PUSH2 0x16AF JUMPI PUSH1 0x0 DUP1 REVERT JUMPDEST PUSH2 0x16B8 DUP6 PUSH2 0x13FC JUMP JUMPDEST SWAP7 PUSH1 0x20 DUP7 ADD CALLDATALOAD SWAP7 POP PUSH1 0x40 DUP7 ADD CALLDATALOAD SWAP6 PUSH1 0x60 ADD CALLDATALOAD SWAP5 POP SWAP3 POP POP POP JUMP JUMPDEST PUSH1 0x0 PUSH1 0x20 DUP3 DUP5 SUB SLT ISZERO PUSH2 0x16E4 JUMPI PUSH1 0x0 DUP1 REVERT JUMPDEST POP CALLDATALOAD SWAP2 SWAP1 POP JUMP JUMPDEST PUSH1 0x0 PUSH1 0x20 DUP3 DUP5 SUB SLT ISZERO PUSH2 0x16FD JUMPI PUSH1 0x0 DUP1 REVERT JUMPDEST PUSH2 0x1706 DUP3 PUSH2 0x13FC JUMP JUMPDEST SWAP4 SWAP3 POP POP POP JUMP JUMPDEST DUP1 ISZERO ISZERO DUP2 EQ PUSH2 0xF18 JUMPI PUSH1 0x0 DUP1 REVERT JUMPDEST PUSH1 0x0 DUP1 PUSH1 0x40 DUP4 DUP6 SUB SLT ISZERO PUSH2 0x172E JUMPI PUSH1 0x0 DUP1 REVERT JUMPDEST DUP3 CALLDATALOAD PUSH8 0xFFFFFFFFFFFFFFFF DUP1 DUP3 GT ISZERO PUSH2 0x1746 JUMPI PUSH1 0x0 DUP1 REVERT JUMPDEST PUSH2 0x1752 DUP7 DUP4 DUP8 ADD PUSH2 0x1418 JUMP JUMPDEST SWAP4 POP PUSH1 0x20 SWAP2 POP DUP2 DUP6 ADD CALLDATALOAD DUP2 DUP2 GT ISZERO PUSH2 0x1769 JUMPI PUSH1 0x0 DUP1 REVERT JUMPDEST DUP6 ADD SWAP1 POP PUSH1 0x1F DUP2 ADD DUP7 SGT PUSH2 0x177C JUMPI PUSH1 0x0 DUP1 REVERT JUMPDEST DUP1 CALLDATALOAD PUSH2 0x178A PUSH2 0x1439 DUP3 PUSH2 0x13D8 JUMP JUMPDEST DUP2 DUP2 MSTORE PUSH1 0x5 SWAP2 SWAP1 SWAP2 SHL DUP3 ADD DUP4 ADD SWAP1 DUP4 DUP2 ADD SWAP1 DUP9 DUP4 GT ISZERO PUSH2 0x17A9 JUMPI PUSH1 0x0 DUP1 REVERT JUMPDEST SWAP3 DUP5 ADD SWAP3 JUMPDEST DUP3 DUP5 LT ISZERO PUSH2 0x17D0 JUMPI DUP4 CALLDATALOAD PUSH2 0x17C1 DUP2 PUSH2 0x170D JUMP JUMPDEST DUP3 MSTORE SWAP3 DUP5 ADD SWAP3 SWAP1 DUP5 ADD SWAP1 PUSH2 0x17AE JUMP JUMPDEST DUP1 SWAP6 POP POP POP POP POP POP SWAP3 POP SWAP3 SWAP1 POP JUMP JUMPDEST PUSH1 0x20 DUP1 DUP3 MSTORE PUSH1 0x1F SWAP1 DUP3 ADD MSTORE PUSH32 0x5265656E7472616E637947756172643A207265656E7472616E742063616C6C00 PUSH1 0x40 DUP3 ADD MSTORE PUSH1 0x60 ADD SWAP1 JUMP JUMPDEST PUSH1 0x20 DUP1 DUP3 MSTORE DUP2 DUP2 ADD MSTORE PUSH32 0x4F776E61626C653A2063616C6C6572206973206E6F7420746865206F776E6572 PUSH1 0x40 DUP3 ADD MSTORE PUSH1 0x60 ADD SWAP1 JUMP JUMPDEST PUSH1 0x20 DUP1 DUP3 MSTORE PUSH1 0xE SWAP1 DUP3 ADD MSTORE PUSH14 0x92DCECC2D8D2C840D8CADCCEE8D PUSH1 0x93 SHL PUSH1 0x40 DUP3 ADD MSTORE PUSH1 0x60 ADD SWAP1 JUMP JUMPDEST PUSH4 0x4E487B71 PUSH1 0xE0 SHL PUSH1 0x0 MSTORE PUSH1 0x32 PUSH1 0x4 MSTORE PUSH1 0x24 PUSH1 0x0 REVERT JUMPDEST PUSH4 0x4E487B71 PUSH1 0xE0 SHL PUSH1 0x0 MSTORE PUSH1 0x11 PUSH1 0x4 MSTORE PUSH1 0x24 PUSH1 0x0 REVERT JUMPDEST PUSH1 0x0 PUSH1 0x0 NOT DUP3 EQ ISZERO PUSH2 0x18B3 JUMPI PUSH2 0x18B3 PUSH2 0x1889 JUMP JUMPDEST POP PUSH1 0x1 ADD SWAP1 JUMP JUMPDEST PUSH1 0x0 DUP2 PUSH1 0x0 NOT DIV DUP4 GT DUP3 ISZERO ISZERO AND ISZERO PUSH2 0x18D4 JUMPI PUSH2 0x18D4 PUSH2 0x1889 JUMP JUMPDEST POP MUL SWAP1 JUMP JUMPDEST PUSH1 0x0 DUP3 PUSH2 0x18F6 JUMPI PUSH4 0x4E487B71 PUSH1 0xE0 SHL PUSH1 0x0 MSTORE PUSH1 0x12 PUSH1 0x4 MSTORE PUSH1 0x24 PUSH1 0x0 REVERT JUMPDEST POP DIV SWAP1 JUMP JUMPDEST PUSH1 0x0 DUP3 NOT DUP3 GT ISZERO PUSH2 0x190E JUMPI PUSH2 0x190E PUSH2 0x1889 JUMP JUMPDEST POP ADD SWAP1 JUMP JUMPDEST PUSH1 0x0 PUSH1 0x20 DUP3 DUP5 SUB SLT ISZERO PUSH2 0x1925 JUMPI PUSH1 0x0 DUP1 REVERT JUMPDEST DUP2 MLOAD PUSH2 0x1706 DUP2 PUSH2 0x170D JUMP JUMPDEST PUSH1 0x80 DUP1 DUP3 MSTORE DUP6 MLOAD SWAP1 DUP3 ADD DUP2 SWAP1 MSTORE PUSH1 0x0 SWAP1 PUSH1 0x20 SWAP1 PUSH1 0xA0 DUP5 ADD SWAP1 DUP3 DUP10 ADD DUP5 JUMPDEST DUP3 DUP2 LT ISZERO PUSH2 0x1972 JUMPI DUP2 MLOAD PUSH1 0x1 PUSH1 0x1 PUSH1 0xA0 SHL SUB AND DUP5 MSTORE SWAP3 DUP5 ADD SWAP3 SWAP1 DUP5 ADD SWAP1 PUSH1 0x1 ADD PUSH2 0x194D JUMP JUMPDEST POP POP POP DUP4 DUP2 SUB DUP3 DUP6 ADD MSTORE DUP7 MLOAD DUP1 DUP3 MSTORE DUP8 DUP4 ADD SWAP2 DUP4 ADD SWAP1 PUSH1 0x0 JUMPDEST DUP2 DUP2 LT ISZERO PUSH2 0x19A7 JUMPI DUP4 MLOAD DUP4 MSTORE SWAP3 DUP5 ADD SWAP3 SWAP2 DUP5 ADD SWAP2 PUSH1 0x1 ADD PUSH2 0x198B JUMP JUMPDEST POP POP PUSH1 0x1 PUSH1 0x1 PUSH1 0xA0 SHL SUB DUP8 AND PUSH1 0x40 DUP7 ADD MSTORE SWAP3 POP PUSH2 0x19C2 SWAP2 POP POP JUMP JUMPDEST DUP3 PUSH1 0x60 DUP4 ADD MSTORE SWAP6 SWAP5 POP POP POP POP POP JUMP JUMPDEST PUSH1 0x20 DUP1 DUP3 MSTORE PUSH1 0x2B SWAP1 DUP3 ADD MSTORE PUSH32 0x496E697469616C697A61626C653A20636F6E7472616374206973206E6F742069 PUSH1 0x40 DUP3 ADD MSTORE PUSH11 0x6E697469616C697A696E67 PUSH1 0xA8 SHL PUSH1 0x60 DUP3 ADD MSTORE PUSH1 0x80 ADD SWAP1 JUMP INVALID LOG2 PUSH5 0x6970667358 0x22 SLT KECCAK256 PC TIMESTAMP CODESIZE SIGNEXTEND SWAP14 0xE1 0xC1 RETURN GASLIMIT SWAP8 0x28 0xC5 0x4C LOG4 0x2B 0x22 RETURNDATASIZE ADDMOD 0xEF SIGNEXTEND 0xC4 LOG0 0xE3 0x1F CALLER 0xFB 0x24 0xCC XOR OR CODESIZE SSTORE PUSH5 0x736F6C6343 STOP ADDMOD MULMOD STOP CALLER "},"methodIdentifiers":{"balanceOf(address)":"70a08231","buyShirt(address[][],uint256[][])":"44ed1fa4","changeNFTWhitelistStatus(address[],bool[])":"7719bc7b","eachShirtFee()":"9e7c11a5","estimateCost(address[][],uint256[][])":"4a59c50d","getNFTStatus(address)":"9554f8f0","initialize(address,uint256,uint256,uint256)":"4ec81af1","owner()":"8da5cb5b","percentRoyaltyFee()":"89bd3beb","renounceOwnership()":"715018a6","setEachShirtFee(uint256)":"59f7963d","setNFTAddress(address)":"69d03738","setNFTOwner(address[],address[])":"1cc88bcd","setPercentRoyaltyFee(uint256)":"ccf99a6e","setShippingFee(uint256)":"d3ac1e4a","shippingFee()":"4abaf07e","shirtNFTAddress()":"5d6297c2","transferOwnership(address)":"f2fde38b","whitelistNFT(address[],address[])":"136a743c","withDraw()":"0fdb1c10","withDrawShirtFee()":"50b9b3e3"}},"storageLayout":{"storage":[{"astId":130,"contract":"contracts/Store.sol:Store","label":"_initialized","offset":0,"slot":"0","type":"t_bool"},{"astId":133,"contract":"contracts/Store.sol:Store","label":"_initializing","offset":1,"slot":"0","type":"t_bool"},{"astId":842,"contract":"contracts/Store.sol:Store","label":"__gap","offset":0,"slot":"1","type":"t_array(t_uint256)50_storage"},{"astId":10,"contract":"contracts/Store.sol:Store","label":"_owner","offset":0,"slot":"51","type":"t_address"},{"astId":122,"contract":"contracts/Store.sol:Store","label":"__gap","offset":0,"slot":"52","type":"t_array(t_uint256)49_storage"},{"astId":211,"contract":"contracts/Store.sol:Store","label":"_status","offset":0,"slot":"101","type":"t_uint256"},{"astId":255,"contract":"contracts/Store.sol:Store","label":"__gap","offset":0,"slot":"102","type":"t_array(t_uint256)49_storage"},{"astId":5377,"contract":"contracts/Store.sol:Store","label":"shirtNFTAddress","offset":0,"slot":"151","type":"t_address"},{"astId":5379,"contract":"contracts/Store.sol:Store","label":"shippingFee","offset":0,"slot":"152","type":"t_uint256"},{"astId":5381,"contract":"contracts/Store.sol:Store","label":"eachShirtFee","offset":0,"slot":"153","type":"t_uint256"},{"astId":5383,"contract":"contracts/Store.sol:Store","label":"percentRoyaltyFee","offset":0,"slot":"154","type":"t_uint256"},{"astId":5390,"contract":"contracts/Store.sol:Store","label":"isWhitelistNFT","offset":0,"slot":"155","type":"t_mapping(t_address,t_bool)"},{"astId":5394,"contract":"contracts/Store.sol:Store","label":"ownerOfNFT","offset":0,"slot":"156","type":"t_mapping(t_address,t_address)"},{"astId":5407,"contract":"contracts/Store.sol:Store","label":"_shirtTokenId","offset":0,"slot":"157","type":"t_uint256"},{"astId":5412,"contract":"contracts/Store.sol:Store","label":"indexToShirt","offset":0,"slot":"158","type":"t_mapping(t_uint256,t_struct(Shirt)5405_storage)"},{"astId":5417,"contract":"contracts/Store.sol:Store","label":"buyerToShirtIndexs","offset":0,"slot":"159","type":"t_mapping(t_address,t_array(t_uint256)dyn_storage)"},{"astId":5421,"contract":"contracts/Store.sol:Store","label":"balances","offset":0,"slot":"160","type":"t_mapping(t_address,t_uint256)"}],"types":{"t_address":{"encoding":"inplace","label":"address","numberOfBytes":"20"},"t_array(t_address)dyn_storage":{"base":"t_address","encoding":"dynamic_array","label":"address[]","numberOfBytes":"32"},"t_array(t_uint256)49_storage":{"base":"t_uint256","encoding":"inplace","label":"uint256[49]","numberOfBytes":"1568"},"t_array(t_uint256)50_storage":{"base":"t_uint256","encoding":"inplace","label":"uint256[50]","numberOfBytes":"1600"},"t_array(t_uint256)dyn_storage":{"base":"t_uint256","encoding":"dynamic_array","label":"uint256[]","numberOfBytes":"32"},"t_bool":{"encoding":"inplace","label":"bool","numberOfBytes":"1"},"t_mapping(t_address,t_address)":{"encoding":"mapping","key":"t_address","label":"mapping(address => address)","numberOfBytes":"32","value":"t_address"},"t_mapping(t_address,t_array(t_uint256)dyn_storage)":{"encoding":"mapping","key":"t_address","label":"mapping(address => uint256[])","numberOfBytes":"32","value":"t_array(t_uint256)dyn_storage"},"t_mapping(t_address,t_bool)":{"encoding":"mapping","key":"t_address","label":"mapping(address => bool)","numberOfBytes":"32","value":"t_bool"},"t_mapping(t_address,t_uint256)":{"encoding":"mapping","key":"t_address","label":"mapping(address => uint256)","numberOfBytes":"32","value":"t_uint256"},"t_mapping(t_uint256,t_struct(Shirt)5405_storage)":{"encoding":"mapping","key":"t_uint256","label":"mapping(uint256 => struct Store.Shirt)","numberOfBytes":"32","value":"t_struct(Shirt)5405_storage"},"t_struct(Shirt)5405_storage":{"encoding":"inplace","label":"struct Store.Shirt","members":[{"astId":5397,"contract":"contracts/Store.sol:Store","label":"originalNFTs","offset":0,"slot":"0","type":"t_array(t_address)dyn_storage"},{"astId":5400,"contract":"contracts/Store.sol:Store","label":"originalTokenIds","offset":0,"slot":"1","type":"t_array(t_uint256)dyn_storage"},{"astId":5402,"contract":"contracts/Store.sol:Store","label":"buyer","offset":0,"slot":"2","type":"t_address"},{"astId":5404,"contract":"contracts/Store.sol:Store","label":"shirtTokenId","offset":0,"slot":"3","type":"t_uint256"}],"numberOfBytes":"128"},"t_uint256":{"encoding":"inplace","label":"uint256","numberOfBytes":"32"}}},"userdoc":{"kind":"user","methods":{},"version":1}}}}