{"contracts/Store.sol":{"Store":{"abi":[{"inputs":[{"internalType":"address","name":"_nft","type":"address"},{"internalType":"uint256","name":"_shippingFee","type":"uint256"},{"internalType":"uint256","name":"_eachShirtFee","type":"uint256"},{"internalType":"uint256","name":"_percentRoyaltyFee","type":"uint256"}],"stateMutability":"nonpayable","type":"constructor"},{"anonymous":false,"inputs":[{"indexed":false,"internalType":"address","name":"nftAddress","type":"address"},{"indexed":false,"internalType":"address","name":"nftOwnerAddress","type":"address"}],"name":"NFTOwnerChanged","type":"event"},{"anonymous":false,"inputs":[{"indexed":false,"internalType":"address","name":"nftAddress","type":"address"},{"indexed":false,"internalType":"bool","name":"status","type":"bool"}],"name":"NFTWhitelistStatusChanged","type":"event"},{"anonymous":false,"inputs":[{"indexed":true,"internalType":"address","name":"previousOwner","type":"address"},{"indexed":true,"internalType":"address","name":"newOwner","type":"address"}],"name":"OwnershipTransferred","type":"event"},{"anonymous":false,"inputs":[{"indexed":false,"internalType":"address[]","name":"nftAddresses","type":"address[]"},{"indexed":false,"internalType":"uint256[]","name":"tokenIds","type":"uint256[]"},{"indexed":false,"internalType":"address","name":"buyer","type":"address"},{"indexed":false,"internalType":"uint256","name":"shirtTokenId","type":"uint256"}],"name":"ShirtCreated","type":"event"},{"inputs":[{"internalType":"address[][]","name":"_nftAddresses","type":"address[][]"},{"internalType":"uint256[][]","name":"_tokenIds","type":"uint256[][]"}],"name":"buyShirt","outputs":[],"stateMutability":"payable","type":"function"},{"inputs":[{"internalType":"address[]","name":"_nftAddresses","type":"address[]"},{"internalType":"bool[]","name":"_status","type":"bool[]"}],"name":"changeNFTWhitelistStatus","outputs":[],"stateMutability":"nonpayable","type":"function"},{"inputs":[],"name":"eachShirtFee","outputs":[{"internalType":"uint256","name":"","type":"uint256"}],"stateMutability":"view","type":"function"},{"inputs":[{"internalType":"address[][]","name":"_nftAddresses","type":"address[][]"},{"internalType":"uint256[][]","name":"_tokenIds","type":"uint256[][]"}],"name":"estimateCost","outputs":[{"internalType":"uint256","name":"cost","type":"uint256"}],"stateMutability":"view","type":"function"},{"inputs":[],"name":"owner","outputs":[{"internalType":"address","name":"","type":"address"}],"stateMutability":"view","type":"function"},{"inputs":[],"name":"percentRoyaltyFee","outputs":[{"internalType":"uint256","name":"","type":"uint256"}],"stateMutability":"view","type":"function"},{"inputs":[],"name":"renounceOwnership","outputs":[],"stateMutability":"nonpayable","type":"function"},{"inputs":[{"internalType":"uint256","name":"_eachShirtFee","type":"uint256"}],"name":"setEachShirtFee","outputs":[],"stateMutability":"nonpayable","type":"function"},{"inputs":[{"internalType":"address","name":"_shirtNFTAddress","type":"address"}],"name":"setNFTAddress","outputs":[],"stateMutability":"nonpayable","type":"function"},{"inputs":[{"internalType":"address[]","name":"_nftAddresses","type":"address[]"},{"internalType":"address[]","name":"_nftOwners","type":"address[]"}],"name":"setNFTOwner","outputs":[],"stateMutability":"nonpayable","type":"function"},{"inputs":[{"internalType":"uint256","name":"_percentRoyaltyFee","type":"uint256"}],"name":"setPercentRoyaltyFee","outputs":[],"stateMutability":"nonpayable","type":"function"},{"inputs":[{"internalType":"uint256","name":"_shippingFee","type":"uint256"}],"name":"setShippingFee","outputs":[],"stateMutability":"nonpayable","type":"function"},{"inputs":[],"name":"shippingFee","outputs":[{"internalType":"uint256","name":"","type":"uint256"}],"stateMutability":"view","type":"function"},{"inputs":[],"name":"shirtNFTAddress","outputs":[{"internalType":"address","name":"","type":"address"}],"stateMutability":"view","type":"function"},{"inputs":[{"internalType":"address","name":"newOwner","type":"address"}],"name":"transferOwnership","outputs":[],"stateMutability":"nonpayable","type":"function"},{"inputs":[{"internalType":"address[]","name":"_nftAddresses","type":"address[]"},{"internalType":"address[]","name":"_nftOwners","type":"address[]"}],"name":"whitelistNFT","outputs":[],"stateMutability":"nonpayable","type":"function"}],"devdoc":{"kind":"dev","methods":{"owner()":{"details":"Returns the address of the current owner."},"renounceOwnership()":{"details":"Leaves the contract without owner. It will not be possible to call `onlyOwner` functions anymore. Can only be called by the current owner. NOTE: Renouncing ownership will leave the contract without an owner, thereby removing any functionality that is only available to the owner."},"transferOwnership(address)":{"details":"Transfers ownership of the contract to a new account (`newOwner`). Can only be called by the current owner."}},"version":1},"evm":{"bytecode":{"linkReferences":{},"object":"608060405234801561001057600080fd5b5060405161139538038061139583398101604081905261002f916100c1565b600160005561003d3361006f565b600280546001600160a01b0319166001600160a01b03959095169490941790935560039190915560045560055561010c565b600180546001600160a01b038381166001600160a01b0319831681179093556040519116919082907f8be0079c531659141344cd1fd0a4f28419497f9722a3daafe3b4186f6b6457e090600090a35050565b600080600080608085870312156100d757600080fd5b84516001600160a01b03811681146100ee57600080fd5b60208601516040870151606090970151919890975090945092505050565b61127a8061011b6000396000f3fe6080604052600436106100f35760003560e01c8063715018a61161008a5780639e7c11a5116100595780639e7c11a514610277578063ccf99a6e1461028d578063d3ac1e4a146102ad578063f2fde38b146102cd57600080fd5b8063715018a61461020e5780637719bc7b1461022357806389bd3beb146102435780638da5cb5b1461025957600080fd5b80634abaf07e116100c65780634abaf07e1461018057806359f7963d146101965780635d6297c2146101b657806369d03738146101ee57600080fd5b8063136a743c146100f85780631cc88bcd1461011a57806344ed1fa41461013a5780634a59c50d1461014d575b600080fd5b34801561010457600080fd5b50610118610113366004610da2565b6102ed565b005b34801561012657600080fd5b50610118610135366004610da2565b6103a3565b610118610148366004610ee7565b6103ff565b34801561015957600080fd5b5061016d610168366004610ee7565b6105e5565b6040519081526020015b60405180910390f35b34801561018c57600080fd5b5061016d60035481565b3480156101a257600080fd5b506101186101b1366004610fb1565b6106a7565b3480156101c257600080fd5b506002546101d6906001600160a01b031681565b6040516001600160a01b039091168152602001610177565b3480156101fa57600080fd5b50610118610209366004610fca565b6106b4565b34801561021a57600080fd5b506101186106de565b34801561022f57600080fd5b5061011861023e366004610ffa565b6106f2565b34801561024f57600080fd5b5061016d60055481565b34801561026557600080fd5b506001546001600160a01b03166101d6565b34801561028357600080fd5b5061016d60045481565b34801561029957600080fd5b506101186102a8366004610fb1565b61080c565b3480156102b957600080fd5b506101186102c8366004610fb1565b610819565b3480156102d957600080fd5b506101186102e8366004610fca565b610826565b6102f561089f565b8151815181146103205760405162461bcd60e51b8152600401610317906110be565b60405180910390fd5b60005b8181101561039d5761034f848281518110610340576103406110e6565b602002602001015160016108f9565b61038b848281518110610364576103646110e6565b602002602001015184838151811061037e5761037e6110e6565b602002602001015161095d565b8061039581611112565b915050610323565b50505050565b6103ab61089f565b8151815181146103cd5760405162461bcd60e51b8152600401610317906110be565b60005b8181101561039d576103ed848281518110610364576103646110e6565b806103f781611112565b9150506103d0565b8151815181146104215760405162461bcd60e51b8152600401610317906110be565b600061042d84846105e5565b905080341461046c5760405162461bcd60e51b815260206004820152600b60248201526a57726f6e672076616c756560a81b6044820152606401610317565b60005b828110156105de57600085828151811061048b5761048b6110e6565b60200260200101515190508482815181106104a8576104a86110e6565b60200260200101515181146104cf5760405162461bcd60e51b8152600401610317906110be565b60005b8181101561058e57600660008885815181106104f0576104f06110e6565b60200260200101518381518110610509576105096110e6565b6020908102919091018101516001600160a01b031682528101919091526040016000205460ff1661057c5760405162461bcd60e51b815260206004820152601c60248201527f4e465420686173206e6f74206265656e2077686974656c6973746564000000006044820152606401610317565b8061058681611112565b9150506104d2565b506105cb8683815181106105a4576105a46110e6565b60200260200101518684815181106105be576105be6110e6565b60200260200101516109c1565b50806105d681611112565b91505061046f565b5050505050565b8151815160009190811461060b5760405162461bcd60e51b8152600401610317906110be565b6000805b8281101561065157858181518110610629576106296110e6565b6020026020010151518261063d919061112d565b91508061064981611112565b91505061060f565b50600354612710600554600454856106699190611145565b6106739190611145565b61067d9190611164565b60045461068a9085611145565b610694919061112d565b61069e919061112d565b95945050505050565b6106af61089f565b600455565b6106bc61089f565b600280546001600160a01b0319166001600160a01b0392909216919091179055565b6106e661089f565b6106f06000610ba2565b565b6106fa61089f565b81518151811461071c5760405162461bcd60e51b8152600401610317906110be565b60005b8181101561039d5760006001600160a01b031660076000868481518110610748576107486110e6565b6020908102919091018101516001600160a01b03908116835290820192909252604001600020541614156107be5760405162461bcd60e51b815260206004820152601a60248201527f4e4654204f776e657220686173206e6f74206265656e207365740000000000006044820152606401610317565b6107fa8482815181106107d3576107d36110e6565b60200260200101518483815181106107ed576107ed6110e6565b60200260200101516108f9565b8061080481611112565b91505061071f565b61081461089f565b600555565b61082161089f565b600355565b61082e61089f565b6001600160a01b0381166108935760405162461bcd60e51b815260206004820152602660248201527f4f776e61626c653a206e6577206f776e657220697320746865207a65726f206160448201526564647265737360d01b6064820152608401610317565b61089c81610ba2565b50565b6001546001600160a01b031633146106f05760405162461bcd60e51b815260206004820181905260248201527f4f776e61626c653a2063616c6c6572206973206e6f7420746865206f776e65726044820152606401610317565b6001600160a01b038216600081815260066020908152604091829020805460ff19168515159081179091558251938452908301527f990ecd0def76eff86d5a91a08dbfb0f33a9c9e1873684a516a93ccf3f70a325691015b60405180910390a15050565b6001600160a01b0382811660008181526007602090815260409182902080546001600160a01b031916948616948517905581519283528201929092527f970c3f5f7f64fbd82c31e769d06a9a152177702a2ef86b0018d6e8ea1c97cf299101610951565b604080516080810182528381526020810183905233818301819052600854606083018190526002549351632851206560e21b81526004810192909252602482015290916000916001600160a01b039091169063a144819490604401602060405180830381600087803b158015610a3657600080fd5b505af1158015610a4a573d6000803e3d6000fd5b505050506040513d601f19601f82011682018060405250810190610a6e9190611186565b905080610ab25760405162461bcd60e51b815260206004820152601260248201527111985a5b1959081d1bc81b5a5b9d0813919560721b6044820152606401610317565b6008546000908152600960209081526040909120835180518593610ada928492910190610bf4565b506020828101518051610af39260018501920190610c59565b506040828101516002830180546001600160a01b0319166001600160a01b03909216919091179055606090920151600390910155336000818152600a60209081528382206008805482546001810184559285529290932001555491517f206ba06c561797da5d0262fc18d44d194c8cc1988e613c7c96f3df8f8f330a3792610b7f9288928892906111a3565b60405180910390a160088054906000610b9783611112565b919050555050505050565b600180546001600160a01b038381166001600160a01b0319831681179093556040519116919082907f8be0079c531659141344cd1fd0a4f28419497f9722a3daafe3b4186f6b6457e090600090a35050565b828054828255906000526020600020908101928215610c49579160200282015b82811115610c4957825182546001600160a01b0319166001600160a01b03909116178255602090920191600190910190610c14565b50610c55929150610c94565b5090565b828054828255906000526020600020908101928215610c49579160200282015b82811115610c49578251825591602001919060010190610c79565b5b80821115610c555760008155600101610c95565b634e487b7160e01b600052604160045260246000fd5b604051601f8201601f1916810167ffffffffffffffff81118282101715610ce857610ce8610ca9565b604052919050565b600067ffffffffffffffff821115610d0a57610d0a610ca9565b5060051b60200190565b80356001600160a01b0381168114610d2b57600080fd5b919050565b600082601f830112610d4157600080fd5b81356020610d56610d5183610cf0565b610cbf565b82815260059290921b84018101918181019086841115610d7557600080fd5b8286015b84811015610d9757610d8a81610d14565b8352918301918301610d79565b509695505050505050565b60008060408385031215610db557600080fd5b823567ffffffffffffffff80821115610dcd57600080fd5b610dd986838701610d30565b93506020850135915080821115610def57600080fd5b50610dfc85828601610d30565b9150509250929050565b600082601f830112610e1757600080fd5b81356020610e27610d5183610cf0565b828152600592831b8501820192828201919087851115610e4657600080fd5b8387015b85811015610eda57803567ffffffffffffffff811115610e6a5760008081fd5b8801603f81018a13610e7c5760008081fd5b858101356040610e8e610d5183610cf0565b82815291851b8301810191888101908d841115610eab5760008081fd5b938201935b83851015610ec957843582529389019390890190610eb0565b885250505093850193508401610e4a565b5090979650505050505050565b60008060408385031215610efa57600080fd5b823567ffffffffffffffff80821115610f1257600080fd5b818501915085601f830112610f2657600080fd5b81356020610f36610d5183610cf0565b82815260059290921b84018101918181019089841115610f5557600080fd5b8286015b84811015610f8d57803586811115610f715760008081fd5b610f7f8c86838b0101610d30565b845250918301918301610f59565b5096505086013592505080821115610fa457600080fd5b50610dfc85828601610e06565b600060208284031215610fc357600080fd5b5035919050565b600060208284031215610fdc57600080fd5b610fe582610d14565b9392505050565b801515811461089c57600080fd5b6000806040838503121561100d57600080fd5b823567ffffffffffffffff8082111561102557600080fd5b61103186838701610d30565b935060209150818501358181111561104857600080fd5b85019050601f8101861361105b57600080fd5b8035611069610d5182610cf0565b81815260059190911b8201830190838101908883111561108857600080fd5b928401925b828410156110af5783356110a081610fec565b8252928401929084019061108d565b80955050505050509250929050565b6020808252600e908201526d092dcecc2d8d2c840d8cadccee8d60931b604082015260600190565b634e487b7160e01b600052603260045260246000fd5b634e487b7160e01b600052601160045260246000fd5b6000600019821415611126576111266110fc565b5060010190565b60008219821115611140576111406110fc565b500190565b600081600019048311821515161561115f5761115f6110fc565b500290565b60008261118157634e487b7160e01b600052601260045260246000fd5b500490565b60006020828403121561119857600080fd5b8151610fe581610fec565b6080808252855190820181905260009060209060a0840190828901845b828110156111e55781516001600160a01b0316845292840192908401906001016111c0565b5050508381038285015286518082528783019183019060005b8181101561121a578351835292840192918401916001016111fe565b50506001600160a01b03871660408601529250611235915050565b8260608301529594505050505056fea26469706673582212208da31e6dddc80eab9aad2fe2b221aa5fd67bea4f33032364cce2f7d1c1cf87ef64736f6c63430008090033","opcodes":"PUSH1 0x80 PUSH1 0x40 MSTORE CALLVALUE DUP1 ISZERO PUSH2 0x10 JUMPI PUSH1 0x0 DUP1 REVERT JUMPDEST POP PUSH1 0x40 MLOAD PUSH2 0x1395 CODESIZE SUB DUP1 PUSH2 0x1395 DUP4 CODECOPY DUP2 ADD PUSH1 0x40 DUP2 SWAP1 MSTORE PUSH2 0x2F SWAP2 PUSH2 0xC1 JUMP JUMPDEST PUSH1 0x1 PUSH1 0x0 SSTORE PUSH2 0x3D CALLER PUSH2 0x6F JUMP JUMPDEST PUSH1 0x2 DUP1 SLOAD PUSH1 0x1 PUSH1 0x1 PUSH1 0xA0 SHL SUB NOT AND PUSH1 0x1 PUSH1 0x1 PUSH1 0xA0 SHL SUB SWAP6 SWAP1 SWAP6 AND SWAP5 SWAP1 SWAP5 OR SWAP1 SWAP4 SSTORE PUSH1 0x3 SWAP2 SWAP1 SWAP2 SSTORE PUSH1 0x4 SSTORE PUSH1 0x5 SSTORE PUSH2 0x10C JUMP JUMPDEST PUSH1 0x1 DUP1 SLOAD PUSH1 0x1 PUSH1 0x1 PUSH1 0xA0 SHL SUB DUP4 DUP2 AND PUSH1 0x1 PUSH1 0x1 PUSH1 0xA0 SHL SUB NOT DUP4 AND DUP2 OR SWAP1 SWAP4 SSTORE PUSH1 0x40 MLOAD SWAP2 AND SWAP2 SWAP1 DUP3 SWAP1 PUSH32 0x8BE0079C531659141344CD1FD0A4F28419497F9722A3DAAFE3B4186F6B6457E0 SWAP1 PUSH1 0x0 SWAP1 LOG3 POP POP JUMP JUMPDEST PUSH1 0x0 DUP1 PUSH1 0x0 DUP1 PUSH1 0x80 DUP6 DUP8 SUB SLT ISZERO PUSH2 0xD7 JUMPI PUSH1 0x0 DUP1 REVERT JUMPDEST DUP5 MLOAD PUSH1 0x1 PUSH1 0x1 PUSH1 0xA0 SHL SUB DUP2 AND DUP2 EQ PUSH2 0xEE JUMPI PUSH1 0x0 DUP1 REVERT JUMPDEST PUSH1 0x20 DUP7 ADD MLOAD PUSH1 0x40 DUP8 ADD MLOAD PUSH1 0x60 SWAP1 SWAP8 ADD MLOAD SWAP2 SWAP9 SWAP1 SWAP8 POP SWAP1 SWAP5 POP SWAP3 POP POP POP JUMP JUMPDEST PUSH2 0x127A DUP1 PUSH2 0x11B PUSH1 0x0 CODECOPY PUSH1 0x0 RETURN INVALID PUSH1 0x80 PUSH1 0x40 MSTORE PUSH1 0x4 CALLDATASIZE LT PUSH2 0xF3 JUMPI PUSH1 0x0 CALLDATALOAD PUSH1 0xE0 SHR DUP1 PUSH4 0x715018A6 GT PUSH2 0x8A JUMPI DUP1 PUSH4 0x9E7C11A5 GT PUSH2 0x59 JUMPI DUP1 PUSH4 0x9E7C11A5 EQ PUSH2 0x277 JUMPI DUP1 PUSH4 0xCCF99A6E EQ PUSH2 0x28D JUMPI DUP1 PUSH4 0xD3AC1E4A EQ PUSH2 0x2AD JUMPI DUP1 PUSH4 0xF2FDE38B EQ PUSH2 0x2CD JUMPI PUSH1 0x0 DUP1 REVERT JUMPDEST DUP1 PUSH4 0x715018A6 EQ PUSH2 0x20E JUMPI DUP1 PUSH4 0x7719BC7B EQ PUSH2 0x223 JUMPI DUP1 PUSH4 0x89BD3BEB EQ PUSH2 0x243 JUMPI DUP1 PUSH4 0x8DA5CB5B EQ PUSH2 0x259 JUMPI PUSH1 0x0 DUP1 REVERT JUMPDEST DUP1 PUSH4 0x4ABAF07E GT PUSH2 0xC6 JUMPI DUP1 PUSH4 0x4ABAF07E EQ PUSH2 0x180 JUMPI DUP1 PUSH4 0x59F7963D EQ PUSH2 0x196 JUMPI DUP1 PUSH4 0x5D6297C2 EQ PUSH2 0x1B6 JUMPI DUP1 PUSH4 0x69D03738 EQ PUSH2 0x1EE JUMPI PUSH1 0x0 DUP1 REVERT JUMPDEST DUP1 PUSH4 0x136A743C EQ PUSH2 0xF8 JUMPI DUP1 PUSH4 0x1CC88BCD EQ PUSH2 0x11A JUMPI DUP1 PUSH4 0x44ED1FA4 EQ PUSH2 0x13A JUMPI DUP1 PUSH4 0x4A59C50D EQ PUSH2 0x14D JUMPI JUMPDEST PUSH1 0x0 DUP1 REVERT JUMPDEST CALLVALUE DUP1 ISZERO PUSH2 0x104 JUMPI PUSH1 0x0 DUP1 REVERT JUMPDEST POP PUSH2 0x118 PUSH2 0x113 CALLDATASIZE PUSH1 0x4 PUSH2 0xDA2 JUMP JUMPDEST PUSH2 0x2ED JUMP JUMPDEST STOP JUMPDEST CALLVALUE DUP1 ISZERO PUSH2 0x126 JUMPI PUSH1 0x0 DUP1 REVERT JUMPDEST POP PUSH2 0x118 PUSH2 0x135 CALLDATASIZE PUSH1 0x4 PUSH2 0xDA2 JUMP JUMPDEST PUSH2 0x3A3 JUMP JUMPDEST PUSH2 0x118 PUSH2 0x148 CALLDATASIZE PUSH1 0x4 PUSH2 0xEE7 JUMP JUMPDEST PUSH2 0x3FF JUMP JUMPDEST CALLVALUE DUP1 ISZERO PUSH2 0x159 JUMPI PUSH1 0x0 DUP1 REVERT JUMPDEST POP PUSH2 0x16D PUSH2 0x168 CALLDATASIZE PUSH1 0x4 PUSH2 0xEE7 JUMP JUMPDEST PUSH2 0x5E5 JUMP JUMPDEST PUSH1 0x40 MLOAD SWAP1 DUP2 MSTORE PUSH1 0x20 ADD JUMPDEST PUSH1 0x40 MLOAD DUP1 SWAP2 SUB SWAP1 RETURN JUMPDEST CALLVALUE DUP1 ISZERO PUSH2 0x18C JUMPI PUSH1 0x0 DUP1 REVERT JUMPDEST POP PUSH2 0x16D PUSH1 0x3 SLOAD DUP2 JUMP JUMPDEST CALLVALUE DUP1 ISZERO PUSH2 0x1A2 JUMPI PUSH1 0x0 DUP1 REVERT JUMPDEST POP PUSH2 0x118 PUSH2 0x1B1 CALLDATASIZE PUSH1 0x4 PUSH2 0xFB1 JUMP JUMPDEST PUSH2 0x6A7 JUMP JUMPDEST CALLVALUE DUP1 ISZERO PUSH2 0x1C2 JUMPI PUSH1 0x0 DUP1 REVERT JUMPDEST POP PUSH1 0x2 SLOAD PUSH2 0x1D6 SWAP1 PUSH1 0x1 PUSH1 0x1 PUSH1 0xA0 SHL SUB AND DUP2 JUMP JUMPDEST PUSH1 0x40 MLOAD PUSH1 0x1 PUSH1 0x1 PUSH1 0xA0 SHL SUB SWAP1 SWAP2 AND DUP2 MSTORE PUSH1 0x20 ADD PUSH2 0x177 JUMP JUMPDEST CALLVALUE DUP1 ISZERO PUSH2 0x1FA JUMPI PUSH1 0x0 DUP1 REVERT JUMPDEST POP PUSH2 0x118 PUSH2 0x209 CALLDATASIZE PUSH1 0x4 PUSH2 0xFCA JUMP JUMPDEST PUSH2 0x6B4 JUMP JUMPDEST CALLVALUE DUP1 ISZERO PUSH2 0x21A JUMPI PUSH1 0x0 DUP1 REVERT JUMPDEST POP PUSH2 0x118 PUSH2 0x6DE JUMP JUMPDEST CALLVALUE DUP1 ISZERO PUSH2 0x22F JUMPI PUSH1 0x0 DUP1 REVERT JUMPDEST POP PUSH2 0x118 PUSH2 0x23E CALLDATASIZE PUSH1 0x4 PUSH2 0xFFA JUMP JUMPDEST PUSH2 0x6F2 JUMP JUMPDEST CALLVALUE DUP1 ISZERO PUSH2 0x24F JUMPI PUSH1 0x0 DUP1 REVERT JUMPDEST POP PUSH2 0x16D PUSH1 0x5 SLOAD DUP2 JUMP JUMPDEST CALLVALUE DUP1 ISZERO PUSH2 0x265 JUMPI PUSH1 0x0 DUP1 REVERT JUMPDEST POP PUSH1 0x1 SLOAD PUSH1 0x1 PUSH1 0x1 PUSH1 0xA0 SHL SUB AND PUSH2 0x1D6 JUMP JUMPDEST CALLVALUE DUP1 ISZERO PUSH2 0x283 JUMPI PUSH1 0x0 DUP1 REVERT JUMPDEST POP PUSH2 0x16D PUSH1 0x4 SLOAD DUP2 JUMP JUMPDEST CALLVALUE DUP1 ISZERO PUSH2 0x299 JUMPI PUSH1 0x0 DUP1 REVERT JUMPDEST POP PUSH2 0x118 PUSH2 0x2A8 CALLDATASIZE PUSH1 0x4 PUSH2 0xFB1 JUMP JUMPDEST PUSH2 0x80C JUMP JUMPDEST CALLVALUE DUP1 ISZERO PUSH2 0x2B9 JUMPI PUSH1 0x0 DUP1 REVERT JUMPDEST POP PUSH2 0x118 PUSH2 0x2C8 CALLDATASIZE PUSH1 0x4 PUSH2 0xFB1 JUMP JUMPDEST PUSH2 0x819 JUMP JUMPDEST CALLVALUE DUP1 ISZERO PUSH2 0x2D9 JUMPI PUSH1 0x0 DUP1 REVERT JUMPDEST POP PUSH2 0x118 PUSH2 0x2E8 CALLDATASIZE PUSH1 0x4 PUSH2 0xFCA JUMP JUMPDEST PUSH2 0x826 JUMP JUMPDEST PUSH2 0x2F5 PUSH2 0x89F JUMP JUMPDEST DUP2 MLOAD DUP2 MLOAD DUP2 EQ PUSH2 0x320 JUMPI PUSH1 0x40 MLOAD PUSH3 0x461BCD PUSH1 0xE5 SHL DUP2 MSTORE PUSH1 0x4 ADD PUSH2 0x317 SWAP1 PUSH2 0x10BE JUMP JUMPDEST PUSH1 0x40 MLOAD DUP1 SWAP2 SUB SWAP1 REVERT JUMPDEST PUSH1 0x0 JUMPDEST DUP2 DUP2 LT ISZERO PUSH2 0x39D JUMPI PUSH2 0x34F DUP5 DUP3 DUP2 MLOAD DUP2 LT PUSH2 0x340 JUMPI PUSH2 0x340 PUSH2 0x10E6 JUMP JUMPDEST PUSH1 0x20 MUL PUSH1 0x20 ADD ADD MLOAD PUSH1 0x1 PUSH2 0x8F9 JUMP JUMPDEST PUSH2 0x38B DUP5 DUP3 DUP2 MLOAD DUP2 LT PUSH2 0x364 JUMPI PUSH2 0x364 PUSH2 0x10E6 JUMP JUMPDEST PUSH1 0x20 MUL PUSH1 0x20 ADD ADD MLOAD DUP5 DUP4 DUP2 MLOAD DUP2 LT PUSH2 0x37E JUMPI PUSH2 0x37E PUSH2 0x10E6 JUMP JUMPDEST PUSH1 0x20 MUL PUSH1 0x20 ADD ADD MLOAD PUSH2 0x95D JUMP JUMPDEST DUP1 PUSH2 0x395 DUP2 PUSH2 0x1112 JUMP JUMPDEST SWAP2 POP POP PUSH2 0x323 JUMP JUMPDEST POP POP POP POP JUMP JUMPDEST PUSH2 0x3AB PUSH2 0x89F JUMP JUMPDEST DUP2 MLOAD DUP2 MLOAD DUP2 EQ PUSH2 0x3CD JUMPI PUSH1 0x40 MLOAD PUSH3 0x461BCD PUSH1 0xE5 SHL DUP2 MSTORE PUSH1 0x4 ADD PUSH2 0x317 SWAP1 PUSH2 0x10BE JUMP JUMPDEST PUSH1 0x0 JUMPDEST DUP2 DUP2 LT ISZERO PUSH2 0x39D JUMPI PUSH2 0x3ED DUP5 DUP3 DUP2 MLOAD DUP2 LT PUSH2 0x364 JUMPI PUSH2 0x364 PUSH2 0x10E6 JUMP JUMPDEST DUP1 PUSH2 0x3F7 DUP2 PUSH2 0x1112 JUMP JUMPDEST SWAP2 POP POP PUSH2 0x3D0 JUMP JUMPDEST DUP2 MLOAD DUP2 MLOAD DUP2 EQ PUSH2 0x421 JUMPI PUSH1 0x40 MLOAD PUSH3 0x461BCD PUSH1 0xE5 SHL DUP2 MSTORE PUSH1 0x4 ADD PUSH2 0x317 SWAP1 PUSH2 0x10BE JUMP JUMPDEST PUSH1 0x0 PUSH2 0x42D DUP5 DUP5 PUSH2 0x5E5 JUMP JUMPDEST SWAP1 POP DUP1 CALLVALUE EQ PUSH2 0x46C JUMPI PUSH1 0x40 MLOAD PUSH3 0x461BCD PUSH1 0xE5 SHL DUP2 MSTORE PUSH1 0x20 PUSH1 0x4 DUP3 ADD MSTORE PUSH1 0xB PUSH1 0x24 DUP3 ADD MSTORE PUSH11 0x57726F6E672076616C7565 PUSH1 0xA8 SHL PUSH1 0x44 DUP3 ADD MSTORE PUSH1 0x64 ADD PUSH2 0x317 JUMP JUMPDEST PUSH1 0x0 JUMPDEST DUP3 DUP2 LT ISZERO PUSH2 0x5DE JUMPI PUSH1 0x0 DUP6 DUP3 DUP2 MLOAD DUP2 LT PUSH2 0x48B JUMPI PUSH2 0x48B PUSH2 0x10E6 JUMP JUMPDEST PUSH1 0x20 MUL PUSH1 0x20 ADD ADD MLOAD MLOAD SWAP1 POP DUP5 DUP3 DUP2 MLOAD DUP2 LT PUSH2 0x4A8 JUMPI PUSH2 0x4A8 PUSH2 0x10E6 JUMP JUMPDEST PUSH1 0x20 MUL PUSH1 0x20 ADD ADD MLOAD MLOAD DUP2 EQ PUSH2 0x4CF JUMPI PUSH1 0x40 MLOAD PUSH3 0x461BCD PUSH1 0xE5 SHL DUP2 MSTORE PUSH1 0x4 ADD PUSH2 0x317 SWAP1 PUSH2 0x10BE JUMP JUMPDEST PUSH1 0x0 JUMPDEST DUP2 DUP2 LT ISZERO PUSH2 0x58E JUMPI PUSH1 0x6 PUSH1 0x0 DUP9 DUP6 DUP2 MLOAD DUP2 LT PUSH2 0x4F0 JUMPI PUSH2 0x4F0 PUSH2 0x10E6 JUMP JUMPDEST PUSH1 0x20 MUL PUSH1 0x20 ADD ADD MLOAD DUP4 DUP2 MLOAD DUP2 LT PUSH2 0x509 JUMPI PUSH2 0x509 PUSH2 0x10E6 JUMP JUMPDEST PUSH1 0x20 SWAP1 DUP2 MUL SWAP2 SWAP1 SWAP2 ADD DUP2 ADD MLOAD PUSH1 0x1 PUSH1 0x1 PUSH1 0xA0 SHL SUB AND DUP3 MSTORE DUP2 ADD SWAP2 SWAP1 SWAP2 MSTORE PUSH1 0x40 ADD PUSH1 0x0 KECCAK256 SLOAD PUSH1 0xFF AND PUSH2 0x57C JUMPI PUSH1 0x40 MLOAD PUSH3 0x461BCD PUSH1 0xE5 SHL DUP2 MSTORE PUSH1 0x20 PUSH1 0x4 DUP3 ADD MSTORE PUSH1 0x1C PUSH1 0x24 DUP3 ADD MSTORE PUSH32 0x4E465420686173206E6F74206265656E2077686974656C697374656400000000 PUSH1 0x44 DUP3 ADD MSTORE PUSH1 0x64 ADD PUSH2 0x317 JUMP JUMPDEST DUP1 PUSH2 0x586 DUP2 PUSH2 0x1112 JUMP JUMPDEST SWAP2 POP POP PUSH2 0x4D2 JUMP JUMPDEST POP PUSH2 0x5CB DUP7 DUP4 DUP2 MLOAD DUP2 LT PUSH2 0x5A4 JUMPI PUSH2 0x5A4 PUSH2 0x10E6 JUMP JUMPDEST PUSH1 0x20 MUL PUSH1 0x20 ADD ADD MLOAD DUP7 DUP5 DUP2 MLOAD DUP2 LT PUSH2 0x5BE JUMPI PUSH2 0x5BE PUSH2 0x10E6 JUMP JUMPDEST PUSH1 0x20 MUL PUSH1 0x20 ADD ADD MLOAD PUSH2 0x9C1 JUMP JUMPDEST POP DUP1 PUSH2 0x5D6 DUP2 PUSH2 0x1112 JUMP JUMPDEST SWAP2 POP POP PUSH2 0x46F JUMP JUMPDEST POP POP POP POP POP JUMP JUMPDEST DUP2 MLOAD DUP2 MLOAD PUSH1 0x0 SWAP2 SWAP1 DUP2 EQ PUSH2 0x60B JUMPI PUSH1 0x40 MLOAD PUSH3 0x461BCD PUSH1 0xE5 SHL DUP2 MSTORE PUSH1 0x4 ADD PUSH2 0x317 SWAP1 PUSH2 0x10BE JUMP JUMPDEST PUSH1 0x0 DUP1 JUMPDEST DUP3 DUP2 LT ISZERO PUSH2 0x651 JUMPI DUP6 DUP2 DUP2 MLOAD DUP2 LT PUSH2 0x629 JUMPI PUSH2 0x629 PUSH2 0x10E6 JUMP JUMPDEST PUSH1 0x20 MUL PUSH1 0x20 ADD ADD MLOAD MLOAD DUP3 PUSH2 0x63D SWAP2 SWAP1 PUSH2 0x112D JUMP JUMPDEST SWAP2 POP DUP1 PUSH2 0x649 DUP2 PUSH2 0x1112 JUMP JUMPDEST SWAP2 POP POP PUSH2 0x60F JUMP JUMPDEST POP PUSH1 0x3 SLOAD PUSH2 0x2710 PUSH1 0x5 SLOAD PUSH1 0x4 SLOAD DUP6 PUSH2 0x669 SWAP2 SWAP1 PUSH2 0x1145 JUMP JUMPDEST PUSH2 0x673 SWAP2 SWAP1 PUSH2 0x1145 JUMP JUMPDEST PUSH2 0x67D SWAP2 SWAP1 PUSH2 0x1164 JUMP JUMPDEST PUSH1 0x4 SLOAD PUSH2 0x68A SWAP1 DUP6 PUSH2 0x1145 JUMP JUMPDEST PUSH2 0x694 SWAP2 SWAP1 PUSH2 0x112D JUMP JUMPDEST PUSH2 0x69E SWAP2 SWAP1 PUSH2 0x112D JUMP JUMPDEST SWAP6 SWAP5 POP POP POP POP POP JUMP JUMPDEST PUSH2 0x6AF PUSH2 0x89F JUMP JUMPDEST PUSH1 0x4 SSTORE JUMP JUMPDEST PUSH2 0x6BC PUSH2 0x89F JUMP JUMPDEST PUSH1 0x2 DUP1 SLOAD PUSH1 0x1 PUSH1 0x1 PUSH1 0xA0 SHL SUB NOT AND PUSH1 0x1 PUSH1 0x1 PUSH1 0xA0 SHL SUB SWAP3 SWAP1 SWAP3 AND SWAP2 SWAP1 SWAP2 OR SWAP1 SSTORE JUMP JUMPDEST PUSH2 0x6E6 PUSH2 0x89F JUMP JUMPDEST PUSH2 0x6F0 PUSH1 0x0 PUSH2 0xBA2 JUMP JUMPDEST JUMP JUMPDEST PUSH2 0x6FA PUSH2 0x89F JUMP JUMPDEST DUP2 MLOAD DUP2 MLOAD DUP2 EQ PUSH2 0x71C JUMPI PUSH1 0x40 MLOAD PUSH3 0x461BCD PUSH1 0xE5 SHL DUP2 MSTORE PUSH1 0x4 ADD PUSH2 0x317 SWAP1 PUSH2 0x10BE JUMP JUMPDEST PUSH1 0x0 JUMPDEST DUP2 DUP2 LT ISZERO PUSH2 0x39D JUMPI PUSH1 0x0 PUSH1 0x1 PUSH1 0x1 PUSH1 0xA0 SHL SUB AND PUSH1 0x7 PUSH1 0x0 DUP7 DUP5 DUP2 MLOAD DUP2 LT PUSH2 0x748 JUMPI PUSH2 0x748 PUSH2 0x10E6 JUMP JUMPDEST PUSH1 0x20 SWAP1 DUP2 MUL SWAP2 SWAP1 SWAP2 ADD DUP2 ADD MLOAD PUSH1 0x1 PUSH1 0x1 PUSH1 0xA0 SHL SUB SWAP1 DUP2 AND DUP4 MSTORE SWAP1 DUP3 ADD SWAP3 SWAP1 SWAP3 MSTORE PUSH1 0x40 ADD PUSH1 0x0 KECCAK256 SLOAD AND EQ ISZERO PUSH2 0x7BE JUMPI PUSH1 0x40 MLOAD PUSH3 0x461BCD PUSH1 0xE5 SHL DUP2 MSTORE PUSH1 0x20 PUSH1 0x4 DUP3 ADD MSTORE PUSH1 0x1A PUSH1 0x24 DUP3 ADD MSTORE PUSH32 0x4E4654204F776E657220686173206E6F74206265656E20736574000000000000 PUSH1 0x44 DUP3 ADD MSTORE PUSH1 0x64 ADD PUSH2 0x317 JUMP JUMPDEST PUSH2 0x7FA DUP5 DUP3 DUP2 MLOAD DUP2 LT PUSH2 0x7D3 JUMPI PUSH2 0x7D3 PUSH2 0x10E6 JUMP JUMPDEST PUSH1 0x20 MUL PUSH1 0x20 ADD ADD MLOAD DUP5 DUP4 DUP2 MLOAD DUP2 LT PUSH2 0x7ED JUMPI PUSH2 0x7ED PUSH2 0x10E6 JUMP JUMPDEST PUSH1 0x20 MUL PUSH1 0x20 ADD ADD MLOAD PUSH2 0x8F9 JUMP JUMPDEST DUP1 PUSH2 0x804 DUP2 PUSH2 0x1112 JUMP JUMPDEST SWAP2 POP POP PUSH2 0x71F JUMP JUMPDEST PUSH2 0x814 PUSH2 0x89F JUMP JUMPDEST PUSH1 0x5 SSTORE JUMP JUMPDEST PUSH2 0x821 PUSH2 0x89F JUMP JUMPDEST PUSH1 0x3 SSTORE JUMP JUMPDEST PUSH2 0x82E PUSH2 0x89F JUMP JUMPDEST PUSH1 0x1 PUSH1 0x1 PUSH1 0xA0 SHL SUB DUP2 AND PUSH2 0x893 JUMPI PUSH1 0x40 MLOAD PUSH3 0x461BCD PUSH1 0xE5 SHL DUP2 MSTORE PUSH1 0x20 PUSH1 0x4 DUP3 ADD MSTORE PUSH1 0x26 PUSH1 0x24 DUP3 ADD MSTORE PUSH32 0x4F776E61626C653A206E6577206F776E657220697320746865207A65726F2061 PUSH1 0x44 DUP3 ADD MSTORE PUSH6 0x646472657373 PUSH1 0xD0 SHL PUSH1 0x64 DUP3 ADD MSTORE PUSH1 0x84 ADD PUSH2 0x317 JUMP JUMPDEST PUSH2 0x89C DUP2 PUSH2 0xBA2 JUMP JUMPDEST POP JUMP JUMPDEST PUSH1 0x1 SLOAD PUSH1 0x1 PUSH1 0x1 PUSH1 0xA0 SHL SUB AND CALLER EQ PUSH2 0x6F0 JUMPI PUSH1 0x40 MLOAD PUSH3 0x461BCD PUSH1 0xE5 SHL DUP2 MSTORE PUSH1 0x20 PUSH1 0x4 DUP3 ADD DUP2 SWAP1 MSTORE PUSH1 0x24 DUP3 ADD MSTORE PUSH32 0x4F776E61626C653A2063616C6C6572206973206E6F7420746865206F776E6572 PUSH1 0x44 DUP3 ADD MSTORE PUSH1 0x64 ADD PUSH2 0x317 JUMP JUMPDEST PUSH1 0x1 PUSH1 0x1 PUSH1 0xA0 SHL SUB DUP3 AND PUSH1 0x0 DUP2 DUP2 MSTORE PUSH1 0x6 PUSH1 0x20 SWAP1 DUP2 MSTORE PUSH1 0x40 SWAP2 DUP3 SWAP1 KECCAK256 DUP1 SLOAD PUSH1 0xFF NOT AND DUP6 ISZERO ISZERO SWAP1 DUP2 OR SWAP1 SWAP2 SSTORE DUP3 MLOAD SWAP4 DUP5 MSTORE SWAP1 DUP4 ADD MSTORE PUSH32 0x990ECD0DEF76EFF86D5A91A08DBFB0F33A9C9E1873684A516A93CCF3F70A3256 SWAP2 ADD JUMPDEST PUSH1 0x40 MLOAD DUP1 SWAP2 SUB SWAP1 LOG1 POP POP JUMP JUMPDEST PUSH1 0x1 PUSH1 0x1 PUSH1 0xA0 SHL SUB DUP3 DUP2 AND PUSH1 0x0 DUP2 DUP2 MSTORE PUSH1 0x7 PUSH1 0x20 SWAP1 DUP2 MSTORE PUSH1 0x40 SWAP2 DUP3 SWAP1 KECCAK256 DUP1 SLOAD PUSH1 0x1 PUSH1 0x1 PUSH1 0xA0 SHL SUB NOT AND SWAP5 DUP7 AND SWAP5 DUP6 OR SWAP1 SSTORE DUP2 MLOAD SWAP3 DUP4 MSTORE DUP3 ADD SWAP3 SWAP1 SWAP3 MSTORE PUSH32 0x970C3F5F7F64FBD82C31E769D06A9A152177702A2EF86B0018D6E8EA1C97CF29 SWAP2 ADD PUSH2 0x951 JUMP JUMPDEST PUSH1 0x40 DUP1 MLOAD PUSH1 0x80 DUP2 ADD DUP3 MSTORE DUP4 DUP2 MSTORE PUSH1 0x20 DUP2 ADD DUP4 SWAP1 MSTORE CALLER DUP2 DUP4 ADD DUP2 SWAP1 MSTORE PUSH1 0x8 SLOAD PUSH1 0x60 DUP4 ADD DUP2 SWAP1 MSTORE PUSH1 0x2 SLOAD SWAP4 MLOAD PUSH4 0x28512065 PUSH1 0xE2 SHL DUP2 MSTORE PUSH1 0x4 DUP2 ADD SWAP3 SWAP1 SWAP3 MSTORE PUSH1 0x24 DUP3 ADD MSTORE SWAP1 SWAP2 PUSH1 0x0 SWAP2 PUSH1 0x1 PUSH1 0x1 PUSH1 0xA0 SHL SUB SWAP1 SWAP2 AND SWAP1 PUSH4 0xA1448194 SWAP1 PUSH1 0x44 ADD PUSH1 0x20 PUSH1 0x40 MLOAD DUP1 DUP4 SUB DUP2 PUSH1 0x0 DUP8 DUP1 EXTCODESIZE ISZERO DUP1 ISZERO PUSH2 0xA36 JUMPI PUSH1 0x0 DUP1 REVERT JUMPDEST POP GAS CALL ISZERO DUP1 ISZERO PUSH2 0xA4A JUMPI RETURNDATASIZE PUSH1 0x0 DUP1 RETURNDATACOPY RETURNDATASIZE PUSH1 0x0 REVERT JUMPDEST POP POP POP POP PUSH1 0x40 MLOAD RETURNDATASIZE PUSH1 0x1F NOT PUSH1 0x1F DUP3 ADD AND DUP3 ADD DUP1 PUSH1 0x40 MSTORE POP DUP2 ADD SWAP1 PUSH2 0xA6E SWAP2 SWAP1 PUSH2 0x1186 JUMP JUMPDEST SWAP1 POP DUP1 PUSH2 0xAB2 JUMPI PUSH1 0x40 MLOAD PUSH3 0x461BCD PUSH1 0xE5 SHL DUP2 MSTORE PUSH1 0x20 PUSH1 0x4 DUP3 ADD MSTORE PUSH1 0x12 PUSH1 0x24 DUP3 ADD MSTORE PUSH18 0x11985A5B1959081D1BC81B5A5B9D08139195 PUSH1 0x72 SHL PUSH1 0x44 DUP3 ADD MSTORE PUSH1 0x64 ADD PUSH2 0x317 JUMP JUMPDEST PUSH1 0x8 SLOAD PUSH1 0x0 SWAP1 DUP2 MSTORE PUSH1 0x9 PUSH1 0x20 SWAP1 DUP2 MSTORE PUSH1 0x40 SWAP1 SWAP2 KECCAK256 DUP4 MLOAD DUP1 MLOAD DUP6 SWAP4 PUSH2 0xADA SWAP3 DUP5 SWAP3 SWAP2 ADD SWAP1 PUSH2 0xBF4 JUMP JUMPDEST POP PUSH1 0x20 DUP3 DUP2 ADD MLOAD DUP1 MLOAD PUSH2 0xAF3 SWAP3 PUSH1 0x1 DUP6 ADD SWAP3 ADD SWAP1 PUSH2 0xC59 JUMP JUMPDEST POP PUSH1 0x40 DUP3 DUP2 ADD MLOAD PUSH1 0x2 DUP4 ADD DUP1 SLOAD PUSH1 0x1 PUSH1 0x1 PUSH1 0xA0 SHL SUB NOT AND PUSH1 0x1 PUSH1 0x1 PUSH1 0xA0 SHL SUB SWAP1 SWAP3 AND SWAP2 SWAP1 SWAP2 OR SWAP1 SSTORE PUSH1 0x60 SWAP1 SWAP3 ADD MLOAD PUSH1 0x3 SWAP1 SWAP2 ADD SSTORE CALLER PUSH1 0x0 DUP2 DUP2 MSTORE PUSH1 0xA PUSH1 0x20 SWAP1 DUP2 MSTORE DUP4 DUP3 KECCAK256 PUSH1 0x8 DUP1 SLOAD DUP3 SLOAD PUSH1 0x1 DUP2 ADD DUP5 SSTORE SWAP3 DUP6 MSTORE SWAP3 SWAP1 SWAP4 KECCAK256 ADD SSTORE SLOAD SWAP2 MLOAD PUSH32 0x206BA06C561797DA5D0262FC18D44D194C8CC1988E613C7C96F3DF8F8F330A37 SWAP3 PUSH2 0xB7F SWAP3 DUP9 SWAP3 DUP9 SWAP3 SWAP1 PUSH2 0x11A3 JUMP JUMPDEST PUSH1 0x40 MLOAD DUP1 SWAP2 SUB SWAP1 LOG1 PUSH1 0x8 DUP1 SLOAD SWAP1 PUSH1 0x0 PUSH2 0xB97 DUP4 PUSH2 0x1112 JUMP JUMPDEST SWAP2 SWAP1 POP SSTORE POP POP POP POP POP JUMP JUMPDEST PUSH1 0x1 DUP1 SLOAD PUSH1 0x1 PUSH1 0x1 PUSH1 0xA0 SHL SUB DUP4 DUP2 AND PUSH1 0x1 PUSH1 0x1 PUSH1 0xA0 SHL SUB NOT DUP4 AND DUP2 OR SWAP1 SWAP4 SSTORE PUSH1 0x40 MLOAD SWAP2 AND SWAP2 SWAP1 DUP3 SWAP1 PUSH32 0x8BE0079C531659141344CD1FD0A4F28419497F9722A3DAAFE3B4186F6B6457E0 SWAP1 PUSH1 0x0 SWAP1 LOG3 POP POP JUMP JUMPDEST DUP3 DUP1 SLOAD DUP3 DUP3 SSTORE SWAP1 PUSH1 0x0 MSTORE PUSH1 0x20 PUSH1 0x0 KECCAK256 SWAP1 DUP2 ADD SWAP3 DUP3 ISZERO PUSH2 0xC49 JUMPI SWAP2 PUSH1 0x20 MUL DUP3 ADD JUMPDEST DUP3 DUP2 GT ISZERO PUSH2 0xC49 JUMPI DUP3 MLOAD DUP3 SLOAD PUSH1 0x1 PUSH1 0x1 PUSH1 0xA0 SHL SUB NOT AND PUSH1 0x1 PUSH1 0x1 PUSH1 0xA0 SHL SUB SWAP1 SWAP2 AND OR DUP3 SSTORE PUSH1 0x20 SWAP1 SWAP3 ADD SWAP2 PUSH1 0x1 SWAP1 SWAP2 ADD SWAP1 PUSH2 0xC14 JUMP JUMPDEST POP PUSH2 0xC55 SWAP3 SWAP2 POP PUSH2 0xC94 JUMP JUMPDEST POP SWAP1 JUMP JUMPDEST DUP3 DUP1 SLOAD DUP3 DUP3 SSTORE SWAP1 PUSH1 0x0 MSTORE PUSH1 0x20 PUSH1 0x0 KECCAK256 SWAP1 DUP2 ADD SWAP3 DUP3 ISZERO PUSH2 0xC49 JUMPI SWAP2 PUSH1 0x20 MUL DUP3 ADD JUMPDEST DUP3 DUP2 GT ISZERO PUSH2 0xC49 JUMPI DUP3 MLOAD DUP3 SSTORE SWAP2 PUSH1 0x20 ADD SWAP2 SWAP1 PUSH1 0x1 ADD SWAP1 PUSH2 0xC79 JUMP JUMPDEST JUMPDEST DUP1 DUP3 GT ISZERO PUSH2 0xC55 JUMPI PUSH1 0x0 DUP2 SSTORE PUSH1 0x1 ADD PUSH2 0xC95 JUMP JUMPDEST PUSH4 0x4E487B71 PUSH1 0xE0 SHL PUSH1 0x0 MSTORE PUSH1 0x41 PUSH1 0x4 MSTORE PUSH1 0x24 PUSH1 0x0 REVERT JUMPDEST PUSH1 0x40 MLOAD PUSH1 0x1F DUP3 ADD PUSH1 0x1F NOT AND DUP2 ADD PUSH8 0xFFFFFFFFFFFFFFFF DUP2 GT DUP3 DUP3 LT OR ISZERO PUSH2 0xCE8 JUMPI PUSH2 0xCE8 PUSH2 0xCA9 JUMP JUMPDEST PUSH1 0x40 MSTORE SWAP2 SWAP1 POP JUMP JUMPDEST PUSH1 0x0 PUSH8 0xFFFFFFFFFFFFFFFF DUP3 GT ISZERO PUSH2 0xD0A JUMPI PUSH2 0xD0A PUSH2 0xCA9 JUMP JUMPDEST POP PUSH1 0x5 SHL PUSH1 0x20 ADD SWAP1 JUMP JUMPDEST DUP1 CALLDATALOAD PUSH1 0x1 PUSH1 0x1 PUSH1 0xA0 SHL SUB DUP2 AND DUP2 EQ PUSH2 0xD2B JUMPI PUSH1 0x0 DUP1 REVERT JUMPDEST SWAP2 SWAP1 POP JUMP JUMPDEST PUSH1 0x0 DUP3 PUSH1 0x1F DUP4 ADD SLT PUSH2 0xD41 JUMPI PUSH1 0x0 DUP1 REVERT JUMPDEST DUP2 CALLDATALOAD PUSH1 0x20 PUSH2 0xD56 PUSH2 0xD51 DUP4 PUSH2 0xCF0 JUMP JUMPDEST PUSH2 0xCBF JUMP JUMPDEST DUP3 DUP2 MSTORE PUSH1 0x5 SWAP3 SWAP1 SWAP3 SHL DUP5 ADD DUP2 ADD SWAP2 DUP2 DUP2 ADD SWAP1 DUP7 DUP5 GT ISZERO PUSH2 0xD75 JUMPI PUSH1 0x0 DUP1 REVERT JUMPDEST DUP3 DUP7 ADD JUMPDEST DUP5 DUP2 LT ISZERO PUSH2 0xD97 JUMPI PUSH2 0xD8A DUP2 PUSH2 0xD14 JUMP JUMPDEST DUP4 MSTORE SWAP2 DUP4 ADD SWAP2 DUP4 ADD PUSH2 0xD79 JUMP JUMPDEST POP SWAP7 SWAP6 POP POP POP POP POP POP JUMP JUMPDEST PUSH1 0x0 DUP1 PUSH1 0x40 DUP4 DUP6 SUB SLT ISZERO PUSH2 0xDB5 JUMPI PUSH1 0x0 DUP1 REVERT JUMPDEST DUP3 CALLDATALOAD PUSH8 0xFFFFFFFFFFFFFFFF DUP1 DUP3 GT ISZERO PUSH2 0xDCD JUMPI PUSH1 0x0 DUP1 REVERT JUMPDEST PUSH2 0xDD9 DUP7 DUP4 DUP8 ADD PUSH2 0xD30 JUMP JUMPDEST SWAP4 POP PUSH1 0x20 DUP6 ADD CALLDATALOAD SWAP2 POP DUP1 DUP3 GT ISZERO PUSH2 0xDEF JUMPI PUSH1 0x0 DUP1 REVERT JUMPDEST POP PUSH2 0xDFC DUP6 DUP3 DUP7 ADD PUSH2 0xD30 JUMP JUMPDEST SWAP2 POP POP SWAP3 POP SWAP3 SWAP1 POP JUMP JUMPDEST PUSH1 0x0 DUP3 PUSH1 0x1F DUP4 ADD SLT PUSH2 0xE17 JUMPI PUSH1 0x0 DUP1 REVERT JUMPDEST DUP2 CALLDATALOAD PUSH1 0x20 PUSH2 0xE27 PUSH2 0xD51 DUP4 PUSH2 0xCF0 JUMP JUMPDEST DUP3 DUP2 MSTORE PUSH1 0x5 SWAP3 DUP4 SHL DUP6 ADD DUP3 ADD SWAP3 DUP3 DUP3 ADD SWAP2 SWAP1 DUP8 DUP6 GT ISZERO PUSH2 0xE46 JUMPI PUSH1 0x0 DUP1 REVERT JUMPDEST DUP4 DUP8 ADD JUMPDEST DUP6 DUP2 LT ISZERO PUSH2 0xEDA JUMPI DUP1 CALLDATALOAD PUSH8 0xFFFFFFFFFFFFFFFF DUP2 GT ISZERO PUSH2 0xE6A JUMPI PUSH1 0x0 DUP1 DUP2 REVERT JUMPDEST DUP9 ADD PUSH1 0x3F DUP2 ADD DUP11 SGT PUSH2 0xE7C JUMPI PUSH1 0x0 DUP1 DUP2 REVERT JUMPDEST DUP6 DUP2 ADD CALLDATALOAD PUSH1 0x40 PUSH2 0xE8E PUSH2 0xD51 DUP4 PUSH2 0xCF0 JUMP JUMPDEST DUP3 DUP2 MSTORE SWAP2 DUP6 SHL DUP4 ADD DUP2 ADD SWAP2 DUP9 DUP2 ADD SWAP1 DUP14 DUP5 GT ISZERO PUSH2 0xEAB JUMPI PUSH1 0x0 DUP1 DUP2 REVERT JUMPDEST SWAP4 DUP3 ADD SWAP4 JUMPDEST DUP4 DUP6 LT ISZERO PUSH2 0xEC9 JUMPI DUP5 CALLDATALOAD DUP3 MSTORE SWAP4 DUP10 ADD SWAP4 SWAP1 DUP10 ADD SWAP1 PUSH2 0xEB0 JUMP JUMPDEST DUP9 MSTORE POP POP POP SWAP4 DUP6 ADD SWAP4 POP DUP5 ADD PUSH2 0xE4A JUMP JUMPDEST POP SWAP1 SWAP8 SWAP7 POP POP POP POP POP POP POP JUMP JUMPDEST PUSH1 0x0 DUP1 PUSH1 0x40 DUP4 DUP6 SUB SLT ISZERO PUSH2 0xEFA JUMPI PUSH1 0x0 DUP1 REVERT JUMPDEST DUP3 CALLDATALOAD PUSH8 0xFFFFFFFFFFFFFFFF DUP1 DUP3 GT ISZERO PUSH2 0xF12 JUMPI PUSH1 0x0 DUP1 REVERT JUMPDEST DUP2 DUP6 ADD SWAP2 POP DUP6 PUSH1 0x1F DUP4 ADD SLT PUSH2 0xF26 JUMPI PUSH1 0x0 DUP1 REVERT JUMPDEST DUP2 CALLDATALOAD PUSH1 0x20 PUSH2 0xF36 PUSH2 0xD51 DUP4 PUSH2 0xCF0 JUMP JUMPDEST DUP3 DUP2 MSTORE PUSH1 0x5 SWAP3 SWAP1 SWAP3 SHL DUP5 ADD DUP2 ADD SWAP2 DUP2 DUP2 ADD SWAP1 DUP10 DUP5 GT ISZERO PUSH2 0xF55 JUMPI PUSH1 0x0 DUP1 REVERT JUMPDEST DUP3 DUP7 ADD JUMPDEST DUP5 DUP2 LT ISZERO PUSH2 0xF8D JUMPI DUP1 CALLDATALOAD DUP7 DUP2 GT ISZERO PUSH2 0xF71 JUMPI PUSH1 0x0 DUP1 DUP2 REVERT JUMPDEST PUSH2 0xF7F DUP13 DUP7 DUP4 DUP12 ADD ADD PUSH2 0xD30 JUMP JUMPDEST DUP5 MSTORE POP SWAP2 DUP4 ADD SWAP2 DUP4 ADD PUSH2 0xF59 JUMP JUMPDEST POP SWAP7 POP POP DUP7 ADD CALLDATALOAD SWAP3 POP POP DUP1 DUP3 GT ISZERO PUSH2 0xFA4 JUMPI PUSH1 0x0 DUP1 REVERT JUMPDEST POP PUSH2 0xDFC DUP6 DUP3 DUP7 ADD PUSH2 0xE06 JUMP JUMPDEST PUSH1 0x0 PUSH1 0x20 DUP3 DUP5 SUB SLT ISZERO PUSH2 0xFC3 JUMPI PUSH1 0x0 DUP1 REVERT JUMPDEST POP CALLDATALOAD SWAP2 SWAP1 POP JUMP JUMPDEST PUSH1 0x0 PUSH1 0x20 DUP3 DUP5 SUB SLT ISZERO PUSH2 0xFDC JUMPI PUSH1 0x0 DUP1 REVERT JUMPDEST PUSH2 0xFE5 DUP3 PUSH2 0xD14 JUMP JUMPDEST SWAP4 SWAP3 POP POP POP JUMP JUMPDEST DUP1 ISZERO ISZERO DUP2 EQ PUSH2 0x89C JUMPI PUSH1 0x0 DUP1 REVERT JUMPDEST PUSH1 0x0 DUP1 PUSH1 0x40 DUP4 DUP6 SUB SLT ISZERO PUSH2 0x100D JUMPI PUSH1 0x0 DUP1 REVERT JUMPDEST DUP3 CALLDATALOAD PUSH8 0xFFFFFFFFFFFFFFFF DUP1 DUP3 GT ISZERO PUSH2 0x1025 JUMPI PUSH1 0x0 DUP1 REVERT JUMPDEST PUSH2 0x1031 DUP7 DUP4 DUP8 ADD PUSH2 0xD30 JUMP JUMPDEST SWAP4 POP PUSH1 0x20 SWAP2 POP DUP2 DUP6 ADD CALLDATALOAD DUP2 DUP2 GT ISZERO PUSH2 0x1048 JUMPI PUSH1 0x0 DUP1 REVERT JUMPDEST DUP6 ADD SWAP1 POP PUSH1 0x1F DUP2 ADD DUP7 SGT PUSH2 0x105B JUMPI PUSH1 0x0 DUP1 REVERT JUMPDEST DUP1 CALLDATALOAD PUSH2 0x1069 PUSH2 0xD51 DUP3 PUSH2 0xCF0 JUMP JUMPDEST DUP2 DUP2 MSTORE PUSH1 0x5 SWAP2 SWAP1 SWAP2 SHL DUP3 ADD DUP4 ADD SWAP1 DUP4 DUP2 ADD SWAP1 DUP9 DUP4 GT ISZERO PUSH2 0x1088 JUMPI PUSH1 0x0 DUP1 REVERT JUMPDEST SWAP3 DUP5 ADD SWAP3 JUMPDEST DUP3 DUP5 LT ISZERO PUSH2 0x10AF JUMPI DUP4 CALLDATALOAD PUSH2 0x10A0 DUP2 PUSH2 0xFEC JUMP JUMPDEST DUP3 MSTORE SWAP3 DUP5 ADD SWAP3 SWAP1 DUP5 ADD SWAP1 PUSH2 0x108D JUMP JUMPDEST DUP1 SWAP6 POP POP POP POP POP POP SWAP3 POP SWAP3 SWAP1 POP JUMP JUMPDEST PUSH1 0x20 DUP1 DUP3 MSTORE PUSH1 0xE SWAP1 DUP3 ADD MSTORE PUSH14 0x92DCECC2D8D2C840D8CADCCEE8D PUSH1 0x93 SHL PUSH1 0x40 DUP3 ADD MSTORE PUSH1 0x60 ADD SWAP1 JUMP JUMPDEST PUSH4 0x4E487B71 PUSH1 0xE0 SHL PUSH1 0x0 MSTORE PUSH1 0x32 PUSH1 0x4 MSTORE PUSH1 0x24 PUSH1 0x0 REVERT JUMPDEST PUSH4 0x4E487B71 PUSH1 0xE0 SHL PUSH1 0x0 MSTORE PUSH1 0x11 PUSH1 0x4 MSTORE PUSH1 0x24 PUSH1 0x0 REVERT JUMPDEST PUSH1 0x0 PUSH1 0x0 NOT DUP3 EQ ISZERO PUSH2 0x1126 JUMPI PUSH2 0x1126 PUSH2 0x10FC JUMP JUMPDEST POP PUSH1 0x1 ADD SWAP1 JUMP JUMPDEST PUSH1 0x0 DUP3 NOT DUP3 GT ISZERO PUSH2 0x1140 JUMPI PUSH2 0x1140 PUSH2 0x10FC JUMP JUMPDEST POP ADD SWAP1 JUMP JUMPDEST PUSH1 0x0 DUP2 PUSH1 0x0 NOT DIV DUP4 GT DUP3 ISZERO ISZERO AND ISZERO PUSH2 0x115F JUMPI PUSH2 0x115F PUSH2 0x10FC JUMP JUMPDEST POP MUL SWAP1 JUMP JUMPDEST PUSH1 0x0 DUP3 PUSH2 0x1181 JUMPI PUSH4 0x4E487B71 PUSH1 0xE0 SHL PUSH1 0x0 MSTORE PUSH1 0x12 PUSH1 0x4 MSTORE PUSH1 0x24 PUSH1 0x0 REVERT JUMPDEST POP DIV SWAP1 JUMP JUMPDEST PUSH1 0x0 PUSH1 0x20 DUP3 DUP5 SUB SLT ISZERO PUSH2 0x1198 JUMPI PUSH1 0x0 DUP1 REVERT JUMPDEST DUP2 MLOAD PUSH2 0xFE5 DUP2 PUSH2 0xFEC JUMP JUMPDEST PUSH1 0x80 DUP1 DUP3 MSTORE DUP6 MLOAD SWAP1 DUP3 ADD DUP2 SWAP1 MSTORE PUSH1 0x0 SWAP1 PUSH1 0x20 SWAP1 PUSH1 0xA0 DUP5 ADD SWAP1 DUP3 DUP10 ADD DUP5 JUMPDEST DUP3 DUP2 LT ISZERO PUSH2 0x11E5 JUMPI DUP2 MLOAD PUSH1 0x1 PUSH1 0x1 PUSH1 0xA0 SHL SUB AND DUP5 MSTORE SWAP3 DUP5 ADD SWAP3 SWAP1 DUP5 ADD SWAP1 PUSH1 0x1 ADD PUSH2 0x11C0 JUMP JUMPDEST POP POP POP DUP4 DUP2 SUB DUP3 DUP6 ADD MSTORE DUP7 MLOAD DUP1 DUP3 MSTORE DUP8 DUP4 ADD SWAP2 DUP4 ADD SWAP1 PUSH1 0x0 JUMPDEST DUP2 DUP2 LT ISZERO PUSH2 0x121A JUMPI DUP4 MLOAD DUP4 MSTORE SWAP3 DUP5 ADD SWAP3 SWAP2 DUP5 ADD SWAP2 PUSH1 0x1 ADD PUSH2 0x11FE JUMP JUMPDEST POP POP PUSH1 0x1 PUSH1 0x1 PUSH1 0xA0 SHL SUB DUP8 AND PUSH1 0x40 DUP7 ADD MSTORE SWAP3 POP PUSH2 0x1235 SWAP2 POP POP JUMP JUMPDEST DUP3 PUSH1 0x60 DUP4 ADD MSTORE SWAP6 SWAP5 POP POP POP POP POP JUMP INVALID LOG2 PUSH5 0x6970667358 0x22 SLT KECCAK256 DUP14 LOG3 0x1E PUSH14 0xDDC80EAB9AAD2FE2B221AA5FD67B 0xEA 0x4F CALLER SUB 0x23 PUSH5 0xCCE2F7D1C1 0xCF DUP8 0xEF PUSH5 0x736F6C6343 STOP ADDMOD MULMOD STOP CALLER "},"methodIdentifiers":{"buyShirt(address[][],uint256[][])":"44ed1fa4","changeNFTWhitelistStatus(address[],bool[])":"7719bc7b","eachShirtFee()":"9e7c11a5","estimateCost(address[][],uint256[][])":"4a59c50d","owner()":"8da5cb5b","percentRoyaltyFee()":"89bd3beb","renounceOwnership()":"715018a6","setEachShirtFee(uint256)":"59f7963d","setNFTAddress(address)":"69d03738","setNFTOwner(address[],address[])":"1cc88bcd","setPercentRoyaltyFee(uint256)":"ccf99a6e","setShippingFee(uint256)":"d3ac1e4a","shippingFee()":"4abaf07e","shirtNFTAddress()":"5d6297c2","transferOwnership(address)":"f2fde38b","whitelistNFT(address[],address[])":"136a743c"}},"storageLayout":{"storage":[{"astId":123,"contract":"contracts/Store.sol:Store","label":"_status","offset":0,"slot":"0","type":"t_uint256"},{"astId":7,"contract":"contracts/Store.sol:Store","label":"_owner","offset":0,"slot":"1","type":"t_address"},{"astId":4273,"contract":"contracts/Store.sol:Store","label":"shirtNFTAddress","offset":0,"slot":"2","type":"t_address"},{"astId":4275,"contract":"contracts/Store.sol:Store","label":"shippingFee","offset":0,"slot":"3","type":"t_uint256"},{"astId":4277,"contract":"contracts/Store.sol:Store","label":"eachShirtFee","offset":0,"slot":"4","type":"t_uint256"},{"astId":4279,"contract":"contracts/Store.sol:Store","label":"percentRoyaltyFee","offset":0,"slot":"5","type":"t_uint256"},{"astId":4286,"contract":"contracts/Store.sol:Store","label":"isWhitelistNFT","offset":0,"slot":"6","type":"t_mapping(t_address,t_bool)"},{"astId":4290,"contract":"contracts/Store.sol:Store","label":"ownerOfNFT","offset":0,"slot":"7","type":"t_mapping(t_address,t_address)"},{"astId":4303,"contract":"contracts/Store.sol:Store","label":"_shirtTokenId","offset":0,"slot":"8","type":"t_uint256"},{"astId":4308,"contract":"contracts/Store.sol:Store","label":"indexToShirt","offset":0,"slot":"9","type":"t_mapping(t_uint256,t_struct(Shirt)4301_storage)"},{"astId":4313,"contract":"contracts/Store.sol:Store","label":"buyerToShirtIndexs","offset":0,"slot":"10","type":"t_mapping(t_address,t_array(t_uint256)dyn_storage)"},{"astId":4317,"contract":"contracts/Store.sol:Store","label":"balances","offset":0,"slot":"11","type":"t_mapping(t_address,t_uint256)"}],"types":{"t_address":{"encoding":"inplace","label":"address","numberOfBytes":"20"},"t_array(t_address)dyn_storage":{"base":"t_address","encoding":"dynamic_array","label":"address[]","numberOfBytes":"32"},"t_array(t_uint256)dyn_storage":{"base":"t_uint256","encoding":"dynamic_array","label":"uint256[]","numberOfBytes":"32"},"t_bool":{"encoding":"inplace","label":"bool","numberOfBytes":"1"},"t_mapping(t_address,t_address)":{"encoding":"mapping","key":"t_address","label":"mapping(address => address)","numberOfBytes":"32","value":"t_address"},"t_mapping(t_address,t_array(t_uint256)dyn_storage)":{"encoding":"mapping","key":"t_address","label":"mapping(address => uint256[])","numberOfBytes":"32","value":"t_array(t_uint256)dyn_storage"},"t_mapping(t_address,t_bool)":{"encoding":"mapping","key":"t_address","label":"mapping(address => bool)","numberOfBytes":"32","value":"t_bool"},"t_mapping(t_address,t_uint256)":{"encoding":"mapping","key":"t_address","label":"mapping(address => uint256)","numberOfBytes":"32","value":"t_uint256"},"t_mapping(t_uint256,t_struct(Shirt)4301_storage)":{"encoding":"mapping","key":"t_uint256","label":"mapping(uint256 => struct Store.Shirt)","numberOfBytes":"32","value":"t_struct(Shirt)4301_storage"},"t_struct(Shirt)4301_storage":{"encoding":"inplace","label":"struct Store.Shirt","members":[{"astId":4293,"contract":"contracts/Store.sol:Store","label":"originalNFTs","offset":0,"slot":"0","type":"t_array(t_address)dyn_storage"},{"astId":4296,"contract":"contracts/Store.sol:Store","label":"originalTokenIds","offset":0,"slot":"1","type":"t_array(t_uint256)dyn_storage"},{"astId":4298,"contract":"contracts/Store.sol:Store","label":"buyer","offset":0,"slot":"2","type":"t_address"},{"astId":4300,"contract":"contracts/Store.sol:Store","label":"shirtTokenId","offset":0,"slot":"3","type":"t_uint256"}],"numberOfBytes":"128"},"t_uint256":{"encoding":"inplace","label":"uint256","numberOfBytes":"32"}}},"userdoc":{"kind":"user","methods":{},"version":1}}}}