{
  "_format": "hh-sol-artifact-1",
  "contractName": "NFT1155",
  "sourceName": "contracts/NFT1155.sol",
  "abi": [
    {
      "inputs": [
        {
          "internalType": "string",
          "name": "baseUri",
          "type": "string"
        }
      ],
      "stateMutability": "nonpayable",
      "type": "constructor"
    },
    {
      "anonymous": false,
      "inputs": [
        {
          "indexed": true,
          "internalType": "address",
          "name": "account",
          "type": "address"
        },
        {
          "indexed": true,
          "internalType": "address",
          "name": "operator",
          "type": "address"
        },
        {
          "indexed": false,
          "internalType": "bool",
          "name": "approved",
          "type": "bool"
        }
      ],
      "name": "ApprovalForAll",
      "type": "event"
    },
    {
      "anonymous": false,
      "inputs": [
        {
          "indexed": true,
          "internalType": "address",
          "name": "previousOwner",
          "type": "address"
        },
        {
          "indexed": true,
          "internalType": "address",
          "name": "newOwner",
          "type": "address"
        }
      ],
      "name": "OwnershipTransferred",
      "type": "event"
    },
    {
      "anonymous": false,
      "inputs": [
        {
          "indexed": true,
          "internalType": "address",
          "name": "operator",
          "type": "address"
        },
        {
          "indexed": true,
          "internalType": "address",
          "name": "from",
          "type": "address"
        },
        {
          "indexed": true,
          "internalType": "address",
          "name": "to",
          "type": "address"
        },
        {
          "indexed": false,
          "internalType": "uint256[]",
          "name": "ids",
          "type": "uint256[]"
        },
        {
          "indexed": false,
          "internalType": "uint256[]",
          "name": "values",
          "type": "uint256[]"
        }
      ],
      "name": "TransferBatch",
      "type": "event"
    },
    {
      "anonymous": false,
      "inputs": [
        {
          "indexed": true,
          "internalType": "address",
          "name": "operator",
          "type": "address"
        },
        {
          "indexed": true,
          "internalType": "address",
          "name": "from",
          "type": "address"
        },
        {
          "indexed": true,
          "internalType": "address",
          "name": "to",
          "type": "address"
        },
        {
          "indexed": false,
          "internalType": "uint256",
          "name": "id",
          "type": "uint256"
        },
        {
          "indexed": false,
          "internalType": "uint256",
          "name": "value",
          "type": "uint256"
        }
      ],
      "name": "TransferSingle",
      "type": "event"
    },
    {
      "anonymous": false,
      "inputs": [
        {
          "indexed": false,
          "internalType": "string",
          "name": "value",
          "type": "string"
        },
        {
          "indexed": true,
          "internalType": "uint256",
          "name": "id",
          "type": "uint256"
        }
      ],
      "name": "URI",
      "type": "event"
    },
    {
      "inputs": [
        {
          "internalType": "address",
          "name": "account",
          "type": "address"
        },
        {
          "internalType": "uint256",
          "name": "id",
          "type": "uint256"
        }
      ],
      "name": "balanceOf",
      "outputs": [
        {
          "internalType": "uint256",
          "name": "",
          "type": "uint256"
        }
      ],
      "stateMutability": "view",
      "type": "function"
    },
    {
      "inputs": [
        {
          "internalType": "address[]",
          "name": "accounts",
          "type": "address[]"
        },
        {
          "internalType": "uint256[]",
          "name": "ids",
          "type": "uint256[]"
        }
      ],
      "name": "balanceOfBatch",
      "outputs": [
        {
          "internalType": "uint256[]",
          "name": "",
          "type": "uint256[]"
        }
      ],
      "stateMutability": "view",
      "type": "function"
    },
    {
      "inputs": [
        {
          "internalType": "address",
          "name": "account",
          "type": "address"
        },
        {
          "internalType": "address",
          "name": "operator",
          "type": "address"
        }
      ],
      "name": "isApprovedForAll",
      "outputs": [
        {
          "internalType": "bool",
          "name": "",
          "type": "bool"
        }
      ],
      "stateMutability": "view",
      "type": "function"
    },
    {
      "inputs": [],
      "name": "owner",
      "outputs": [
        {
          "internalType": "address",
          "name": "",
          "type": "address"
        }
      ],
      "stateMutability": "view",
      "type": "function"
    },
    {
      "inputs": [],
      "name": "renounceOwnership",
      "outputs": [],
      "stateMutability": "nonpayable",
      "type": "function"
    },
    {
      "inputs": [
        {
          "internalType": "address",
          "name": "from",
          "type": "address"
        },
        {
          "internalType": "address",
          "name": "to",
          "type": "address"
        },
        {
          "internalType": "uint256[]",
          "name": "ids",
          "type": "uint256[]"
        },
        {
          "internalType": "uint256[]",
          "name": "amounts",
          "type": "uint256[]"
        },
        {
          "internalType": "bytes",
          "name": "data",
          "type": "bytes"
        }
      ],
      "name": "safeBatchTransferFrom",
      "outputs": [],
      "stateMutability": "nonpayable",
      "type": "function"
    },
    {
      "inputs": [
        {
          "internalType": "uint256",
          "name": "tokenId",
          "type": "uint256"
        },
        {
          "internalType": "address[]",
          "name": "receivers",
          "type": "address[]"
        },
        {
          "internalType": "uint256[]",
          "name": "amounts",
          "type": "uint256[]"
        }
      ],
      "name": "safeMint",
      "outputs": [],
      "stateMutability": "nonpayable",
      "type": "function"
    },
    {
      "inputs": [
        {
          "internalType": "address",
          "name": "from",
          "type": "address"
        },
        {
          "internalType": "address",
          "name": "to",
          "type": "address"
        },
        {
          "internalType": "uint256",
          "name": "id",
          "type": "uint256"
        },
        {
          "internalType": "uint256",
          "name": "amount",
          "type": "uint256"
        },
        {
          "internalType": "bytes",
          "name": "data",
          "type": "bytes"
        }
      ],
      "name": "safeTransferFrom",
      "outputs": [],
      "stateMutability": "nonpayable",
      "type": "function"
    },
    {
      "inputs": [
        {
          "internalType": "address",
          "name": "operator",
          "type": "address"
        },
        {
          "internalType": "bool",
          "name": "approved",
          "type": "bool"
        }
      ],
      "name": "setApprovalForAll",
      "outputs": [],
      "stateMutability": "nonpayable",
      "type": "function"
    },
    {
      "inputs": [
        {
          "internalType": "bytes4",
          "name": "interfaceId",
          "type": "bytes4"
        }
      ],
      "name": "supportsInterface",
      "outputs": [
        {
          "internalType": "bool",
          "name": "",
          "type": "bool"
        }
      ],
      "stateMutability": "view",
      "type": "function"
    },
    {
      "inputs": [
        {
          "internalType": "address",
          "name": "newOwner",
          "type": "address"
        }
      ],
      "name": "transferOwnership",
      "outputs": [],
      "stateMutability": "nonpayable",
      "type": "function"
    },
    {
      "inputs": [
        {
          "internalType": "uint256",
          "name": "",
          "type": "uint256"
        }
      ],
      "name": "uri",
      "outputs": [
        {
          "internalType": "string",
          "name": "",
          "type": "string"
        }
      ],
      "stateMutability": "view",
      "type": "function"
    }
  ],
  "bytecode": "0x60806040523480156200001157600080fd5b5060405162001a6138038062001a6183398101604081905262000034916200017a565b80620000408162000053565b506200004c336200006c565b5062000293565b805162000068906002906020840190620000be565b5050565b600380546001600160a01b038381166001600160a01b0319831681179093556040519116919082907f8be0079c531659141344cd1fd0a4f28419497f9722a3daafe3b4186f6b6457e090600090a35050565b828054620000cc9062000256565b90600052602060002090601f016020900481019282620000f057600085556200013b565b82601f106200010b57805160ff19168380011785556200013b565b828001600101855582156200013b579182015b828111156200013b5782518255916020019190600101906200011e565b50620001499291506200014d565b5090565b5b808211156200014957600081556001016200014e565b634e487b7160e01b600052604160045260246000fd5b600060208083850312156200018e57600080fd5b82516001600160401b0380821115620001a657600080fd5b818501915085601f830112620001bb57600080fd5b815181811115620001d057620001d062000164565b604051601f8201601f19908116603f01168101908382118183101715620001fb57620001fb62000164565b8160405282815288868487010111156200021457600080fd5b600093505b8284101562000238578484018601518185018701529285019262000219565b828411156200024a5760008684830101525b98975050505050505050565b600181811c908216806200026b57607f821691505b602082108114156200028d57634e487b7160e01b600052602260045260246000fd5b50919050565b6117be80620002a36000396000f3fe608060405234801561001057600080fd5b50600436106100b35760003560e01c80638da5cb5b116100715780638da5cb5b1461015e578063a22cb46514610179578063c3defe391461018c578063e985e9c51461019f578063f242432a146101db578063f2fde38b146101ee57600080fd5b8062fdd58e146100b857806301ffc9a7146100de5780630e89341c146101015780632eb2c2d6146101215780634e1273f414610136578063715018a614610156575b600080fd5b6100cb6100c6366004610ee6565b610201565b6040519081526020015b60405180910390f35b6100f16100ec366004610f26565b610297565b60405190151581526020016100d5565b61011461010f366004610f4a565b6102e9565b6040516100d59190610fb0565b61013461012f36600461110f565b61037d565b005b610149610144366004611226565b6103c9565b6040516100d591906112c5565b6101346104f3565b6003546040516001600160a01b0390911681526020016100d5565b6101346101873660046112d8565b610507565b61013461019a366004611314565b610516565b6100f16101ad366004611381565b6001600160a01b03918216600090815260016020908152604080832093909416825291909152205460ff1690565b6101346101e93660046113b4565b6105e4565b6101346101fc366004611419565b610629565b60006001600160a01b0383166102715760405162461bcd60e51b815260206004820152602a60248201527f455243313135353a2061646472657373207a65726f206973206e6f742061207660448201526930b634b21037bbb732b960b11b60648201526084015b60405180910390fd5b506000908152602081815260408083206001600160a01b03949094168352929052205490565b60006001600160e01b03198216636cdb3d1360e11b14806102c857506001600160e01b031982166303a24d0760e21b145b806102e357506301ffc9a760e01b6001600160e01b03198316145b92915050565b6060600280546102f890611434565b80601f016020809104026020016040519081016040528092919081815260200182805461032490611434565b80156103715780601f1061034657610100808354040283529160200191610371565b820191906000526020600020905b81548152906001019060200180831161035457829003601f168201915b50505050509050919050565b6001600160a01b038516331480610399575061039985336101ad565b6103b55760405162461bcd60e51b81526004016102689061146f565b6103c285858585856106a2565b5050505050565b6060815183511461042e5760405162461bcd60e51b815260206004820152602960248201527f455243313135353a206163636f756e747320616e6420696473206c656e677468604482015268040dad2e6dac2e8c6d60bb1b6064820152608401610268565b6000835167ffffffffffffffff81111561044a5761044a610fc3565b604051908082528060200260200182016040528015610473578160200160208202803683370190505b50905060005b84518110156104eb576104be858281518110610497576104976114be565b60200260200101518583815181106104b1576104b16114be565b6020026020010151610201565b8282815181106104d0576104d06114be565b60209081029190910101526104e4816114ea565b9050610479565b509392505050565b6104fb61087f565b61050560006108d9565b565b61051233838361092b565b5050565b61051e61087f565b60008251118015610530575080518251145b6105735760405162461bcd60e51b8152602060048201526014602482015273092dcecc2d8d2c840d2dce0eae840d8cadccee8d60631b6044820152606401610268565b60005b82518110156105de576105cc838281518110610594576105946114be565b6020026020010151858484815181106105af576105af6114be565b602002602001015160405180602001604052806000815250610a0c565b806105d6816114ea565b915050610576565b50505050565b6001600160a01b038516331480610600575061060085336101ad565b61061c5760405162461bcd60e51b81526004016102689061146f565b6103c28585858585610b20565b61063161087f565b6001600160a01b0381166106965760405162461bcd60e51b815260206004820152602660248201527f4f776e61626c653a206e6577206f776e657220697320746865207a65726f206160448201526564647265737360d01b6064820152608401610268565b61069f816108d9565b50565b81518351146107045760405162461bcd60e51b815260206004820152602860248201527f455243313135353a2069647320616e6420616d6f756e7473206c656e677468206044820152670dad2e6dac2e8c6d60c31b6064820152608401610268565b6001600160a01b03841661072a5760405162461bcd60e51b815260040161026890611505565b3360005b845181101561081157600085828151811061074b5761074b6114be565b602002602001015190506000858381518110610769576107696114be565b602090810291909101810151600084815280835260408082206001600160a01b038e1683529093529190912054909150818110156107b95760405162461bcd60e51b81526004016102689061154a565b6000838152602081815260408083206001600160a01b038e8116855292528083208585039055908b168252812080548492906107f6908490611594565b925050819055505050508061080a906114ea565b905061072e565b50846001600160a01b0316866001600160a01b0316826001600160a01b03167f4a39dc06d4c0dbc64b70af90fd698a233a518aa5d07e595d983b8c0526c8f7fb87876040516108619291906115ac565b60405180910390a4610877818787878787610c4a565b505050505050565b6003546001600160a01b031633146105055760405162461bcd60e51b815260206004820181905260248201527f4f776e61626c653a2063616c6c6572206973206e6f7420746865206f776e65726044820152606401610268565b600380546001600160a01b038381166001600160a01b0319831681179093556040519116919082907f8be0079c531659141344cd1fd0a4f28419497f9722a3daafe3b4186f6b6457e090600090a35050565b816001600160a01b0316836001600160a01b0316141561099f5760405162461bcd60e51b815260206004820152602960248201527f455243313135353a2073657474696e6720617070726f76616c20737461747573604482015268103337b91039b2b63360b91b6064820152608401610268565b6001600160a01b03838116600081815260016020908152604080832094871680845294825291829020805460ff191686151590811790915591519182527f17307eab39ab6107e8899845ad3d59bd9653f200f220920489ca2b5937696c31910160405180910390a3505050565b6001600160a01b038416610a6c5760405162461bcd60e51b815260206004820152602160248201527f455243313135353a206d696e7420746f20746865207a65726f206164647265736044820152607360f81b6064820152608401610268565b336000610a7885610db5565b90506000610a8585610db5565b90506000868152602081815260408083206001600160a01b038b16845290915281208054879290610ab7908490611594565b909155505060408051878152602081018790526001600160a01b03808a1692600092918716917fc3d58168c5ae7397731d063d5bbf3d657854427343f4c083240f7aacaa2d0f62910160405180910390a4610b1783600089898989610e00565b50505050505050565b6001600160a01b038416610b465760405162461bcd60e51b815260040161026890611505565b336000610b5285610db5565b90506000610b5f85610db5565b90506000868152602081815260408083206001600160a01b038c16845290915290205485811015610ba25760405162461bcd60e51b81526004016102689061154a565b6000878152602081815260408083206001600160a01b038d8116855292528083208985039055908a16825281208054889290610bdf908490611594565b909155505060408051888152602081018890526001600160a01b03808b16928c821692918816917fc3d58168c5ae7397731d063d5bbf3d657854427343f4c083240f7aacaa2d0f62910160405180910390a4610c3f848a8a8a8a8a610e00565b505050505050505050565b6001600160a01b0384163b156108775760405163bc197c8160e01b81526001600160a01b0385169063bc197c8190610c8e90899089908890889088906004016115da565b602060405180830381600087803b158015610ca857600080fd5b505af1925050508015610cd8575060408051601f3d908101601f19168201909252610cd591810190611638565b60015b610d8557610ce4611655565b806308c379a01415610d1e5750610cf9611671565b80610d045750610d20565b8060405162461bcd60e51b81526004016102689190610fb0565b505b60405162461bcd60e51b815260206004820152603460248201527f455243313135353a207472616e7366657220746f206e6f6e20455243313135356044820152732932b1b2b4bb32b91034b6b83632b6b2b73a32b960611b6064820152608401610268565b6001600160e01b0319811663bc197c8160e01b14610b175760405162461bcd60e51b8152600401610268906116fb565b60408051600180825281830190925260609160009190602080830190803683370190505090508281600081518110610def57610def6114be565b602090810291909101015292915050565b6001600160a01b0384163b156108775760405163f23a6e6160e01b81526001600160a01b0385169063f23a6e6190610e449089908990889088908890600401611743565b602060405180830381600087803b158015610e5e57600080fd5b505af1925050508015610e8e575060408051601f3d908101601f19168201909252610e8b91810190611638565b60015b610e9a57610ce4611655565b6001600160e01b0319811663f23a6e6160e01b14610b175760405162461bcd60e51b8152600401610268906116fb565b80356001600160a01b0381168114610ee157600080fd5b919050565b60008060408385031215610ef957600080fd5b610f0283610eca565b946020939093013593505050565b6001600160e01b03198116811461069f57600080fd5b600060208284031215610f3857600080fd5b8135610f4381610f10565b9392505050565b600060208284031215610f5c57600080fd5b5035919050565b6000815180845260005b81811015610f8957602081850181015186830182015201610f6d565b81811115610f9b576000602083870101525b50601f01601f19169290920160200192915050565b602081526000610f436020830184610f63565b634e487b7160e01b600052604160045260246000fd5b601f8201601f1916810167ffffffffffffffff81118282101715610fff57610fff610fc3565b6040525050565b600067ffffffffffffffff82111561102057611020610fc3565b5060051b60200190565b600082601f83011261103b57600080fd5b8135602061104882611006565b6040516110558282610fd9565b83815260059390931b850182019282810191508684111561107557600080fd5b8286015b848110156110905780358352918301918301611079565b509695505050505050565b600082601f8301126110ac57600080fd5b813567ffffffffffffffff8111156110c6576110c6610fc3565b6040516110dd601f8301601f191660200182610fd9565b8181528460208386010111156110f257600080fd5b816020850160208301376000918101602001919091529392505050565b600080600080600060a0868803121561112757600080fd5b61113086610eca565b945061113e60208701610eca565b9350604086013567ffffffffffffffff8082111561115b57600080fd5b61116789838a0161102a565b9450606088013591508082111561117d57600080fd5b61118989838a0161102a565b9350608088013591508082111561119f57600080fd5b506111ac8882890161109b565b9150509295509295909350565b600082601f8301126111ca57600080fd5b813560206111d782611006565b6040516111e48282610fd9565b83815260059390931b850182019282810191508684111561120457600080fd5b8286015b848110156110905761121981610eca565b8352918301918301611208565b6000806040838503121561123957600080fd5b823567ffffffffffffffff8082111561125157600080fd5b61125d868387016111b9565b9350602085013591508082111561127357600080fd5b506112808582860161102a565b9150509250929050565b600081518084526020808501945080840160005b838110156112ba5781518752958201959082019060010161129e565b509495945050505050565b602081526000610f43602083018461128a565b600080604083850312156112eb57600080fd5b6112f483610eca565b91506020830135801515811461130957600080fd5b809150509250929050565b60008060006060848603121561132957600080fd5b83359250602084013567ffffffffffffffff8082111561134857600080fd5b611354878388016111b9565b9350604086013591508082111561136a57600080fd5b506113778682870161102a565b9150509250925092565b6000806040838503121561139457600080fd5b61139d83610eca565b91506113ab60208401610eca565b90509250929050565b600080600080600060a086880312156113cc57600080fd5b6113d586610eca565b94506113e360208701610eca565b93506040860135925060608601359150608086013567ffffffffffffffff81111561140d57600080fd5b6111ac8882890161109b565b60006020828403121561142b57600080fd5b610f4382610eca565b600181811c9082168061144857607f821691505b6020821081141561146957634e487b7160e01b600052602260045260246000fd5b50919050565b6020808252602f908201527f455243313135353a2063616c6c6572206973206e6f7420746f6b656e206f776e60408201526e195c881b9bdc88185c1c1c9bdd9959608a1b606082015260800190565b634e487b7160e01b600052603260045260246000fd5b634e487b7160e01b600052601160045260246000fd5b60006000198214156114fe576114fe6114d4565b5060010190565b60208082526025908201527f455243313135353a207472616e7366657220746f20746865207a65726f206164604082015264647265737360d81b606082015260800190565b6020808252602a908201527f455243313135353a20696e73756666696369656e742062616c616e636520666f60408201526939103a3930b739b332b960b11b606082015260800190565b600082198211156115a7576115a76114d4565b500190565b6040815260006115bf604083018561128a565b82810360208401526115d1818561128a565b95945050505050565b6001600160a01b0386811682528516602082015260a0604082018190526000906116069083018661128a565b8281036060840152611618818661128a565b9050828103608084015261162c8185610f63565b98975050505050505050565b60006020828403121561164a57600080fd5b8151610f4381610f10565b600060033d111561166e5760046000803e5060005160e01c5b90565b600060443d101561167f5790565b6040516003193d81016004833e81513d67ffffffffffffffff81602484011181841117156116af57505050505090565b82850191508151818111156116c75750505050505090565b843d87010160208285010111156116e15750505050505090565b6116f060208286010187610fd9565b509095945050505050565b60208082526028908201527f455243313135353a204552433131353552656365697665722072656a656374656040820152676420746f6b656e7360c01b606082015260800190565b6001600160a01b03868116825285166020820152604081018490526060810183905260a06080820181905260009061177d90830184610f63565b97965050505050505056fea2646970667358221220f0505e394f0a96fcc4bae4311a02be6ed4bd60e1c7dc80440081807fc4aa2e0364736f6c63430008090033",
  "linkReferences": {},
  "deployedLinkReferences": {}
}