{
  "_format": "hh-sol-artifact-1",
  "contractName": "Store",
  "sourceName": "contracts/Store.sol",
  "abi": [
    {
      "anonymous": false,
      "inputs": [
        {
          "indexed": false,
          "internalType": "uint256",
          "name": "oldFee",
          "type": "uint256"
        },
        {
          "indexed": false,
          "internalType": "uint256",
          "name": "newFee",
          "type": "uint256"
        }
      ],
      "name": "EachShirtFeeChanged",
      "type": "event"
    },
    {
      "anonymous": false,
      "inputs": [
        {
          "indexed": false,
          "internalType": "address",
          "name": "nftAddress",
          "type": "address"
        },
        {
          "indexed": false,
          "internalType": "address",
          "name": "newOwner",
          "type": "address"
        },
        {
          "indexed": false,
          "internalType": "address",
          "name": "oldOwner",
          "type": "address"
        }
      ],
      "name": "NFTOwnerChanged",
      "type": "event"
    },
    {
      "anonymous": false,
      "inputs": [
        {
          "indexed": false,
          "internalType": "address",
          "name": "nftAddress",
          "type": "address"
        },
        {
          "indexed": false,
          "internalType": "bool",
          "name": "status",
          "type": "bool"
        }
      ],
      "name": "NFTWhitelistStatusChanged",
      "type": "event"
    },
    {
      "anonymous": false,
      "inputs": [
        {
          "indexed": true,
          "internalType": "address",
          "name": "previousOwner",
          "type": "address"
        },
        {
          "indexed": true,
          "internalType": "address",
          "name": "newOwner",
          "type": "address"
        }
      ],
      "name": "OwnershipTransferred",
      "type": "event"
    },
    {
      "anonymous": false,
      "inputs": [
        {
          "indexed": false,
          "internalType": "uint256",
          "name": "oldFee",
          "type": "uint256"
        },
        {
          "indexed": false,
          "internalType": "uint256",
          "name": "newFee",
          "type": "uint256"
        }
      ],
      "name": "RoyaltyFeeChanged",
      "type": "event"
    },
    {
      "anonymous": false,
      "inputs": [
        {
          "indexed": false,
          "internalType": "uint256",
          "name": "oldFee",
          "type": "uint256"
        },
        {
          "indexed": false,
          "internalType": "uint256",
          "name": "newFee",
          "type": "uint256"
        }
      ],
      "name": "ShippingFeeChanged",
      "type": "event"
    },
    {
      "anonymous": false,
      "inputs": [
        {
          "indexed": false,
          "internalType": "address[]",
          "name": "nftAddresses",
          "type": "address[]"
        },
        {
          "indexed": false,
          "internalType": "uint256[]",
          "name": "tokenIds",
          "type": "uint256[]"
        },
        {
          "indexed": false,
          "internalType": "address",
          "name": "buyer",
          "type": "address"
        },
        {
          "indexed": false,
          "internalType": "uint256",
          "name": "shirtTokenId",
          "type": "uint256"
        }
      ],
      "name": "ShirtCreated",
      "type": "event"
    },
    {
      "anonymous": false,
      "inputs": [
        {
          "indexed": false,
          "internalType": "address",
          "name": "oldAddress",
          "type": "address"
        },
        {
          "indexed": false,
          "internalType": "address",
          "name": "newAddress",
          "type": "address"
        }
      ],
      "name": "ShirtNFTAddressChanged",
      "type": "event"
    },
    {
      "inputs": [
        {
          "internalType": "address",
          "name": "_account",
          "type": "address"
        }
      ],
      "name": "balanceOf",
      "outputs": [
        {
          "internalType": "uint256",
          "name": "",
          "type": "uint256"
        }
      ],
      "stateMutability": "view",
      "type": "function"
    },
    {
      "inputs": [
        {
          "internalType": "address[][]",
          "name": "_nftAddresses",
          "type": "address[][]"
        },
        {
          "internalType": "uint256[][]",
          "name": "_tokenIds",
          "type": "uint256[][]"
        }
      ],
      "name": "buyShirt",
      "outputs": [],
      "stateMutability": "payable",
      "type": "function"
    },
    {
      "inputs": [
        {
          "internalType": "address[]",
          "name": "_nftAddresses",
          "type": "address[]"
        },
        {
          "internalType": "bool[]",
          "name": "_status",
          "type": "bool[]"
        }
      ],
      "name": "changeNFTWhitelistStatus",
      "outputs": [],
      "stateMutability": "nonpayable",
      "type": "function"
    },
    {
      "inputs": [],
      "name": "eachShirtFee",
      "outputs": [
        {
          "internalType": "uint256",
          "name": "",
          "type": "uint256"
        }
      ],
      "stateMutability": "view",
      "type": "function"
    },
    {
      "inputs": [
        {
          "internalType": "address[][]",
          "name": "_nftAddresses",
          "type": "address[][]"
        },
        {
          "internalType": "uint256[][]",
          "name": "_tokenIds",
          "type": "uint256[][]"
        }
      ],
      "name": "estimateCost",
      "outputs": [
        {
          "internalType": "uint256",
          "name": "cost",
          "type": "uint256"
        }
      ],
      "stateMutability": "view",
      "type": "function"
    },
    {
      "inputs": [
        {
          "internalType": "address",
          "name": "_nftAddress",
          "type": "address"
        }
      ],
      "name": "getNFTStatus",
      "outputs": [
        {
          "internalType": "address",
          "name": "owner",
          "type": "address"
        },
        {
          "internalType": "bool",
          "name": "status",
          "type": "bool"
        }
      ],
      "stateMutability": "view",
      "type": "function"
    },
    {
      "inputs": [
        {
          "internalType": "address",
          "name": "_nft",
          "type": "address"
        },
        {
          "internalType": "uint256",
          "name": "_shippingFee",
          "type": "uint256"
        },
        {
          "internalType": "uint256",
          "name": "_eachShirtFee",
          "type": "uint256"
        },
        {
          "internalType": "uint256",
          "name": "_percentRoyaltyFee",
          "type": "uint256"
        }
      ],
      "name": "initialize",
      "outputs": [],
      "stateMutability": "nonpayable",
      "type": "function"
    },
    {
      "inputs": [],
      "name": "owner",
      "outputs": [
        {
          "internalType": "address",
          "name": "",
          "type": "address"
        }
      ],
      "stateMutability": "view",
      "type": "function"
    },
    {
      "inputs": [],
      "name": "percentRoyaltyFee",
      "outputs": [
        {
          "internalType": "uint256",
          "name": "",
          "type": "uint256"
        }
      ],
      "stateMutability": "view",
      "type": "function"
    },
    {
      "inputs": [],
      "name": "renounceOwnership",
      "outputs": [],
      "stateMutability": "nonpayable",
      "type": "function"
    },
    {
      "inputs": [
        {
          "internalType": "uint256",
          "name": "_eachShirtFee",
          "type": "uint256"
        }
      ],
      "name": "setEachShirtFee",
      "outputs": [],
      "stateMutability": "nonpayable",
      "type": "function"
    },
    {
      "inputs": [
        {
          "internalType": "address",
          "name": "_shirtNFTAddress",
          "type": "address"
        }
      ],
      "name": "setNFTAddress",
      "outputs": [],
      "stateMutability": "nonpayable",
      "type": "function"
    },
    {
      "inputs": [
        {
          "internalType": "address[]",
          "name": "_nftAddresses",
          "type": "address[]"
        },
        {
          "internalType": "address[]",
          "name": "_nftOwners",
          "type": "address[]"
        }
      ],
      "name": "setNFTOwner",
      "outputs": [],
      "stateMutability": "nonpayable",
      "type": "function"
    },
    {
      "inputs": [
        {
          "internalType": "uint256",
          "name": "_percentRoyaltyFee",
          "type": "uint256"
        }
      ],
      "name": "setPercentRoyaltyFee",
      "outputs": [],
      "stateMutability": "nonpayable",
      "type": "function"
    },
    {
      "inputs": [
        {
          "internalType": "uint256",
          "name": "_shippingFee",
          "type": "uint256"
        }
      ],
      "name": "setShippingFee",
      "outputs": [],
      "stateMutability": "nonpayable",
      "type": "function"
    },
    {
      "inputs": [],
      "name": "shippingFee",
      "outputs": [
        {
          "internalType": "uint256",
          "name": "",
          "type": "uint256"
        }
      ],
      "stateMutability": "view",
      "type": "function"
    },
    {
      "inputs": [],
      "name": "shirtNFTAddress",
      "outputs": [
        {
          "internalType": "address",
          "name": "",
          "type": "address"
        }
      ],
      "stateMutability": "view",
      "type": "function"
    },
    {
      "inputs": [
        {
          "internalType": "address",
          "name": "newOwner",
          "type": "address"
        }
      ],
      "name": "transferOwnership",
      "outputs": [],
      "stateMutability": "nonpayable",
      "type": "function"
    },
    {
      "inputs": [
        {
          "internalType": "address[]",
          "name": "_nftAddresses",
          "type": "address[]"
        },
        {
          "internalType": "address[]",
          "name": "_nftOwners",
          "type": "address[]"
        }
      ],
      "name": "whitelistNFT",
      "outputs": [],
      "stateMutability": "nonpayable",
      "type": "function"
    },
    {
      "inputs": [],
      "name": "withDraw",
      "outputs": [],
      "stateMutability": "nonpayable",
      "type": "function"
    },
    {
      "inputs": [],
      "name": "withDrawShirtFee",
      "outputs": [],
      "stateMutability": "nonpayable",
      "type": "function"
    }
  ],
  "bytecode": "0x608060405234801561001057600080fd5b50611a52806100206000396000f3fe60806040526004361061012a5760003560e01c806369d03738116100ab5780638da5cb5b1161006f5780638da5cb5b146103105780639554f8f01461032e5780639e7c11a514610399578063ccf99a6e146103af578063d3ac1e4a146103cf578063f2fde38b146103ef57600080fd5b806369d037381461026f57806370a082311461028f578063715018a6146102c55780637719bc7b146102da57806389bd3beb146102fa57600080fd5b80634abaf07e116100f25780634abaf07e146101cc5780634ec81af1146101e257806350b9b3e31461020257806359f7963d146102175780635d6297c21461023757600080fd5b80630fdb1c101461012f578063136a743c146101465780631cc88bcd1461016657806344ed1fa4146101865780634a59c50d14610199575b600080fd5b34801561013b57600080fd5b5061014461040f565b005b34801561015257600080fd5b5061014461016136600461148a565b6104ef565b34801561017257600080fd5b5061014461018136600461148a565b6105be565b6101446101943660046115cf565b61063c565b3480156101a557600080fd5b506101b96101b43660046115cf565b610954565b6040519081526020015b60405180910390f35b3480156101d857600080fd5b506101b960985481565b3480156101ee57600080fd5b506101446101fd366004611699565b610a16565b34801561020e57600080fd5b50610144610b0d565b34801561022357600080fd5b506101446102323660046116d2565b610b83565b34801561024357600080fd5b50609754610257906001600160a01b031681565b6040516001600160a01b0390911681526020016101c3565b34801561027b57600080fd5b5061014461028a3660046116eb565b610bf3565b34801561029b57600080fd5b506101b96102aa3660046116eb565b6001600160a01b0316600090815260a0602052604090205490565b3480156102d157600080fd5b50610144610c77565b3480156102e657600080fd5b506101446102f536600461171b565b610cad565b34801561030657600080fd5b506101b9609a5481565b34801561031c57600080fd5b506033546001600160a01b0316610257565b34801561033a57600080fd5b5061037a6103493660046116eb565b6001600160a01b039081166000908152609c6020908152604080832054609b9092529091205491169160ff90911690565b604080516001600160a01b0390931683529015156020830152016101c3565b3480156103a557600080fd5b506101b960995481565b3480156103bb57600080fd5b506101446103ca3660046116d2565b610de9565b3480156103db57600080fd5b506101446103ea3660046116d2565b610e18565b3480156103fb57600080fd5b5061014461040a3660046116eb565b610e80565b6002606554141561043b5760405162461bcd60e51b8152600401610432906117df565b60405180910390fd5b600260655533600081815260a06020526040808220805490839055905190929083905b60006040518083038185875af1925050503d806000811461049b576040519150601f19603f3d011682016040523d82523d6000602084013e6104a0565b606091505b50509050806104e65760405162461bcd60e51b81526020600482015260126024820152714661696c656420746f20776974686472617760701b6044820152606401610432565b50506001606555565b6033546001600160a01b031633146105195760405162461bcd60e51b815260040161043290611816565b81518151811461053b5760405162461bcd60e51b81526004016104329061184b565b60005b818110156105b85761056a84828151811061055b5761055b611873565b60200260200101516001610f1b565b6105a684828151811061057f5761057f611873565b602002602001015184838151811061059957610599611873565b6020026020010151610f77565b806105b08161189f565b91505061053e565b50505050565b6033546001600160a01b031633146105e85760405162461bcd60e51b815260040161043290611816565b81518151811461060a5760405162461bcd60e51b81526004016104329061184b565b60005b818110156105b85761062a84828151811061057f5761057f611873565b806106348161189f565b91505061060d565b6002606554141561065f5760405162461bcd60e51b8152600401610432906117df565b60026065558151815181146106865760405162461bcd60e51b81526004016104329061184b565b60006106928484610954565b90508034146106d15760405162461bcd60e51b815260206004820152600b60248201526a57726f6e672076616c756560a81b6044820152606401610432565b6000612710609a546099546106e691906118ba565b6106f091906118d9565b905060005b8381101561090957600086828151811061071157610711611873565b602002602001015151905085828151811061072e5761072e611873565b60200260200101515181146107555760405162461bcd60e51b81526004016104329061184b565b60005b818110156108b957609b600089858151811061077657610776611873565b6020026020010151838151811061078f5761078f611873565b6020908102919091018101516001600160a01b031682528101919091526040016000205460ff166108025760405162461bcd60e51b815260206004820152601c60248201527f4e465420686173206e6f74206265656e2077686974656c6973746564000000006044820152606401610432565b8360a06000609c60008c888151811061081d5761081d611873565b6020026020010151868151811061083657610836611873565b60200260200101516001600160a01b03166001600160a01b0316815260200190815260200160002060009054906101000a90046001600160a01b03166001600160a01b03166001600160a01b0316815260200190815260200160002060008282546108a191906118fb565b909155508190506108b18161189f565b915050610758565b506108f68783815181106108cf576108cf611873565b60200260200101518784815181106108e9576108e9611873565b6020026020010151610fed565b50806109018161189f565b9150506106f5565b5060985460995461091a90856118ba565b61092491906118fb565b30600090815260a06020526040812080549091906109439084906118fb565b909155505060016065555050505050565b8151815160009190811461097a5760405162461bcd60e51b81526004016104329061184b565b6000805b828110156109c05785818151811061099857610998611873565b602002602001015151826109ac91906118fb565b9150806109b88161189f565b91505061097e565b50609854612710609a54609954856109d891906118ba565b6109e291906118ba565b6109ec91906118d9565b6099546109f990856118ba565b610a0391906118fb565b610a0d91906118fb565b95945050505050565b600054610100900460ff16610a315760005460ff1615610a35565b303b155b610a985760405162461bcd60e51b815260206004820152602e60248201527f496e697469616c697a61626c653a20636f6e747261637420697320616c72656160448201526d191e481a5b9a5d1a585b1a5e995960921b6064820152608401610432565b600054610100900460ff16158015610aba576000805461ffff19166101011790555b610ac26111ce565b610aca6111fd565b609780546001600160a01b0319166001600160a01b03871617905560988490556099839055609a8290558015610b06576000805461ff00191690555b5050505050565b6033546001600160a01b03163314610b375760405162461bcd60e51b815260040161043290611816565b60026065541415610b5a5760405162461bcd60e51b8152600401610432906117df565b600260655530600090815260a0602052604080822080549083905590519091903390839061045e565b6033546001600160a01b03163314610bad5760405162461bcd60e51b815260040161043290611816565b609980549082905560408051828152602081018490527f85a2a890c70c5a5ee952f19486e44acdedfc71232102da235ff85a67b865007391015b60405180910390a15050565b6033546001600160a01b03163314610c1d5760405162461bcd60e51b815260040161043290611816565b609780546001600160a01b038381166001600160a01b031983168117909355604080519190921680825260208201939093527f0edc78a89177a1c94eb3540a6f8106c6aff7069b6bea3a6e99fd989d4a0c135d9101610be7565b6033546001600160a01b03163314610ca15760405162461bcd60e51b815260040161043290611816565b610cab600061122c565b565b6033546001600160a01b03163314610cd75760405162461bcd60e51b815260040161043290611816565b815181518114610cf95760405162461bcd60e51b81526004016104329061184b565b60005b818110156105b85760006001600160a01b0316609c6000868481518110610d2557610d25611873565b6020908102919091018101516001600160a01b0390811683529082019290925260400160002054161415610d9b5760405162461bcd60e51b815260206004820152601a60248201527f4e4654204f776e657220686173206e6f74206265656e207365740000000000006044820152606401610432565b610dd7848281518110610db057610db0611873565b6020026020010151848381518110610dca57610dca611873565b6020026020010151610f1b565b80610de18161189f565b915050610cfc565b6033546001600160a01b03163314610e135760405162461bcd60e51b815260040161043290611816565b609a55565b6033546001600160a01b03163314610e425760405162461bcd60e51b815260040161043290611816565b609880549082905560408051828152602081018490527fe61a8739eeed1662f3a9d19613d2e49116ef49912f1a0b6c9d8170e5307b93d09101610be7565b6033546001600160a01b03163314610eaa5760405162461bcd60e51b815260040161043290611816565b6001600160a01b038116610f0f5760405162461bcd60e51b815260206004820152602660248201527f4f776e61626c653a206e6577206f776e657220697320746865207a65726f206160448201526564647265737360d01b6064820152608401610432565b610f188161122c565b50565b6001600160a01b0382166000818152609b6020908152604091829020805460ff19168515159081179091558251938452908301527f990ecd0def76eff86d5a91a08dbfb0f33a9c9e1873684a516a93ccf3f70a32569101610be7565b6001600160a01b038281166000818152609c602090815260409182902080548686166001600160a01b0319821681179092558351948552918401529092169181018290527ff2a473776e0255419f7dedde904f0545f4b6f1e072cb64487d4ea3f5576dc01d9060600160405180910390a1505050565b604080516080810182528381526020810183905233818301819052609d54606083018190526097549351632851206560e21b81526004810192909252602482015290916000916001600160a01b039091169063a144819490604401602060405180830381600087803b15801561106257600080fd5b505af1158015611076573d6000803e3d6000fd5b505050506040513d601f19601f8201168201806040525081019061109a9190611913565b9050806110de5760405162461bcd60e51b815260206004820152601260248201527111985a5b1959081d1bc81b5a5b9d0813919560721b6044820152606401610432565b609d546000908152609e602090815260409091208351805185936111069284929101906112dc565b50602082810151805161111f9260018501920190611341565b506040828101516002830180546001600160a01b0319166001600160a01b03909216919091179055606090920151600390910155336000818152609f6020908152838220609d805482546001810184559285529290932001555491517f206ba06c561797da5d0262fc18d44d194c8cc1988e613c7c96f3df8f8f330a37926111ab928892889290611930565b60405180910390a1609d80549060006111c38361189f565b919050555050505050565b600054610100900460ff166111f55760405162461bcd60e51b8152600401610432906119d1565b610cab61127e565b600054610100900460ff166112245760405162461bcd60e51b8152600401610432906119d1565b610cab6112ae565b603380546001600160a01b038381166001600160a01b0319831681179093556040519116919082907f8be0079c531659141344cd1fd0a4f28419497f9722a3daafe3b4186f6b6457e090600090a35050565b600054610100900460ff166112a55760405162461bcd60e51b8152600401610432906119d1565b610cab3361122c565b600054610100900460ff166112d55760405162461bcd60e51b8152600401610432906119d1565b6001606555565b828054828255906000526020600020908101928215611331579160200282015b8281111561133157825182546001600160a01b0319166001600160a01b039091161782556020909201916001909101906112fc565b5061133d92915061137c565b5090565b828054828255906000526020600020908101928215611331579160200282015b82811115611331578251825591602001919060010190611361565b5b8082111561133d576000815560010161137d565b634e487b7160e01b600052604160045260246000fd5b604051601f8201601f1916810167ffffffffffffffff811182821017156113d0576113d0611391565b604052919050565b600067ffffffffffffffff8211156113f2576113f2611391565b5060051b60200190565b80356001600160a01b038116811461141357600080fd5b919050565b600082601f83011261142957600080fd5b8135602061143e611439836113d8565b6113a7565b82815260059290921b8401810191818101908684111561145d57600080fd5b8286015b8481101561147f57611472816113fc565b8352918301918301611461565b509695505050505050565b6000806040838503121561149d57600080fd5b823567ffffffffffffffff808211156114b557600080fd5b6114c186838701611418565b935060208501359150808211156114d757600080fd5b506114e485828601611418565b9150509250929050565b600082601f8301126114ff57600080fd5b8135602061150f611439836113d8565b828152600592831b850182019282820191908785111561152e57600080fd5b8387015b858110156115c257803567ffffffffffffffff8111156115525760008081fd5b8801603f81018a136115645760008081fd5b858101356040611576611439836113d8565b82815291851b8301810191888101908d8411156115935760008081fd5b938201935b838510156115b157843582529389019390890190611598565b885250505093850193508401611532565b5090979650505050505050565b600080604083850312156115e257600080fd5b823567ffffffffffffffff808211156115fa57600080fd5b818501915085601f83011261160e57600080fd5b8135602061161e611439836113d8565b82815260059290921b8401810191818101908984111561163d57600080fd5b8286015b84811015611675578035868111156116595760008081fd5b6116678c86838b0101611418565b845250918301918301611641565b509650508601359250508082111561168c57600080fd5b506114e4858286016114ee565b600080600080608085870312156116af57600080fd5b6116b8856113fc565b966020860135965060408601359560600135945092505050565b6000602082840312156116e457600080fd5b5035919050565b6000602082840312156116fd57600080fd5b611706826113fc565b9392505050565b8015158114610f1857600080fd5b6000806040838503121561172e57600080fd5b823567ffffffffffffffff8082111561174657600080fd5b61175286838701611418565b935060209150818501358181111561176957600080fd5b85019050601f8101861361177c57600080fd5b803561178a611439826113d8565b81815260059190911b820183019083810190888311156117a957600080fd5b928401925b828410156117d05783356117c18161170d565b825292840192908401906117ae565b80955050505050509250929050565b6020808252601f908201527f5265656e7472616e637947756172643a207265656e7472616e742063616c6c00604082015260600190565b6020808252818101527f4f776e61626c653a2063616c6c6572206973206e6f7420746865206f776e6572604082015260600190565b6020808252600e908201526d092dcecc2d8d2c840d8cadccee8d60931b604082015260600190565b634e487b7160e01b600052603260045260246000fd5b634e487b7160e01b600052601160045260246000fd5b60006000198214156118b3576118b3611889565b5060010190565b60008160001904831182151516156118d4576118d4611889565b500290565b6000826118f657634e487b7160e01b600052601260045260246000fd5b500490565b6000821982111561190e5761190e611889565b500190565b60006020828403121561192557600080fd5b81516117068161170d565b6080808252855190820181905260009060209060a0840190828901845b828110156119725781516001600160a01b03168452928401929084019060010161194d565b5050508381038285015286518082528783019183019060005b818110156119a75783518352928401929184019160010161198b565b50506001600160a01b038716604086015292506119c2915050565b82606083015295945050505050565b6020808252602b908201527f496e697469616c697a61626c653a20636f6e7472616374206973206e6f74206960408201526a6e697469616c697a696e6760a81b60608201526080019056fea26469706673582212205842380b9de1c1f3459728c54ca42b223d08ef0bc4a0e31f33fb24cc1817385564736f6c63430008090033",
  "linkReferences": {},
  "deployedLinkReferences": {}
}